:02000002E0001C
:100000000000042019020E0001020E0003020E007F
:1000100005020E0007020E0009020E00000000009B
:10002000000000000000000000000000C55B0E00A2
:100030000D020E00000000000F020E0011020E0063
:1000400013020E0013020E0013020E0013020E0024
:1000500013020E0013020E0013020E0013020E0014
:1000600013020E0013020E0013020E0013020E0004
:1000700013020E0013020E0013020E0013020E00F4
:1000800049130E0013020E0013020E0013020E009D
:1000900013020E0013020E002D5F0E0013020E005D
:1000A00013020E0013020E0013020E0013020E00C4
:1000B00013020E0013020E000000000000000000FA
:1000C00013020E0013020E0013020E0013020E00A4
:1000D000E50C0E0013020E0013020E0013020E00B8
:1000E00013020E0013020E00FD7F0E000000000040
:1000F0000000000013020E000000000013020E00BA
:1001000000000000000000000000000000000000EF
:1001100000000000000000000000000000000000DF
:1001200000000000000000000000000000000000CF
:1001300000000000000000000000000000000000BF
:1001400000000000000000000000000000000000AF
:10015000000000000000000000000000000000009F
:10016000000000000000000000000000000000008F
:10017000000000000000000000000000000000007F
:10018000000000000000000000000000000000006F
:10019000000000000000000000000000000000005F
:1001A000000000000000000000000000000000004F
:1001B000000000000000000000000000000000003F
:1001C000000000000000000000000000000000002F
:1001D000000000000000000000000000000000001F
:1001E000000000000000000000000000000000000F
:1001F00000000000000000000000000000000000FF
:10020000FEE7FEE7FEE7FEE7FEE7FEE7FEE7FEE7C6
:10021000FEE7FEE700F002B8FFF7FCBF0F484FF023
:100220000701884385460E4880470E48016841F41F
:1002300070010160BFF34F8FBFF36F8F00F01AB8EA
:1002400009480A490A4A884207D0521A05D0037859
:1002500001300B700131013AF9D1704700000420E0
:1002600089050E0088ED00E0CC8A0E007859002048
:100270008C590020314932480A1A02D00722914392
:100280008D46304930480A1A06D00722914381F33F
:100290000988022282F314882C482D492D4A00F047
:1002A0003CF82D482D492E4A00F037F82D482E49AC
:1002B0002E4A00F032F82E482E492F4A00F02DF831
:1002C0002E482F492F4A00F028F82F482F49304A4E
:1002D00000F023F82F483049304A00F01EF830482B
:1002E0003049002200F024F82F483049002200F065
:1002F0001FF82F4A90471F481F49884205D00268BF
:10030000043003B4904703BCF7E700208646EC4670
:1003100000200021274A9047FEE7884207D0521A62
:1003200005D0037801300B700131013AF9D17047E3
:10033000884202D002700130FAE7704700000420C2
:1003400000F8032000000420000004204CB90E0037
:100350008C590020E0590020B8030E00B8030E00AD
:10036000D8890E004CB90E008C5900208C59002001
:10037000E08A0E00E08A0E00E08A0E00E08A0E009D
:10038000E08A0E00E08A0E00E08A0E00E08A0E008D
:100390004BB90E00A0B90E00E0590020E059002032
:1003A000E0590020F4B10020F4B10020F4B10020A5
:0803B00041020E006D040E0075
:1003B800072808D8012202FA00F313F0A10F02D08F
:1003C800104600F0B9B8704708B505F055FA05F0C1
:1003D80041F80028FBD10B4D642445F001054FF48A
:1003E8007A40A847013CFAD1BFF34F8F0649074B23
:1003F800CA6802F4E0621343CB60BFF34F8F00BFBB
:10040800FDE700BFB08B0E0000ED00E00400FA0528
:1004180007B50B46064C07490092641AE408240401
:100428000246054944F0010005F07FF9FFF7CCFFCB
:10043800F4890E00F4890E00208B0E0008B50246E0
:10044800054B064806491B1ADB081B0443F001004C
:1004580005F058F9FFF7B8FFF4890E00F4890E008B
:10046800578B0E004FF0804310B5D3F81C2502F0CF
:10047800FA02B22A1CD1D3F81C254FF0102102F041
:100488000502C3F81C25CB69013311D0224B4FF06C
:10049800FF32C3F88020C3F88420C3F88021C3F852
:1004A8008421BFF34F8FBFF36F8FC86900F01FFB24
:1004B80000F0FCFE4FF48051002000F027FB08B14B
:1004C800FFF7BCFF1548C0F57E2100F01FFB014671
:1004D8000028F5D11248134C04F06AFF04F0A0FE7E
:1004E800114B1249E41AE408240444F0030005F00F
:1004F80005F90F4800F0D0F90028E1D104F0AAFF6F
:100508000028FBD10B4944F0010005F0F7F804F08E
:10051800A1FF0028FBD1D3E700E100E000000E00B6
:10052800250E0E00F4890E00F4890E00728B0E0061
:10053800B9030E007E8B0E0070474FF08053D3F83E
:100548003001A0F108035842584170474FF08053DA
:10055800D3F83021082A06D1D3F83431052B02D834
:10056800024AD05C70470020704700BFBC8B0E0069
:10057800024AD2F80034002BFBD0704700E001405B
:100588004FF0A043032210B5C3F838274FF4804238
:10059800C3F80825FFF7D1FF40B14FF08043002290
:1005A800C3F80C21C3F81021C3F83825FFF7C5FF9D
:1005B800002846D04FF08052654BD2F80414C3F897
:1005C8002015D2F80814C3F82415D2F80C14C3F86F
:1005D8002815D2F81014C3F82C15D2F81414C3F83F
:1005E8003015D2F81814C3F83415D2F81C14C3F80F
:1005F8004015D2F82014C3F84415D2F82414C3F8CF
:100608004815D2F82814C3F84C15D2F82C14C3F89E
:100618005015D2F83014C3F85415D2F83414C3F86E
:100628006015D2F83814C3F86415D2F83C14C3F82E
:100638006815D2F84014C3F86C15D2F84424C3F8EE
:100648007025FFF783FF18B1424B434AC3F88C2645
:10065800FFF77CFF18B1414BFB22C3F81825FFF7C1
:1006680075FF70B14FF080414FF08053D1F8E42E00
:10067800D3F8583222F00F0203F00F031343C1F8E6
:10068800E43EFFF763FF20B1354B4FF40072C3F827
:100698004026FFF752FF48B14FF08043D3F80024BB
:1006A800D20744BF6FF00102C3F800242D4AD2F8E4
:1006B800883043F47003C2F88830BFF34F8FBFF31C
:1006C8006F8F4FF08053D3F83021082A0ED1D3F81A
:1006D8003431052B02D8244AD35C3BB14FF01023A8
:1006E800D3F808224FF08043C3F858254FF0102361
:1006F800D3F80022002A03DBD3F80432002B22DAD5
:100708001A4901234FF01020C1F804351224FFF7CD
:100718002FFFC0F80042FFF72BFFC0F80442FFF795
:1007280027FF0023C1F80435FFF722FFBFF34F8FDF
:100738000C490F4BCA6802F4E0621343CB60BFF365
:100748004F8F00BFFDE70B4B0B4A1A6010BD00BF6F
:1007580000C00040005000404881030000F0004005
:100768000090024000ED00E0B68B0E0000E0014072
:100778000400FA058C5900200090D003008800F08E
:100788000100704741DF7047014B01221A70704722
:10079800005E002008B505F06FF804F05BFE002845
:1007A800FBD1BFF34F8F0549054BCA6802F4E062DD
:1007B8001343CB60BFF34F8F00BFFDE700ED00E0B0
:1007C8000400FA0508B50948094B0A49C01AC008C7
:1007D800000440F0040004F091FF074B0748002292
:1007E8001A70BDE8084002F0D1BB00BFF4890E00C2
:1007F800F4890E00C28B0E00005E00209D070E00DB
:1008080008B50748074B0849C01AC008000440F05B
:10081800030004F073FFBDE80840FFF7D3BF00BF33
:10082800F4890E00F4890E00D88B0E00042810B548
:10083800044609D802280DD812D00B4B1B6893B177
:100848002046BDE810401847831F012BF5D8FFF755
:10085800B9FFF2E705494FF4701000F09FFAECE792
:1008680002F076FAE9E710BD045E002009080E00E0
:1008780008B50648064B0749C01AC008000440F0EE
:10088800040004F03BFF002008BD00BFF4890E00FF
:10089800F4890E00EC8B0E0073B55C4B5C4C5D4923
:1008A800E41AE408240444F004060546304604F03B
:1008B80025FF594B00201D6002F07EFB002840F008
:1008C8009F8000F00BFC012800F09380022800F0C4
:1008D8009A80002840F09480504D514944F003001C
:1008E800019004F00BFF2B6A0198012B47D04D496A
:1008F80004F004FF4C49304604F000FF4FF4701434
:1009080000F032FD494A2021182003F07FFC08B18D
:10091800FFF794FD4FF08043D3F81C2502F0F9024D
:10092800B12A02BFD3F81C2502F04E02C3F81C25D9
:100938003A4B9A6D012A06D10020986502F0DAFA3E
:1009480008B1FFF77BFDFFF793FF002858D1204639
:10095800374900F023FA374800F0B0FF00284FD19C
:100968003549304604F0CAFE00F044FD03F0D6FCD9
:1009780004F070FD0028F7D1FFF704FFF4E74FF407
:1009880040535A682D4B9A420BD16A6B4FF48051F1
:1009980005F5187003F04CF918B9294944F002001C
:1009A800A6E702F02FFCAA690146264803F040F9A1
:1009B80008B92549F2E72549304604F09FFE4FF073
:1009C8008043D3F81C3503F0F903B12B01D120493A
:1009D80091E7AB6D012B01D11E498CE702F06CFB4E
:1009E80070B91D4B18701D4802F0D0FA00F03AF8A3
:1009F80001E0FFF7E7FE1A4944F0010004F07EFE2B
:100A0800032002B070BD4FF4A02479E7F4890E00EA
:100A1800F4890E00068C0E00045E0020DC850020A0
:100A28001D8C0E00338C0E00D18C0E00E059002076
:100A380009080E0035080E004D8D0E00DBE5B1519A
:100A4800618C0E007D8800209C8C0E00C48C0E00EA
:100A5800F48C0E00158D0E00005E002091070E002C
:100A6800418D0E0037B51A4B1A4C1B4D1B49E41A21
:100A7800E408240444F004004FF48052019004F088
:100A880041FED5F880201649019804F03BFE4FF04E
:100A9800FF33C5F88030C5F88031C5F88430C5F813
:100AA8008431BFF34F8FBFF36F8F01F031FE20B158
:100AB8000C4944F0010004F021FE04F0CBFC0028AE
:100AC800FBD14FF4805003B0BDE8304000F040B88F
:100AD800F4890E00F4890E0000E100E05D8D0E003F
:100AE800938D0E00BD8D0E0080F308880847EFF344
:100AF80005820023D0E9000183F3148883F310886A
:100B080083F3118883F31388FFF7EEBF70B50546AA
:100B1800C1F30B00A8B9B5F57F2F12D80B4E326878
:100B2800072A10D8130103F1804404F5F034013288
:100B3800C4F80058C4F804180221C4F80818326030
:100B480070BD0720FCE70420FAE700BF085E00201C
:100B580038B504461B48C0F57F21FFF7D7FF054687
:100B680068B11948194B1A491B1ADB081B0443F0D2
:100B780001002A4604F0C6FD2846FFF75FFC02F094
:100B880041FB144B9B6903F6FF7323F47F6323F047
:100B98000F0319180020FFF7B9FF054668B10A4886
:100BA8000A4B0D491B1ADB081B0443F001002A46B7
:100BB80004F0A8FD2846FFF741FC2046BDE8384070
:100BC800FFF795BF00000E00F4890E00F4890E00AF
:100BD800F28D0E00DC850020298E0E001FB5184905
:100BE8000B7853BB4FF08043A024D3F81824D203CA
:100BF8005CBF01229A60134B0022C3F80021D3F88E
:100C0800000103900398C3F84021D3F840010290F3
:100C18000298C3F84421D3F84401019001980A4886
:100C280080F82443102444600220C3F808250122D8
:100C38009A601A60C3F804030A7004B010BD00BFBC
:100C4800105E00200040024000E100E073B51D4B3B
:100C58001D4E05461D481B1ADB081B040C462A4678
:100C680043F004001A4904F04DFD6FF07F41D6F8B7
:100C78000435A14228BF21460B44611A2C7B4A1E29
:100C8800942A23F07F4304F5A8729BBF963B9631C4
:100C98006960696046F822300E4B4FF4F86043F003
:100CA800010398470C4BA200134400221A601B68EA
:100CB8000193019B4FF48033A340C6F8043302B07C
:100CC80070BD00BFF4890E0000400240F4890E0098
:100CD8005D8E0E00A08E0E0040410240264B2DE98D
:100CE800F743D3F8042152B124490A6801320A6053
:100CF8000022C3F80421D3F804310093009B204D4F
:100D0800204B214C214EDFF89080DFF86C90204F6B
:100D1800ED1AED082D0445F004053368CBB1002326
:100D2800336033680193224641462846019B04F00C
:100D3800E9FC227B17494FF480339340C9F8083304
:100D48002246284604F0DEFC616851B12046FFF7D0
:100D58007DFF0436BE4204F11004DED103B0BDE8C5
:100D6800F083A16811B12046FFF770FF2368002BBC
:100D7800EFD09847EDE700BF004002400C5E00202E
:100D8800F4890E00F4890E00905900204041024079
:100D980048410240858E0E00738E0E00F8B5114B47
:100DA800114E0446114837681B1ADB081B043A46E3
:100DB80043F004000D460E4904F0A4FC3A7B4FF4BE
:100DC800803393400B4AC2F808334CB13668FFF7BA
:100DD80005FF356021463046BDE8F840FFF736BFCD
:100DE800F8BD00BFF4890E00B0590020F4890E0048
:100DF800738E0E000040024070B5074B1D68044614
:100E08000E46A860FFF7EAFE2E6021462846BDE898
:100E18007040FFF71BBF00BFB4590020034A044BC2
:100E28001068D3F8043503EB006070470C5E0020AF
:100E380000400240014B01221A707047115E0020E9
:100E4800224BDA6AAC2A2DE9F3415F6A9D6C1FD107
:100E58005B6B1D44FF1A1E4B1E4E1F4A1F4900970D
:100E6800F61AF608360446F004082B46404604F005
:100E78005CFC19483A46294607F09AF9044668B9CD
:100E88001749404604F03AFC204602B0BDE8F0811C
:100E9800002DE0D102F0CAF90546DCE711493B46CE
:100EA8002A46404604F037FC04F0D4FA0028FBD167
:100EB80000F0A0FA3946284601F00CFC0446002848
:100EC800E2D0094946F00100DCE700BFDC850020DC
:100ED800F4890E00F4890E0000000E00A68E0E00A4
:100EE800DB8E0E00128F0E003F8F0E002DE9F04FA3
:100EF800364B2DED028B1646354A9B1A85B0DB081A
:100F08001B040293814243F0040308EE103A05469D
:100F18000F460AD12F49184604F0F0FB002420465A
:100F280005B0BDEC028BBDE8F08FA7EB05084FEAD2
:100F3800183800F019FAB8F1080F28BF4FF0080860
:100F480006F6FF7A4FEA08334FEA1A3A03930EB9C6
:100F58003446E4E7D0452CBFD346C3464FF00002E1
:100F68005946284634BFDDF80C90B14601F06CFBB9
:100F780004460028D3D11849CDF8009018EE100A7D
:100F88002B463A4604F0D1FB09F10302234622F02E
:100F980003023946284601F019FB04460028BED151
:100FA8000E4A136B4B44136301F0F6FFAAEB0B0ACE
:100FB800A6EB09064D444F4404460028C7D0029BBF
:100FC800074943F0010004F099FBA8E7F4890E00F3
:100FD800F4890E00598F0E00688F0E00DC85002002
:100FE800898F0E002DE9F74302F030F9314C324B6E
:100FF800DFF8E4903149D9F84860D9F83080D9F859
:101008003450E41AE4082404074644F0040001902C
:1010180004F074FB06F5005301985A68284B9A426D
:1010280009D0284944F0010004F068FB032528464C
:1010380003B0BDE8F083D9F83030AB421E4404D188
:10104800214904F05BFB0025F1E7C3B94FF4405296
:101058001178142982BF1D495269B2FBF1F206F5D5
:10106800005198BF1A4691F800C0BCF1140F82BF16
:101078004969164BB1FBF3F3154904F04CFBA5EB9A
:10108800080202F6FF7222F47F6222F00F02314654
:1010980007EB0800FFF72AFF054628B10D4944F081
:1010A800010004F02BFBC2E703B0BDE8F04301F0F8
:1010B80073BF00BFF4890E00F4890E00C28F0E00C2
:1010C800DBE5B151E78F0E001B900E0040420F0088
:1010D8002D900E0056900E00DC8500202DE9F0477B
:1010E8005C4B5D4D5D4E5E49ED1AED082D0445F0F3
:1010F8000407384604F002FBF36AAA2B00F08D803F
:101108000BD8012B20D0A52B7BD045F003005549E7
:1011180004F0F4FA0020BDE8F087AC2BF5D1524971
:10112800384604F0EBFA5149384604F0E7FAFFF77D
:1011380059FF044600287AD04D4945F0010004F0D3
:10114800DDFA4FF0010823E04A49384604F0D6FAA0
:10115800D6F82490D6F848A002F054F8346B4649E3
:1011680000EB0408384604F0C9FA316B514488454D
:1011780014BFA9EB040200224046FFF7B7FE04465D
:1011880070B13E4945F0010004F0B8FA4FF000088C
:10119800F36A3B49224645F0010004F0BCFA13E02B
:1011A80002F030F82246494603F020F9B26A90422C
:1011B80080461FD13349384604F0A0FA0123C6E916
:1011C8000783C6F81890A0462F4802F011F82F4B55
:1011D8002F4800221A7001F0DFFE88BBB8F1000F1B
:1011E80035D0336A012B32D138462A4904F086FAC1
:1011F800022090E70346284945F0010004F08BFAE5
:10120800E1E72649384604F079FAFFF7EBFE4FF09C
:1012180001080446002CD7D0BAE72149384604F023
:101228006DFAFFF70DFE4FF000080446F2E7FFF7EE
:1012380007FE044608B11B497FE74FF00108C3E7E2
:1012480045F00100184904F059FA032063E701202A
:1012580061E700BFF4890E00F4890E00DC850020E8
:101268006F900E007B910E0024910E0032910E00BB
:101278004F910E0090900E009A900E0056900E001E
:1012880094910E00B5900E0000860020115E00209B
:101298003D0E0E00C6910E00CA900E0012910E006F
:1012A8001B910E0065910E0022920E0010B50024CD
:1012B800D4F8F83F013304D1084940F6F87002F039
:1012C8006FFFD4F8FC3F013307D1BDE810404FF45D
:1012D8007E2140F6FC7002F063BF10BD00000E00D6
:1012E8000A4AD2F800347BB109480023D2F808151D
:1012F800D940C90748BF03F5C07103F1010348BFCE
:1013080042F82100072BF1D1704700BF00000140CF
:101318003546526E08B50748074B0849C01AC00839
:10132800000440F0030004F0E9F9BDE80840FFF7C5
:10133800D7BF00BF048A0E00F4890E003C920E004D
:1013480007B5084B0022C3F80021D3F800310193F8
:10135800019B04F091FA04F07DF80028FBD103B05A
:101368005DF804FB0000014037B5194D2B784BBBE5
:1013780018481949194B401AC008D3F8002400042A
:1013880040F0030002B3D3F8044515490190224602
:1013980004F0B8F940F616529442B8BF1446A4F5C2
:1013A8004864FFF79DFF01980E49224604F0AAF908
:1013B8000D492046FFF720FD0C4B4FF480321A6090
:1013C80001232B7003B030BD094904F097F9F7E702
:1013D800125E0020048A0E00F4890E00000001400D
:1013E8004A920E0063920E001D130E0000E100E009
:1013F80095920E00034BD3F800340BB1FFF770BF82
:10140800704700BF0000014028B139B10023C1E98D
:1014180000301846704748F21050704748F2135091
:10142800704730B1036848F240508B4208BF002033
:10143800704748F21050704728B148F21150914255
:1014480008BF0020704748F21050704770B5064634
:101458000C461D46FFF7D8FF50B9B3794AB1AB42E5
:101468000AD11146204600F0E7F808B9044B23607A
:1014780070BD48F21050FBE748F21150F8E700BF82
:101488007052464D2DE9F0470C4605461149204655
:10149800DDE9088916461F46FFF7C3FFA8B9636848
:1014A8005A79494652004046FFF7C6FF68B956B117
:1014B8006DB1CDF820803B46324621462846BDE82E
:1014C800F04700F0CFB848F21050BDE8F08748F276
:1014D8001550FAE77052464D10B5044638B149B177
:1014E8000B684160984708B9044B236010BD48F267
:1014F8000150FBE748F21050F8E700BF6E5246482B
:10150800F0B4134648B10768094EB7420AD161B131
:101518002AB14368F0BC5B68184748F20153184683
:10152800F0BC704748F20253F9E748F21053F6E767
:101538006E524648F0B460B107680C4EB7420CD101
:1015480071B143681568DC68A5420CD3F0BC9B6890
:10155800184748F20150F0BC704748F20250FAE7C9
:1015680048F21350F7E748F21450F4E76E52464831
:10157800F7B50446DDE9086715460193FFF7ACFFA8
:1015880068B9019A29462046FFF7BAFF38B93A46A2
:101598003146204603B0BDE8F040FFF7CBBF03B0AB
:1015A800F0BD0000F8B50A4F0A4C0B4EE41B0123AE
:1015B800E40833700025A54203D1022333700020CC
:1015C800F8BD57F8353098470028F9D10135F2E7CA
:1015D800D8890E00E0890E00135E0020013901440D
:1015E800814200D2704703780A7800F8012B01F88D
:1015F8000139F5E7013A02440139824200D27047C5
:1016080011F8013F02F80139F7E770B516460D46A3
:10161800FFF7F0FF3246A9193044BDE87040FFF7E4
:10162800E9BF38B50D460446FFF7D8FF29466019CB
:10163800BDE83840FFF7D2BF10B500F1080301F14B
:10164800200251F8044B43F8044B9142F9D1283059
:1016580001F1200351F8042B40F8042B9942F9D1E9
:10166800002010BD2DE9F743DFF86C809946184B30
:10167800036004460E4640460121174602F07CFFEF
:101688000546BFF35F8FF8B900F0E6F80A9ACDF87F
:1016980000903B4606F10801204605F04FFB044642
:1016A80000F0E8F8BFF35F8FC8F8005044B109496B
:1016B80048F2165248F242538C4214BF14461C4654
:1016C800204603B0BDE8F08348F20454F8E700BFB1
:1016D800DD55AABB8408F000146E00200E4B98421A
:1016E80014D00AD8B8B10D4948F2165248F201533D
:1016F800884214BF104618467047094B984208D0D4
:10170800084948F2165248F20353F1E748F20350E9
:10171800704748F2025070470102F0000002F000E2
:101728000202F0000F02F00008B5083005F070FB67
:10173800BDE80840FFF7D2BF13681F2B2DE9F3411E
:1017480006460F46144620D9DFF84C800121404652
:1017580002F012FF0546BFF35F8FC8B900F07CF8AE
:10176800394606F1080005F0BFFB019000F082F849
:10177800BFF35F8F0198C8F80050FFF7AFFF08B9B3
:101788002023236002B0BDE8F08148F21450F9E745
:1017980048F20450F6E700BF146E00202DE9F0412E
:1017A80005460E4619480121144602F0E5FEBFF32E
:1017B8005F8F38BB00F050F8DFF854800835B4F577
:1017C800805F274628BF4FF4805731463A46404647
:1017D80006F052FD3A464146284605F033FBE41B25
:1017E8003E4468B9002CEAD100F044F8BFF35F8F9B
:1017F800064B00222046BDE8F0411A60FFF76EBF95
:101808000446F1E748F20450BDE8F081146E002068
:10181800145E0020024B0020C3F80005704700BF8B
:1018280000A0025038B50A4B00251D60BFF35F8F3A
:10183800084C0123C4F8003505F086FBC4F80055B0
:1018480020B1052848F2035018BF032038BD00BF57
:10185800146E002000A00250044B0122C3F800259A
:10186800034B4FF480625A60704700BF00A00250DB
:1018780000E100E0064B0022C3F80025054B4FF4B9
:101888008062C3F88420BFF34F8FBFF36F8F704718
:1018980000A0025000E100E0831F012B10B50446B0
:1018A80002D8002001F06AFC034B1B681BB12046DC
:1018B800BDE81040184710BD186E002038B5104B11
:1018C800104C1860104B1149E41AE408240444F041
:1018D800030003F013FF0020FFF7DEFF0C4801F0C0
:1018E80013FC054620B9BDE83840094801F0B8B9ED
:1018F8000246084944F0010003F004FF284638BDB9
:10190800186E0020F4890E00F4890E0094940E00DD
:10191800A1180E00A7940E006CDF70476DDF7047AA
:1019280072DF704773DF704774DF704775DF704789
:1019380076DF70477ADF70477CDF70477DDF70475E
:101948007FDF704786DF70478FDF704790DF704713
:10195800A8DF7047AADF7047ADDF7047AEDF70477A
:10196800B0DF7047B1DF7047B5DF704762DF70479F
:1019780066DF704713DF704710B5094B0949044605
:1019880009481B1ADB081B04224643F0040003F035
:10199800B9FE21460548BDE8104002F087BE00BFE9
:1019A8000C8A0E00D1940E00F4890E00648A0E0091
:1019B80070B518228CB00DEB0200002106F085FCF2
:1019C800282308932348244B2449254CC01AC008CF
:1019D8000004012540F004008DF818508DF82D50B2
:1019E80003F08CFE1623ADF806300023CDE903334F
:1019F8000593022306222370237159230926A27016
:101A080063710322FE236570E270A3710DF1060174
:101A1800A0190294ADF80C60FFF790FFB8B9BDF8B3
:101A2800063026725A19E271BDF80C200D4C134489
:101A380002A906AA2046ADF80C30FFF771FF30B9AD
:101A48002078FFF771FF20782946FFF76BFF0CB06D
:101A580070BD00BF0C8A0E00F4890E00E3940E00DE
:101A68009A7E0020B8590020F0B50388242B8FB047
:101A7800044651D80BB90FB0F0BD013B232BFAD85F
:101A880001A252F823F000BF811E0E007F1A0E003B
:101A98007F1A0E007F1A0E007F1A0E007F1A0E00A2
:101AA8007F1A0E007F1A0E007F1A0E007F1A0E0092
:101AB8007F1A0E007F1A0E007F1A0E007F1A0E0082
:101AC8007F1A0E00511B0E00951B0E00391D0E00CB
:101AD800ED1C0E00911F0E007F1A0E007F1A0E00DB
:101AE8007F1A0E007F1A0E007F1A0E00B31F0E0019
:101AF8007F1A0E007F1A0E007F1A0E007F1A0E0042
:101B0800751D0E007F1A0E00D31D0E00B51D0E00A8
:101B1800A11C0E00CF1C0E00503B9AB2062AAAD870
:101B2800062BA8D801A252F823F000BFC31B0E0051
:101B38008D1E0E00B31F0E007F1A0E007F1A0E00B6
:101B4800491C0E00FB1D0E00AF4BB04DB049B14E05
:101B5800ED1AED082D0445F0040003F0CFFDA3882D
:101B68003380AD4B1B680BB101209847AB493088D7
:101B7800FFF7DCFE024600283FF47DAFA84945F098
:101B880001000FB0BDE8F04003F0BCBDA14B4FF61B
:101B9800FF721A80A34B1B685A0704D4FFF708FF8B
:101BA80008B1FEF74BFC9C4B1B68002B3FF463AF5E
:101BB80002200FB0BDE8F04018479B4FE288BB8871
:101BC8009A427FF458AF9948904D02F04BFD8E4BE6
:101BD800ED1AED082D04064638B9954945F002007E
:101BE8000FB0BDE8F04003F089BDF4230093238AC9
:101BF8009049024645F0040003F097FD228A04F15B
:101C08001201304606F038FB1822002108A806F019
:101C18005CFB08238DF82030874B0A93874B099784
:101C2800CDE90B3608A8238AADF8343000F0F8FF68
:101C380000283FF420AF7D48314602F037FD1AE70F
:101C4800E288F62A24D8D31E9B0723D0D31F9BB241
:101C5800013B594201F0030103F0030302F1FF3491
:101C680058BF4B42E31A9CB2674B68487449C01A84
:101C7800C0080004234640F0040003F04CFD654B07
:101C880021461888FFF770FE00283FF4F4AE88E07C
:101C9800F724E9E71446E7E75B4B5C486949C01A53
:101CA800C008000440F0040003F028FD0022A088CA
:101CB80008A9CDE90822FFF749FE00283FF4DBAE6A
:101CC800FEF7BCFBD7E6504B504862895E49C01A04
:101CD800C008E389000440F004000FB0BDE8F040FC
:101CE80003F019BD484B494C58494A4DE41AE408D9
:101CF800240444F00404204603F000FD0223089362
:101D0800288806AB08AA42F605210993FFF724FEA6
:101D180008B1FEF793FBBDF818204D49204603F0A3
:101D2800F1FC002328881A468521FFF709FEC4E73D
:101D3800354B36484749C01AC008000440F0040033
:101D4800039003F0DBFC62894349039803F0DAFC53
:101D580022894249039803F0D5FCA2894049039897
:101D680003F0D0FCE2893F4903980AE7264B274D48
:101D78003D49ED1AED082D0445F0040003F0BEFCC2
:101D8800244B04F108011888FFF7D0FD0446002809
:101D98003FF471AE0246354945F0010003F0B2FC4C
:101DA80020460FB0BDE8F040FEF748BB164B174879
:101DB8002F49C01AC008237A00930004637AA27AD4
:101DC80040F0040003F0B1FC55E60F4B0F482949D9
:101DD800C01AC008000440F0040003F08FFC002380
:101DE800A0888DF8203008A98DF82130FFF7ACFDC8
:101DF80063E7A379002B7FF43EAE064B13211888C6
:101E0800FFF796FD40E700BFF4890E000C8A0E002C
:101E1800F2940E00BA590020C07E0020F6990E00F8
:101E2800FC940E00BC7E0020867E0020648A0E0092
:101E38002A950E0049950E00F5200E0081190E0016
:101E480069950E00AF950E00E0950E001E960E00E7
:101E580046960E0069960E0090960E00A6960E0005
:101E6800BC960E00CE960E00E3960E0012970E005A
:101E780047970E0081970E00554B00211888FFF7F1
:101E880077FD01E7A379002B3FF4F5AD022B7FF432
:101E9800F2AD504D2189AA8991427FF4ECADA27B25
:101EA800012A7FF4E8AD4FF480320992228A484E25
:101EB800ADF82820628AADF82A2004F114020B92AA
:101EC80005AF298A3088089306AA06930797FFF773
:101ED80043FD60B93846FEF751FC40B940F2FD13A6
:101EE8003088ADF8243008A9FFF73AFDC3E5002390
:101EF80008A93088ADF82430FFF732FD01460028E4
:101F08007FF4B9AD182208A806F0DFF9237D324A1C
:101F18008DF82030022B09950A9224D0062B10D078
:101F2800012B10D12D4B1A882D4B1A80637DD4F8C4
:101F380016200C93012B0D9205D12A4801F01EF9A9
:101F480001E0637D0C9308A800F06AFE00283FF4C6
:101F580092AD254A254B26499B1ADB081B040246ED
:101F680043F001000DE6204B20482249C01AC00862
:101F7800000440F0040003F0C1FB184AB4F815301F
:101F88001380174A1380DEE7174B18481A49C01AFE
:101F9800C008000440F0040003F0B0FB0023A08850
:101FA8001A461946FFF7CEFC6EE60023A0881A46AB
:101FB8001946FFF7D7FC08B1FEF740FA0B480A4B61
:101FC8000E49C01AC008000440F0040008E600BF2B
:101FD800BA590020867E0020F5200E00C47E00201D
:101FE800C67E0020E0890E00F4890E000C8A0E00DF
:101FF800BC970E00AA970E00F0970E0016980E00D8
:1020080070B5204E346814F0010432D01E4B98424B
:1020180036D01E4B1E4D1F4C1F49ED1AED082D04DE
:1020280045F00405284603F069FB22884FF6FF7344
:102038009A4220D01949284603F060FB336820886B
:1020480043F0040313213360FFF772FC044680B9A0
:10205800134EC82446F001064FF47A40B047013CBD
:10206800FAD103F005FF044618B90E49284603F0D3
:1020780045FB204670BD0C4B1878FFF755FCF0E780
:102088000024F6E7BC7E0020E0890E00F4890E00EB
:102098000C8A0E00BA59002038980E0055980E0088
:1020A800F0990E0064980E00B85900207FB50023FF
:1020B800CDF80B308DF80F300A4BADF806109B8920
:1020C800ADF8083001238DF80A300DF10603CDE98B
:1020D8000430054B02A91888FFF740FC07B05DF8EB
:1020E80004FB00BF867E0020BA59002010B50446C4
:1020F80086B000210D2202A8019106F0E6F82378A7
:10210800082B0BD13C4A3D4913880988013B9BB2F7
:10211800138031B32BBB032311802370637822789B
:102128008DF805206021012B8DF804108DF80630FC
:1021380019D033493348401AC0080004324940F0E6
:10214800020003F0E8FA63780B2B12D100F0B8FA1A
:102158008DF80700002000F0ADFA042101A8FFF770
:10216800A5FF06B010BD062A05D0082A29D0032AE3
:1021780027D00321F2E7E1688DF80710D4E901239D
:10218800080A8DF80800080C090E8DF80A10110AC3
:102198008DF80B208DF80C10110C120E8DF80E20F6
:1021A8001A0A8DF80F308DF810201A0C1B0E8DF8B6
:1021B8000D108DF809008DF811208DF812300F21BF
:1021C800CCE7D4E90123110A8DF807208DF808100F
:1021D800110C120E8DF80A201A0A8DF80B308DF8A2
:1021E8000C201A0C1B0E8DF809108DF80D208DF897
:1021F8000E300B21B2E700BFC67E0020C47E00204F
:10220800F4890E000C8A0E007D980E002DE9F0412D
:102218003E4B94B005464FF6FF721A8001204FF6E8
:1022280059632A4602A98DF80A00ADF80830FFF76D
:102238008FFB0446002865D1354B04AA03F110072B
:10224800164618685968144603C40833BB42224628
:10225800F7D1A91C3046FFF789FB0446002851D165
:1022680001461C220DA806F030F89DF834308DF890
:10227800044043F004038DF834300223ADF80C30E9
:10228800AB788DF80E3003238DF80630F423CDE9B2
:102298000A44ADF82C302B464FF0110833F8040BE4
:1022A8000C9403AF01AE08AA0DA98DF80580089714
:1022B8000996FFF74FFB044620BB01461C220DA8D8
:1022C80006F003F818238DF834300123ADF80C30EC
:1022D800AB788DF80E3013238DF806301723CDE92F
:1022E8000A44ADF82C302B4608AA33F80C0B8DF8AD
:1022F80004400DA90C94CDE908768DF80580FFF708
:1023080029FB0446204614B0BDE8F081BA590020E4
:10231800D8990E00F0B5624E336813F001048DB001
:10232800074640F0BB805F4B5F4D6049ED1AED08F2
:102338002D0445F00405284603F0E0F95C4B5D48A0
:102348001F6002F078F9049400F0D5F904460028DB
:102358005BD1594A5949284603F0D4F95648FFF742
:1023680009FB0446002850D15549284603F0C6F910
:1023780003F040FD0446002847D104A803F00CFEF2
:102388000446002841D14F49284603F0B7F904A96B
:10239800012003F00BFE0446002836D14A4928469E
:1023A80003F0ACF904A803F0C1FE044668BB00F0D2
:1023B80073FE68B3454800F05FFE336843F00203DC
:1023C8003360112304A88DF80C30FFF7A7FA0446F0
:1023D800D8B99DF8113004A801338DF81130FFF7F2
:1023E8009BFA044688B9316811F0020115D0374CC0
:1023F8003749A369221D284603F08DF9228B211D38
:1024080003A8FFF799FA044644B320460DB0F0BD7F
:102418003049284603F072F9D3E71B2205A805F0D6
:1024280054FF2D4B4FF0805218689B880490ADF8EC
:102438001430536E126E00921921284A0DF11600BD
:1024480005F0F0FE162204A903A8FFF775FA044662
:10245800F0B9234904AA284603F054F92148FFF7A4
:1024680069FA04460028D0D11F48FFF7CFFE04467A
:102478000028CAD1FFF79CFA04460028C5D1336862
:102488001A4943F001032846336003F037F9BCE7E3
:1024980002461749284603F035F9B5E70024B4E7A2
:1024A800BC7E0020F4890E000C8A0E00A4980E0051
:1024B800C07E0020648A0E0000000E00C3980E0043
:1024C800E3980E00F8980E000F990E001C6E00207D
:1024D80041990E0027990E0062990E0069990E0025
:1024E80072990E00F6990E00867E0020AD990E00B6
:1024F8008C990E0030B51A490B6885B004460BB1AB
:10250800013B0B601748184A63682578121AD208ED
:10251800120442F004008BB90B68144A1449009362
:10252800012D08BF0A46A368124903F0FEF8636943
:102538009BB1E06805B0BDE8304018470A680292D0
:1025480022690192A2680A490092084A012D08BF2F
:102558000A46094903F003F9E9E705B030BD00BFB1
:10256800C87E0020F4890E00148A0E00049A0E001A
:10257800FE990E000A9A0E00309A0E0008B502461F
:102588000B4B0C481B1ADB081B0443F004004AB130
:10259800094903F0B3F809490948BDE80840002291
:1025A80002F072BA074903F0A9F80749F4E700BF37
:1025B800148A0E00F4890E006C9A0E00ACAC0E0062
:1025C80078590020929A0E0080AC0E002DE9F7434E
:1025D8009846174C174BDFF86C90E41AE408D9F8C2
:1025E80000302404CDE9002305460B460E46174665
:1025F8001149024644F0040003F0A3F829460F48A5
:10260800CDF800803B46324602F042FA054640B912
:10261800D9F800300133C9F80030284603B0BDE8C6
:10262800F0830246064944F0020003F06BF8F4E731
:10263800148A0E00F4890E00BA9A0E007859002008
:10264800FD9A0E00C87E00202DE9F341134B144C6F
:10265800144FE41AE4083B680093240405460B462B
:102668000E4690461049024644F0040003F05DF817
:1026780029460E484346324602F011FA054630B95B
:102688003B6801333B60284602B0BDE8F081024652
:10269800074944F0020003F035F8F4E7F4890E0026
:1026A800148A0E00C87E00202A9B0E00785900204C
:1026B800679B0E00014B18700B207047CC7E0020E2
:1026C800024B002218781A70704700BFCC7E002099
:1026D80018DF704730B585B0054610220C466846AD
:1026E800002105F0F2FDA408684601950294FFF761
:1026F800EFFF05B030BD1FB50023CDE901330393CB
:10270800684602230093FFF7E3FF05B05DF804FB7A
:102718004FF000534FF480521A60002070470000B9
:10272800084B09480949C01A10B5C008000440F010
:10273800040002F0E3FF064BBDE810401B680620CA
:10274800184700BFF4890E001C8A0E00A29B0E00D9
:10275800D87E00200A2803D90B38C0B2FFF7AABFD9
:102768007047000070B5054686B0002002F09EF95B
:102778000146A0B1274A1821284601F06BFD002820
:102788003DD0254A254B26499B1ADB081B040246E7
:1027980043F0010006B0BDE8704002F0B3BF182254
:1027A800684605F092FD04231C4C8DF800301A4B46
:1027B8001C4EE41A1C4B1A6D3368E40824049A4230
:1027C80044F004041DD11949204602F097FF184B24
:1027D8003168186801F014FC8DF80100FFF7BAFFA2
:1027E800D5E901138DF8010068469847114800F0B3
:1027F800D3FB9DF801201049204602F083FF06B064
:1028080070BD01238DF801306846D5E9011398475A
:10281800EFE700BF6D270E00F4890E001C8A0E003A
:10282800D69B0E00D07E0020DC850020FF9B0E008A
:10283800D47E002029270E002E9C0E002DE9F041A1
:1028480088B004461822002102A805F03EFD0123A5
:10285800A74E8DF80930A74B22788DF80820F61A74
:10286800F6083604531E46F004050B2B00F2BF8110
:10287800DFE813F02C000C002C002C00BD012C000C
:10288800BD012C00BD01BD01BD0111009A492846BA
:1028980002F034FF07E02846984902F02FFF984BD2
:1028A80007201B6898479DF809209649284602F09A
:1028B80029FFD4E9011302A898479DF80930012B94
:1028C80000F083818E4B05201B687DE1062A8E4F20
:1028D80001D0012A01D122693A703A78012A09D037
:1028E800022A6ED0894946F0010002F007FF002352
:1028F8003B70CAE0072BD6D801A252F823F000BFDC
:1029080029290E00AF280E0049290E008B290E0038
:10291800AF280E00BB290E00AF280E005D290E005F
:102928007B49284602F0EAFE754B03201B6898474E
:10293800606901F05FF8FFF70DFF8DF80900B2E755
:102948007449284602F0DAFE734BDA6B1B6C03926B
:102958000493A8E77149284602F0D0FEA18A2069AD
:1029680001F060F8FFF7F6FE6B4B8DF80900DA6BA3
:102978001B6C0493E3680392002B94D0206998475A
:1029880091E76749284602F0B9FE6649664801F0B2
:10299800C7F8FFF7DFFE01288DF8090083D1002072
:1029A80000F0FAFA08B9614971E70A238DF809308D
:1029B80079E75F49284602F0A1FE4FF400730593BA
:1029C800C2E7072B3FF66FAF01A252F823F000BF12
:1029D800F9290E00AF280E007B2B0E00992B0E0054
:1029E800AF280E00D92B0E00AF280E00A92A0E0022
:1029F8005049284602F082FE01F044F830B94E49A9
:102A080046F0010002F07AFE0823CFE7626932B986
:102A18004A4946F0010002F071FE0323C6E7C2F3FB
:102A28000B0343B13C4B3F495B6D096813448B4230
:102A380001D04349EDE7B2F5805F06D9414946F038
:102A4800010002F05BFE0423B0E7334F35497B6D8C
:102A58000968D018884206D9009146F001003A4921
:102A680002F063FED0E77A64FA6CBA642E4A3B65DA
:102A780010683B63002201211844FFF7E5FD30B1DF
:102A8800324946F0010002F039FE05238EE7BB6C9F
:102A980000933B6D7A6C2E49284602F046FE02E709
:102AA8002C49284602F02AFE00F0ECFF0028ABD0A3
:102AB800194FA18AD7E914329B1A7A6C0B449342B6
:102AC80001D92549A5E7184A3B6B1268206903EB31
:102AD800020807F1480201F089FCE368A28A21692B
:102AE80006464046FFF772FDC0B3E36846E700BFFD
:102AF8001C8A0E00F4890E00569C0E007A9C0E006B
:102B0800D87E00202E9C0E00BC59002012A00E007A
:102B1800929C0E00BC9C0E00DC850020E09C0E0000
:102B2800099D0E00D07E0020D47E0020349D0E002A
:102B3800599D0E00839D0E00AA9D0E00DF9D0E007C
:102B4800F89D0E00199E0E003D9E0E00AE9E0E00D2
:102B5800C59E0E00009F0E00269F0E00A38A3A6BAA
:102B6800BE641A443A633A6D049613443B65039372
:102B780099E6224E2249284602F0C0FDB36C326D18
:102B88002049284602F0C7FDB36C0493336DEEE785
:102B980028461D4902F0B2FD1848D0E91473426C6A
:102BA800FB1A934205D0194946F0010002F0B3FD23
:102BB8002AE7836CC3640021416447652046FFF718
:102BC800D1FD134B1B680420984708B0BDE8F0817D
:102BD8001049284602F092FD084B4FF480519A6C38
:102BE8001B6D0591009104920B49039354E70B491F
:102BF80046F0030002F086FD0223D7E6DC850020BC
:102C08003D9F0E005E9F0E00749F0E009C9F0E005D
:102C1800D87E0020C09F0E00E79F0E0032A00E0055
:102C2800836810B58BB10A4A182101F013FB0446DA
:102C380048B10848084B09491B1ADB081B0443F034
:102C4800020002F05BFD204610BD0724FBE700BF31
:102C580045280E00F4890E001C8A0E0051A00E00B3
:102C680038B50546C0B10120FFF788FC044648B9CD
:102C780000F0B2FE00F006FF30B9084B00201D60DE
:102C8800FFF718FD204638BD0549064800F048FF03
:102C98000128F2D00324F5E70724F3E7D87E0020C3
:102CA800D07E0020D47E00202DE9F74317464FF44C
:102CB800607298461F4D0646894605F079FA1E4B04
:102CC800ED1AED0804462D0445F0040054B91B49DB
:102CD80002F014FD1FB9002003B0BDE8F0832046C0
:102CE800B847F8E71649019002F008FD1549019820
:102CF800324602F007FD002201213046FFF7A4FC0E
:102D080030B1114945F0010002F0F8FC0320E3E777
:102D18004FF460724946404605F0AEFA3B464FF420
:102D2800607241463046FFF751FC0028D3D007496E
:102D3800E8E700BF248A0E00F4890E0081A00E0087
:102D4800CBA00E00DFA00E00FFA00E0022A10E00F7
:102D58002DE9F0475A4C2368013300F083800022A4
:102D68005821201D01F042FBD4F800A0AAEB000274
:102D7800D2F1000A4AEB020ADFF87091514CD9F8F7
:102D88000070DFF86C813B684F4E013300F0928091
:102D980000225821381D01F029FB3B68834264D189
:102DA8007D68012D0AD00022C32107F5187001F0B3
:102DB8001DFBD7F85C522B1A5D425D41BAF1000F3A
:102DC80055D0A4EB0807FF083F0447F004073F4924
:102DD800384602F093FC3A493B484FF4607205F0DC
:102DE8004BFA8DB13A49384602F088FCD9F80050C0
:102DF80038485422291D05F03FFA37484FF43272FB
:102E080005F15C0105F038FA7768012F50D1A4EB81
:102E18000800C008314C3249000440F00300A4F512
:102E2800E47502F06BFC0FCD0FC40FCD0FC40FCDAE
:102E38000FC495E80F0084E80F0004F11005A4F50D
:102E4800DC740FCC0FC594E80700002386F86032C5
:102E580086F8E232F36986F8A17285E80700C6F8B9
:102E6800A23223E04FF0000A86E70025A6E775B1F5
:102E7800A4EB0800C00800041A4940F0030002F05F
:102E88003DFCD9F8001010484FF46072BAE7A4EB83
:102E98000800C0080004144940F0020002F02EFCAB
:102EA80009484FF46072002105F00FFA022373609D
:102EB800BDE8F087BAF1000FE9D0002581E700BF2F
:102EC80000F00F00248A0E00DC85002049A10E00C6
:102ED8005EA10E00E08500203886002000890020D1
:102EE80045A20E0088A10E00E1A10E00C0590020E5
:102EF800F4890E0070B50C4C054600225821201D9F
:102F080001F074FA00222060C32104F5187001F062
:102F18006DFA2A46C4F85C022146044B0448BDE811
:102F28007040FFF7C1BE00BFDC8500205C82002036
:102F380000F00F00F8B50F4B0F4C104FE41AE408DF
:102F480024043A6806460D4644F003000C4902F092
:102F5800D9FB32460B4B38682946FFF7A5FE0246D7
:102F680030B144F001000849BDE8F84002F0CABB9E
:102F7800F8BD00BFF4890E00248A0E00C059002055
:102F880071A20E00DC7E00209BA20E000149FFF713
:102F9800D1BF00BF00F00F0038B505460020FFF78D
:102FA800A9FF044618B903492846FFF7C3FF20467E
:102FB80038BD00BFDC85002037B5114B114C1249D4
:102FC800E41AE4082404054644F0040002F096FBE1
:102FD8002846FFF7D3FA40B10C49024644F00100F5
:102FE80002F090FB032003B030BD0190FFF7B0FE64
:102FF8000198FFF7D1FF0028F5D005490246EDE713
:10300800F4890E00248A0E00D8A20E00FBA20E003E
:1030180026A30E0010B5084C4FF40072FF2104F1EE
:103028005C0005F052F92022002104F1380005F077
:103038004CF90023236310BDDC85002029DF70478D
:1030480038B50C4D0446D5F8643378B101330FD147
:1030580000221821043001F0C9F921462060072216
:1030680005F55970BDE83840FFF7E8BF0E2038BDB8
:103078000820FCE700F00F0050B1064B03F11C02DA
:1030880053F8041B40F8041B9342F9D10020704701
:103098000E20704764F30F0010B5064C002218216B
:1030A800204601F0A3F954F8043C1B1A5842584131
:1030B80010BD00BF68F30F0010B50F4CD4F82433CF
:1030C800D4F864231340013313D00C4B0C480D493A
:1030D800C01AC008000440F0040002F00FFB4FF4CF
:1030E8007F2001F045F8C92221464FF47F2001F0E6
:1030F8006DF8002010BD00BFDC850020F4890E00AB
:103108002C8A0E0071A30E002DE9F843154B164CBE
:10311800DFF86480154E1649E41AE408A6EB0806A1
:103128002404F60844F0040407463246204602F018
:10313800E9FA4FF00009B14501D100250BE058F834
:10314800393038469847054640B1034609494A464A
:10315800204602F0E0FA2846BDE8F88309F10109A3
:10316800E9E700BFF4890E00F4890E00E8890E0033
:10317800AEA30E00D2A30E00E0890E002DE9F8439D
:10318800154B164C164D174F1749E41AE4087F1BC8
:103198002404FF0844F0040406463A46204602F098
:1031A800B1FA4FF0000805F10409B84501D100252E
:1031B8000BE059F8383030469847054640B1034689
:1031C8000A494246204602F0A6FA2846BDE8F88396
:1031D80008F10108E9E700BFF4890E00F4890E0040
:1031E800E0890E00E8890E00FEA30E0023A40E005D
:1031F800034A00230360436083601363704700BF82
:10320800DC8500204FF44053074A5968914201BFBA
:10321800986800F6FF7020F47F6020F00F0018BF58
:103228004FF48050704700BFDBE5B15108B5FFF798
:10323800E9FF054B9B69184400F6FF7020F47F6096
:1032480020F00F0008BD00BFDC8500204FF480503F
:10325800704700002DE9F04F89B0064603920793A6
:10326800644A654B06919B1ADB081B0443F004046F
:1032780062490493204602F041FA6149DFF8C881A7
:10328800DFF8C891DFF8C8A13246204602F03AFAC2
:10329800069B5C49002B0CBF42464A46204602F07A
:1032A80031FA039B5849002B0CBF42464A46204638
:1032B80002F028FA079B5549002B0CBF42464A46A4
:1032C800204602F01FFA4FF4405351495A68514BB7
:1032D80020469A4214BF42464A4602F013FA4E4923
:1032E800204602F00BFADAF81830DAF820204B49B9
:1032F800204602F010FADAF82430DAF82C2048498F
:10330800204602F008FA0027FBB2012F029345D0AD
:10331800022B52D0FFF78AFF039B0546002B3BD0B8
:10332800DAF820305A1E5342534101933D4B3E492F
:10333800A3EB050B069B3A46B34538BF012320464D
:10334800059302F0DFF939492A46204602F0DAF9F6
:103358003749B3452CBF42464A46204602F0D2F9C7
:10336800019B3449002B0CBF42464A46204602F0D6
:10337800C9F9059B3049002B0CBF42464A462046F6
:1033880002F0C0F9059BEBB1019BDBB90137032FB4
:10339800BAD1B34524D217E0039BC6E7FFF732FF43
:1033A800079B05463BB94FF440531A4A5B689B1A82
:1033B80018BF0123B9E73B46B7E7012301934FF450
:1033C8008055B3E7B34509D2049B1C4943F002007A
:1033D80002F094F9042009B0BDE8F08F029B33B1E4
:1033E8002046174902F08AF91648FFF701FF002026
:1033F800F1E700BFF4890E00F4890E004DA40E0019
:103408006BA40E008BA40E009CA40E00AAA40E00B0
:10341800BFA40E00DBE5B151CFA40E00DEA40E0060
:10342800FEA40E0000D00D001EA50E0028A50E005B
:103438003DA50E0052A50E0065A50E0076A50E004E
:10344800A2A50E00F485002085A40E0080A40E001D
:10345800DC8500202DE9F04F4049414E8A6B414DF3
:10346800DFF82891DFF828A1DFF828B185B06F468A
:103478005C31384603F050F897E80F004FF0000829
:1034880086E80F00384BF3604FF4477241462846F0
:1034980089F80080CAF80080CBF8008004F015FF96
:1034A80032492A46304603F0D4FA044650B9304827
:1034B800304B3149C01AC008000440F0010002F046
:1034C8001DF914E099F80090B9F1000F04D095F8AF
:1034D8006C312C78A3B374B1264B25482749C01A00
:1034E800C008000440F0010002F008F9002420465A
:1034F80005B0BDE8F08F95F87241002CF7D0DBF8E5
:103508000020DAF80010384603F006F897E80F00B4
:1035180086E80F004FF4B272414605F5BA7004F020
:10352800D4FE174905F5BA72304603F092FA0446FC
:1035380080B90F480F4B1349C01AC0080004BCE7F4
:10354800002CD4D0AC79002CD1D008350E4B4C4689
:103558001D60CCE705F5BA75F8E700BFDC850020EB
:10356800A88C00208C8900202D360E0024940E0093
:10357800348A0E00F4890E00B4A50E00E1A50E00F1
:1035880070930E0000A60E00648D0020888900202C
:10359800848900208089002010B590F8553013F0F8
:1035A800FB0F08D190F864202AB1846E74B30C60C4
:1035B8000124204610BD13F0010403D090F85640B2
:1035C80004B1846D9B07F1D590F85C30002BEDD0E9
:1035D8000F4B026EC3F57E239A4201D81444E5E7E7
:1035E8000C490D48401AC00800040C4940F001007D
:1035F80002F091F80424074B07480949C01AC0088B
:10360800000440F0010002F079F8D2E70F24F2E755
:1036180000000E00F4890E00348A0E003CA60E004D
:1036280059A60E005B68DA68134B9A4230B408D189
:10363800124D2B6813B9124C236823B1114B002289
:103648001A7030BC7047D0E90131194413F9010BE5
:103658000028A1EB0302F9DB2B600A4B0A48226021
:1036680001211970094B0A49C01AC008000430BC6E
:1036780040F0040002F046B870930E0084890020E0
:103688008089002088890020348A0E00F4890E0081
:103698008AA60E0000B591B0FDF784FF6846084978
:1036A8002022FDF7B2FF6A46064907484023FDF786
:1036B800CDFE064B01221A7011B05DF804FB00BF65
:1036C800E08A0E00B88C0020BC920E005C890020B5
:1036D8002DE9F04FCFB005AF82460D469046002148
:1036E8007C22994606A820233B60DDF860B104F0EF
:1036F800ECFDA422002125A804F0E7FD414B1B782E
:103708000BB9FFF7C7FF404C40484149001BC008B0
:10371800040444F00306304601F0F0FF45B944F0D4
:1037280002003C4901F0EAFF13204FB0BDE8F08FDA
:10373800BAF1000F05D03046374901F0DFFF1620F7
:10374800F3E736495A46304601F0DCFF344B009324
:10375800344901975B464A4606A8FDF709FF002849
:103768004ED1B8F1400F4BD12F4B294605F14002FD
:10377800984651F8040B43F8040B9142F9D12B49B0
:10378800304601F0BBFF402527482021FDF749FFBF
:10379800CDE90085224A3B68254925A8FDF772FE38
:1037A800024638B3234944F0010001F0ABFF44F06E
:1037B80004002149039001F0A1FF2A461A49039801
:1037C80001F0DEFF1D49039801F098FF3A8814497B
:1037D800039801F0D5FF1A49039801F08FFF1949A2
:1037E80003982A4601F0CCFF01F034FE0028FBD1F3
:1037F80005209AE73046144901F080FF012094E73C
:103808000A2092E75C890020F4890E00348A0E00B1
:10381800A7A60E00CFA60E00E3A60E00FAA60E007D
:10382800008D0020C8920E00208D002015A70E00E4
:10383800B88C002026A70E0048A70E0053A70E003C
:1038480059A70E00E08A0E0065A70E004FF44053FA
:103858001F4A5B68934213B538D000F500514C6895
:10386800A11A4C424C4193422DD100F500525168A7
:10387800994228D14FF4405316481978142982BF29
:103888005B691549B3FBF1F3117898BF002314293C
:1038980082BF52691049B2FBF1F21049A0EB010056
:1038A80098BF00220E490092C00893424FEA004098
:1038B8000C4A40F0030018BF0A460B4914BF012404
:1038C800002401F032FF204602B010BD0024CAE7F0
:1038D800DBE5B151348A0E0040420F00F4890E0036
:1038E80074A70E007AA70E0080A70E002DE9F043FA
:1038F800ABB006460F4690461C467C22202300218A
:103908000BA8029304F0E1FC294B1B780BB9FFF7D5
:10391800C1FE2CB13146202203A8FDF76BFE03AE91
:10392800244B254C2549DFF8AC90E41AE40824041C
:1039380044F0040543463A46284601F0ECFE02AB43
:1039480001933A461E49CDF8009043460BA8FDF76F
:103958000FFE024640B144F001001A4901F0D2FEC0
:1039680000202BB0BDE8F08320223146484604F001
:103978001FFCD8B1144944F0020001F0BFFE1349FE
:10398800284601F0BBFE20223146284601F0F8FE09
:103998000F49284601F0B2FE20224946284601F088
:1039A800EFFE01F057FD0028FBD1DAE70120D8E748
:1039B8005C890020F4890E00348A0E00C0A70E002E
:1039C800C8920E00F3A70E0024A80E003EA80E0011
:1039D80050A80E005D89002008B5044B986B08B10B
:1039E800FFF738FD024B187008BD00BFDC850020CA
:1039F800608D002010B5044658B1B0F5007F0AD894
:103A0800064B00221A70FFF705FB054B01209C634B
:103A180010BD0320FCE70420FAE700BF608D0020FA
:103A2800DC85002070B5134C0646E06BA36B42188A
:103A38009A420D460BD9104B10481149C01AC008BC
:103A4800000440F0010001F059FE032070BD5C3015
:103A58000A462044314604F00FFCE36B04F14002AF
:103A68002B4429463046E36300F0C0FC2064012063
:103A7800ECE700BFDC850020F4890E00348A0E00D4
:103A880060A80E00014B1878704700BF608D0020B9
:103A9800F0B51C4C94F86C2185B07AB394F8D80230
:103AA800B4F8DA2204F5377104F5B874164E174DD8
:103AB800336800932B68FFF70BFE0128074605D1F2
:103AC800201D00F0A1FA0128074614D01048114C17
:103AD8001149241AE408240444F0020001F00EFEFF
:103AE80044F004000D49039001F008FE328829686B
:103AF800039801F045FE384605B0F0BD1146104662
:103B08000434D3E78C890020808900208489002030
:103B1800F4890E00348A0E0083A80E0099A80E00BE
:103B28002DE9F843374BD3E90E329A4206460D4643
:103B38000DD0354B35483649C01AC008000440F04E
:103B4800010001F0DBFD08242046BDE8F883314F71
:103B580097F80080B8F1000F09D0FFF767FB2E4BEC
:103B6800306029461868BDE8F843FFF715BDFFF730
:103B780071FC002839D0FFF78BFF0128C6F80080B8
:103B88000446C5F8008022D1DFF88C902946D9F880
:103B98000000FFF701FD0128044618D1D9F80030CC
:103BA80093F855100129034642462868174D8CBFE3
:103BB80000210121FFF74EFB134BED1AED082D04F0
:103BC80040B1164945F0010001F098FD0424FFF7C3
:103BD80021FAB9E7FFF72AFB11493060024645F0A0
:103BE800040001F08FFD3C70AEE7074B07480D4914
:103BF800C01AC008000440F0010001F07FFD052450
:103C0800A2E700BFDC850020F4890E00348A0E008C
:103C1800A7A80E00608D0020648D0020C2A80E00A9
:103C2800DDA80E00F9A80E0001237230FFF75EBE72
:103C380013B50446084623781146032B15D8DFE848
:103C480003F02B0217200022D4F8014000F0CEFB2D
:103C5800844221D01148124B1249C01AC0080004EE
:103C6800002240F0040001F04DFD002002B010BD1C
:103C78000A4600230146601C02B0BDE81040FFF769
:103C880035BE034600914022611C0020FFF720FD4D
:103C9800431E58425841E9E70120E7E7348A0E00FD
:103CA800F4890E0016A90E002DE9F043A3B00546CD
:103CB8000E46144600217C221F4603A820239DF8A7
:103CC800AC800293DDF8A89004F0FFFA41220021AD
:103CD800284604F0FAFAB6F89430A34282BF442387
:103CE80003FB046393F8968085F80080B8F1030F0E
:103CF80038D8DFE808F009020F2C00224946384678
:103D080000F074FBC5F801004A4639462846FFF71B
:103D18008FFF19E002AB01936B1C009316494B46C9
:103D28003A4603A8FDF724FC0028EDD001F0D2F9AB
:103D3800124B1349024613481B1ADB081B0443F0B5
:103D4800010001F0DFFC002023B0BDE8F08344212E
:103D58004C4333199A34B3F898203119681C04F08D
:103D68008BFAD1E70548074B0749C01AC008000479
:103D7800424640F00100E4E7C8920E00348A0E0083
:103D880039A90E00F4890E006AA90E002DE9F04742
:103D98008C4B1D68A4B004460F4691460A4601465E
:103DA8002846FFF741FF002800F0098195F8556083
:103DB80096BB4FF0010ACDE9007A234632462946E0
:103DC80013A8FFF771FF002848D0B9F1000F00F0E1
:103DD800F280DFF80082412213A908F2A12004F042
:103DE8004BFA794B79487A49C8F82CA0C01AC00810
:103DF800000440F0040001F081FC6B68C8F8206002
:103E0800C8F8083000223946204600F0EFFA714B16
:103E18000125C3E90970C9E04122002102A804F084
:103E280054FA06F0010A4122002113A806F00206FE
:103E380004F04BFABAF1000F00F0AE8004F500511F
:103E4800654B4868984214D060485F4B6349C01A74
:103E5800C008000440F0010001F050FC0525B9F14C
:103E6800000F40F0A080FFF7D5F8284624B0BDE841
:103E7800F087AB6D03F5FF5203F6FF731F32C3F3F0
:103E88000B03D31A8A689A4206D250484E4B5449BB
:103E9800C01AC0080004DDE74FF440535A68824254
:103EA80013D11A78102A88BF1A690B7898BF002294
:103EB800102B8CBF0B6900239A4206D04348424B13
:103EC8004849C01AC0080004C4E72046FFF7BEFCF2
:103ED80088B13E4B3C4A4449A3EB02084FEAD80854
:103EE8004FEA084848F0020001F008FC1EB93F49B3
:103EF80048F00100B0E701230193AB6D0093002265
:103F08002346294602A8FFF7CFFE0028A6D0AA6DAF
:103F1800A318BA1AB6B10021CDE9002113A8524658
:103F28002946FFF7C1FE002898D09DF84C304BB1C8
:103F38002648254B2E49C01AC008000440F002004C
:103F480001F0DCFBB9F1000F35D0DFF88880BAF159
:103F5800000F24D02046FFF779FC18B108F11800AB
:103F6800FFF746F92348412202A904F085F9002EFB
:103F780014BFAC23A523C8F82C30AB6DC8F8343077
:103F8800002E3FF43FAF1C48412213A904F074F9F6
:103F98006B68C8F80C3035E73A462346BAE7AA23D7
:103FA800C8F82C30ECE71548FFF722F9FFF732F88C
:103FB800084B9C6459E7074B01255D6155E71725B8
:103FC8004DE700BF648D0020F4890E00348A0E008E
:103FD8008BA90E00DC850020DBE5B151B3A90E00EA
:103FE80004AA0E006DAA0E00DAAA0E001BAB0E0082
:103FF8005CAB0E003C880020BE88002000860020B4
:104008000122FFF7C3BE000090F85420F8B503461C
:104018009AB190F8550003280FD893F86E20032A18
:1040280017D0444B44484549C01AC008000440F022
:10403800010001F063FB1420F8BD3F483D4B4049A7
:10404800C01AC008000440F0010001F057FB0F201F
:10405800F2E71A7A32B93848364B3A49C01AC008DA
:104068000004F0E7D96840F20122B2EB112F0BD01F
:10407800304B31483449C01AC008000440F00200EF
:1040880001F03CFB1120D7E74FF440552F496C68ED
:104098001A8A8C422ED142B1596921B3D2B203F1A6
:1040A80014040021CEB2B2420BD8224B2248284930
:1040B800C01AC008000440F0020001F01FFB1220E3
:1040C800BAE754F8047BAE89B74201F10101E9D19E
:1040D8001A78B2B90128AFD01748164B1D49C01A33
:1040E800C0080004AFE710B9012ADED1F0E70128C3
:1040F800EED1DAE712B15A69002AD6D11A78002A25
:10410800D3D001285B68144A0ED892689A420ED917
:10411800084B09481149C01AC008000440F00200C1
:1041280001F0ECFA102087E7D2689A42F0D2012019
:1041380082E700BFF4890E003C8A0E00CAAB0E006D
:10414800B3AB0E00DDAB0E00ECAB0E00DBE5B151FE
:10415800FFAB0E0023AC0E00DC8500200FAC0E0078
:10416800024AD2F80034002BFBD0704700E001402F
:104178000A4908B50223C1F80435BFF36F8FBFF3AE
:104188004F8FC1F80805FFF7EBFF0023C1F804358E
:10419800BFF36F8FBFF34F8F08BD00BF00E0014032
:1041A80010B5094C0123C4F80435BFF36F8FBFF372
:1041B8004F8F0160FFF7D4FF0023C4F80435BFF325
:1041C8006F8FBFF34F8F10BD00E0014070B50E4EEA
:1041D80001231546C6F80435BFF36F8FBFF34F8F21
:1041E8000024AC4207D10023C6F80435BFF36F8F13
:1041F800BFF34F8F70BD51F8243040F82430FFF7DB
:10420800AFFF0134EDE700BF00E001404B1C30B5C3
:10421800DB00044612F003009BB20DD1074D2A6063
:104228001A44074B1A60074B1870074B1870074B56
:104238001C80074B198030BD0720FCE7708D0020DB
:104248006C8D0020688D0020788D0020748D0020F2
:10425800768D00202DE9F743DFF8BC80B8F80030F0
:104268008B4206460D46174647D300240DF107003A
:104278008DF8074000F080F8224B234A23481B782A
:10428800008892F800C084455FFA8CF138BF4C1C56
:10429800DBB238BFE4B2A34228D014781178CBB28D
:1042A800884286BF0133DBB2002313709DF80700F4
:1042B80000F086F84FF6FF739C4220D0144B1B6821
:1042C80043F8347003EBC4099EB195B1114BB8F8AB
:1042D80000001B682A46314604FB003003F0CCFF7F
:1042E800A9F80450002003B0BDE8F0834FF6FF742E
:1042F800DCE70020A9F80400F5E70920F3E704202B
:10430800F1E700BF788D0020688D0020768D0020B1
:10431800708D00206C8D0020748D002070B5104CBD
:10432800104D22782B789A4200D170BD0E480F4A62
:104338002378126806880E4802EBC301006852F819
:104348003320898803FB060090470A4922780988A8
:10435800D3B2914286BF0133DBB200232370E0E77A
:10436800788D0020688D0020748D0020708D0020CD
:104378006C8D0020768D002070B5EFF3108672B634
:104388000C4A946801239CB993600B4B0B4DD3F8EE
:10439800801029401160C3F88050D3F88410516010
:1043A8004FF0FF32C3F88420047006B962B670BDBE
:1043B8000370FAE77C8D002000E100E0FC06FFBDF9
:1043C800084B9A6810B55AB150B9EFF3108172B61C
:1043D800054A1C6814605C685460986001B962B64C
:1043E80010BD00BF7C8D002000E100E030B53AB17F
:1043F8001368DB430A4D0144814204D1D84330BDE0
:104408004FF0FF33F6E710F8012B5340082213F062
:10441800010418BF2C46013A84EA5303F7D1EBE7AD
:104428002083B8ED10B561B1B2FBF3F403FB14249B
:10443800A4B244B9C0E9001484608281C3812046D3
:1044480010BD0E20FCE70920FAE782B050E8022FE1
:10445800C188B2EB324F4FF0000317BF92B241EA66
:10446800014142EA014104E04268B2EB324F08BF21
:10447800012340E80212002AE8D18DF807309DF8A0
:104488000730002B0CBF1120002002B0704737B551
:1044980050E8013F9DB2C48925448489A54228BFBC
:1044A8002D1B0489A54202BFBFF32F8F002207E00E
:1044B800C5EA030540E80154002CE9D14FF0010298
:1044C8008DF803200193019A0A609DF8031001F00A
:1044D800FF0321B1006810FA82F003B030BD18461E
:1044E800FBE70A884B889A4209D150E8012FC2EAB3
:1044F800024240E80123002BF7D101207047002039
:10450800704737B550E8023F1FFAA3F5C488A542A3
:1045180002BFBFF32F8F00220DE0C4892544848990
:10452800A54228BF2D1BC3EA054540E80254002CCC
:10453800E8D14FF001028DF803200193019A0A6037
:104548009DF8031001F0FF0321B1006800EB124051
:1045580003B030BD1846FBE70A884B889A4209D158
:1045680050E8022FC2EA224240E80223002BF7D18A
:10457800012070470020704710B5034653E8000F2C
:104588000A4643E8002494F0000FF7D110BD10B597
:10459800034653E8000F40EA010243E8002494F080
:1045A800000FF6D110BD10B5034653E8002F42EABC
:1045B800010043E8000494F0000FF6D110BD10B5D7
:1045C800034653E8000F00EA010243E8002494F090
:1045D800000FF6D110BD10B5034653E8002F02EACC
:1045E800010043E8000494F0000FF6D110BD10B5A7
:1045F800034653E8002F02EB010043E8000494F05F
:10460800000FF6D110BD10B5034653E8002FA2EBFA
:10461800010043E8000494F0000FF6D110BD012119
:10462800FFF7B5BF0121FFF7BEBF0021FFF7C7BFE6
:104638000021FFF7D0BF10B590B1D0E90123016880
:104648009B1ADBB20A60013BDBB2FF2B026802D186
:104658000020107110BD11684C1C14600B70F2E73B
:104668000E20F7E737B5054600240DF107008DF851
:104678000740FFF781FE2A686B68116899420ED9D6
:10468800481E106011F8013CEC68298A01FB0344BC
:10469800AB6811791B1ADBB2994238BF13719DF8C8
:1046A8000700FFF78DFE204603B030BD37B505463D
:1046B80000230DF107000C468DF80730FFF75CFE6C
:1046C8002A681368591C1160E968641A298AB4FBBE
:1046D800F1F41C709DF80700FFF772FE03B030BDBF
:1046E800826810B504462AB1436901680069984791
:1046F8000023A36010BD0EB403B5039921B104AB28
:1047080001AA019300F076F802B05DF804EB03B05B
:1047180070470A2938B504460D4602D10D21FFF726
:10472800F8FFA3682268591CA160D554D4E9013266
:104738009A4204D32046BDE83840FFF7D1BF38BDC0
:104748002DE9F84F9846DDE90A43154682460F469B
:104758000A464FF00109AA420FD2C14538BFC146E7
:1047680013F0010B01D16CB900240126B8F1010F37
:104778001BD908F1FF386E43F8E709F10109B2FBCC
:10478800F5F2E8E79B070ED5B8F1000F0CBF30260D
:104798002026A145E9D2013C31465046FFF7B9FF32
:1047A800002CF6D1E0E72026F3E7B7FBF6F39D42AD
:1047B800E1D9DFF83C80B7FBF6F3504618F8031050
:1047C80006FB1377FFF7A5FF3346AB42B6FBF5F6BA
:1047D800F1D2BBF1000F02D00CB1A14501D3BDE865
:1047E800F88F20215046013CFFF793FFF4E700BF04
:1047F80057AC0E002DE9F74F0546174688460029A5
:1048080000F03E8118F8011B49B92B7B002B00F002
:104818003781284603B0BDE8F04FFFF761BF25296F
:1048280040F0B780002698F800302D2B424608F15A
:10483800010823D0302B24D02B2B25D000242A2B61
:1048480002F1010123D13B681A1D1B683A601C4420
:104858000A4613782E2B26D101324FF0000A104653
:1048680010F8011BA1F1300CBCF1090F1DD80A2367
:1048780003FB0A13A3F1300A0246F0E746F00106EB
:10488800D1E746F00206CEE746F00406CBE711F87A
:10489800013CA3F130000928DBD80A2202FB0434CA
:1048A800303C0A46CBE74FF0000A12F8011B01F032
:1048B800FB0068289046F8D0782909D86F290CD8C9
:1048C800632962D022D8252963D0582900F088802E
:1048D80098F80030002B95D197E770390829F7D858
:1048E80001A353F821F000BF634A0E00D9480E0017
:1048F800D9480E00F9490E00D9480E00D7490E00D4
:10490800D9480E00D9480E00E9490E00642901D0A3
:104918006929DDD13A68D2F80090111D89EAE97257
:104928003960A2EBE9724FF0010B092A35DCD34557
:1049380038BFD3462CB1B9F1000F01DB720700D59F
:10494800013CB30702D5BAF1000F03D0F00701D438
:104958004CBB0024B9F1000F2DDAC9F100092D2153
:104968002846FFF7D6FE06F00302022A04D1BAF160
:10497800000F01D11CBB0024CDE9004653460A2292
:1049880049462846FFF7DCFEA2E73B681A1D19785E
:104998003A602846FFF7BDFE9AE70A230BF1010BA0
:1049A800B2FBF3F2C1E7A345D4D220212846013C4B
:1049B800FFF7AFFECCE77107D5D52B21D0E7A3458C
:1049C800DAD230212846013CFFF7A3FED2E7396846
:1049D800CDE900460A1D3A6053460A220968D0E725
:1049E80039680A1D3A60CDE9004653461022F5E7BA
:1049F8003B681A1D3A6016F00106D3F8009024D1DE
:104A0800B9F1000F03D0484603F0B4FC0646B4429F
:104A18001DD809F1FF3919F8011F00293FF458AFD3
:104A28002846FFF776FEF6E728460136FFF771FEBF
:104A380019F806100029F7D1A642BFF449AF202182
:104A48002846013CFFF765FEF6E70026F0E720213F
:104A58002846013CFFF75DFED9E73B681A1D3A601E
:104A6800302128461C68FFF754FE78212846FFF7B6
:104A780050FE00220823CDE900322146102280E7AB
:104A880003B0BDE8F08F00BF0B68016011461847FE
:104A980010B40468E468A4465DF8044B604710B499
:104AA80004682469A4465DF8044B604770B550B9A2
:104AB8000E4D0F4C0026641B1423B4FBF3F4B442D0
:104AC80008D1002010E00368002BF1D0BDE8704049
:104AD800DB6918472B6813B901361435EFE7DB6932
:104AE800284698470028F7D070BD00BF78590020A5
:104AF8008C590020014B43600020704774AC0E00B5
:104B08000846704700207047024B1868003818BFE5
:104B180001207047888D002008B50248FFF788FDFE
:104B2800002008BD888D002008B510461A4603F0FD
:104B3800A3FB002008BD00002DE9F041804686B0A7
:104B480011480F4616461D46FFF769FD0446C8B9C9
:104B5800AA0831463846FFF739FB0B48FFF768FDCE
:104B6800D8F8083053B101228DF800200C9A05922C
:104B7800CDE90147CDE9036568469847204606B068
:104B8800BDE8F0811124F9E7888D00202DE9F04374
:104B9800814687B014480E4615469846FFF73FFDF4
:104BA8000446F0B90746BD4215D10F48FFF740FD4E
:104BB800D9F808305BB102228DF800200022CDE937
:104BC8000126CDE90325CDF814806846984720468C
:104BD80007B0BDE8F08306EB0730FFF7C9FA0137E5
:104BE800E1E71124F3E700BF888D002029DF704733
:104BF80028DF704770B503689E6886B004460D4686
:104C08006EB114220021684603F05FFBA368059388
:104C1800237901952BB1012B0DD06846B04706B01A
:104C280070BD01238DF8003023690293E368039374
:104C380063690493F1E702238DF80030E3681B03EE
:104C48000293F5E70846704700207047024B187A30
:104C5800003818BF01207047788F0020034B187A5E
:104C68000122B0FA80F05A7440097047788F00200A
:104C780008B510461A4603F0FFFA002008BD0000E8
:104C880008B514220021044803F01FFB0348FFF76E
:104C9800DCFB002008BD00BF788F0020688F002053
:104CA80010B5094C094B43602046FFF7B8FC48B9DA
:104CB80001F01EF9064920741C2306484FF4EE72D1
:104CC800FFF7B0FB002010BD788F0020A0AC0E00CD
:104CD8008C8D0020688F002038B5224D224C2B7A0D
:104CE8003BB922492248FFF70CFC206008B96860EC
:104CF80038BD022324682B72237973B1012B22D08B
:104D080020460321FFF776FF00232B726B601749BB
:104D18001748BDE83840FFF71FBCD4E90523D21A6D
:104D2800142AD4E9031028BF14229208012A38BF94
:104D3800012219441844FFF759FF50B11128DFD157
:104D480001232B72D4E7D4E903031844FFF750FF7B
:104D5800F3E72B7C002BCBD1BDE83840022000F0D4
:104D680009B800BF788F0020908F00208C8F00201A
:104D7800688F002038B5224C237A002B3FD0022BB5
:104D880009D103282ED01F4B00221B68E2601A7934
:104D98003AB1012A20D0637C6BBBBDE83840FFF7ED
:104DA8009BBFD3E905128D1A142D94BF52191432E2
:104DB8009A619142EFD102284FF0000308BF1946CB
:104DC8002372104B18BF0D211868FFF713FF0E4907
:104DD8000E48FFF7C1FBDEE71A6901321A615B6909
:104DE8009A42E7E7E3680133082B01D8E360D2E78A
:104DF8000023E360DFE7BDE8384001F069B838BD5B
:104E0800788F0020908F00208C8F0020688F0020E2
:104E1800831E012B01D8FFF7ADBF704700F0FD03DB
:104E2800012B08D1044B00225A74421E50425041B3
:104E38001874FFF751BF7047788F002010B5064CE3
:104E4800201DFFF7ECFB28B9637C1BB9BDE81040B7
:104E5800FFF742BF10BD00BF788F00202DE9F34156
:104E680080460D46104801A916461F46FFF70FFB5E
:104E78000446B0B118220021043003F026FA2D0BA5
:104E88000123237101A90848C4F80080A760E560E0
:104E98006661FFF726FBFFF7D1FF002002B0BDE8EF
:104EA800F0810420FAE700BF688F00202DE9F34164
:104EB80080460F460F4801A916461D46FFF7E7FA38
:104EC8000446A8B118220021043003F0FEF9089B1B
:104ED800A36001A9C4E903670648C4F800806561B6
:104EE800FFF7FFFAFFF7AAFF002002B0BDE8F08144
:104EF8000420FAE7688F00202DE9F84FB0F806A0E3
:104F08004579D2F800B09DF828900AFB05F5043DD4
:104F180088460BEB0301A94203F1040488BFA5EB03
:104F2800030BB4FBFAF607460AFB1644C2F800B0B6
:104F38004EB9AAEB04055D4528BF5D46BBF1000FDD
:104F480004D1BDE8F88F3F68013EF1E7043408EB6F
:104F580006003C442A46B9F1000F0DD02146ABEBC0
:104F6800050B03F089F9DA452E443F6855464FF0A2
:104F7800000428BF5D46E1E701462046EFE7FFF75A
:104F88005ABBF8B546790146721E0546002393427E
:104F98002D6803D30024A64202D8F8BD0133F6E7F2
:104FA8000F682846FFF782FB01343946F3E72DE9FD
:104FB800F843068ACD1C0746FFF754FB043E3544E8
:104FC8000446B5FBF6F5F0B14FF48073EDB283807B
:104FD800C680013D076081464FF00008A84512D2FF
:104FE8003846FFF73FFB064648B1637901336371E2
:104FF80008F10108C9F8000007608146EEE720467D
:10500800FFF7BFFF34462046BDE8F883012104308E
:10501800FFF7EDBA10B5012104460430FFF7F3FAA3
:10502800C0B220B92046BDE81040FFF7AABF10BDA6
:105038001FB503920022009203AAFFF75DFF05B097
:105048005DF804FB1FB503920122009203AAFFF743
:1050580053FF05B05DF804FB836800225A60C3E97A
:1050680004229A60DA601A6070470B684A684360E5
:10507800934208BF0023016008BF4360704743683C
:1050880043B10268916852680B449342436004BF7D
:10509800002343607047000010B50D49A1F59472D4
:1050A800914201D800200FE08C1AE30F03EBE403D0
:1050B8005B1002EBC30452F83330834205D802D2A6
:1050C80004F10802ECE7606810BD2146E8E700BF7C
:1050D800C4B10E0008B5FFF7DFFF024B002808BF78
:1050E800184608BD86B00E007047000007B5044B8F
:1050F8000093044A402300F032F803B05DF804FB43
:1051080011510E00958F00202DE9F843884614466A
:10511800B2B10F4B0F4E0325002743F00109224679
:1051280008EB0701002000F0D1FD0744241A48B914
:1051380033782BB14FF47A40C847013D02D135701E
:10514800BDE8F88301233370002CE8D1F8E700BFED
:10515800D0B10E00948F0020704700F0E7BDF0B585
:1051680095B01D46164608460C46FFF74FFF1A9B9A
:105178000D93CDE9086500252B46082205A9204690
:105188000A958DF82C500C95FFF75CFF079B02934E
:10519800069B03939DF814308DF8115003F0030219
:1051A800012A1DD1BDF81420059DC3F3C203C2F323
:1051B80083168DF81030B20008230EA92046FFF799
:1051C80041FFC5F3952508AB0093324602AB0EA903
:1051D800284600F0C5FB2046FFF71CFF15B0F0BDC0
:1051E800022AF8D1BDF81650C3F3C203C5F38915D6
:1051F8008DF810300827082D2E4628BF08263B4674
:1052080032460EA92046FFF71DFFAD1B08AB02AAC8
:1052180031460EA8374400F007FC002DEBD1DAE741
:1052280008B5FFF79AFF0448042100F005FB034B7B
:1052380001225A7108BD00BF8C8A0E00C459002093
:10524800037813F0040216D003F00303012B03D0F4
:10525800022B09D0012070470A6800880232C0F387
:10526800831002440A60F5E70B684288023303EBB7
:1052780092130B60EEE71046704700002DE9F04FDF
:10528800DFF828A187B00F4600230446861C0DF1DD
:10529800070015468DF80730FFF76EF8DAF8042096
:1052A8003A60DAF80830404F03F580639B1AA7F19B
:1052B8000409A7F10808B3421BD30020002D6ED0C3
:1052C80004F00F039B0143F0050363F30F00DAF8C2
:1052D8000430C3F30902033233444AF822009DF82C
:1052E8000700CAF80430FFF76BF8012007B0BDE8E3
:1052F800F08F01213846FFF77AF94846FFF792F90F
:105308004046FFF78FF9DAF808000290C0F3090069
:1053180003300AEB800002A9FFF792FF029B40BB13
:10532800C3F309020AEB8202D16803919A1C013384
:10533800C3F309030AEB83030292D3F80CB001F01C
:105348000303012B23D0022B16D083464046FFF7D8
:105358006CF910B1029BCAF8083059463846FFF775
:1053680046F9DAF80830DAF8042003F580639B1A66
:10537800A1E7C3F30900CBE7BDF80E30C3F38913E7
:1053880003334FEA1B4B02EB93030293DEE7BDF8AE
:105398000C30C3F383134FEA1B4B1344F5E7A40502
:1053A80044F0060093E700BFC4A00020A8900020A6
:1053B800064B074810B500221A70FFF7E0FD0446B7
:1053C80010B90448FFF748FE204610BDA8900020F9
:1053D800788A0E000CB20E0030B50A4C71B10A4A38
:1053E8000A49121BD20800239A4201D1002030BD7D
:1053F80031F82350854202D00133F5E7034654F8CB
:105408003300F4E7F4890E00648A0E00785900200E
:10541800094B013903EBC000032909D8DFE801F083
:105428000A020406042070470079704740797047E3
:105438000020704702207047F4890E007047000072
:10544800034BD3E90130C31A58425841704700BF93
:10545800A89000202DE9F04387B0FFF7F1FF06463A
:10546800002840F0F080794C04F58055A861BFF31E
:105478004F8FA3680293C3F30903033304EB83003C
:1054880002A9FFF7DDFE029B10B1AA69002A5DD0D0
:10549800C3F30902991C013304EB8202C3F3090325
:1054A80004EB8303D268DB68049302F00303022B46
:1054B8000392029155D1BDF80E306548C3F389189F
:1054C8004746502F28BF502707F1080167F38F136D
:1054D800C1F30901ADF80E30FFF769FD0646002853
:1054E80000F09D80FFF792FD0023082203A93046B3
:1054F800FFF79EFD0299CB43C3F309030133C1F3C0
:1055080009010331B7EB830F4FEA830204EB8101F2
:1055180024D95FFA82F90823A7EB09073046FFF779
:1055280087FDFFB209F108034A4903F0FC033A4634
:105538003046FFF77DFD029B08F1030803EB980353
:105548000293AB69002B43D12F6954E062689A42F9
:1055580091D8A260304607B0BDE8F08308233A46E8
:10556800E6E7012B5BD1BDF80C303948C3F3831152
:10557800062928BF062161F38913023101F00F01C2
:105588008900ADF80C30FFF712FD0646002846D01A
:10559800FFF73CFD0023082203A93046FFF748FD2A
:1055A8000027BDF80C20C2F38312BB00974203F119
:1055B8000803C6D202994A1CC1F3090103310292B9
:1055C80004EB810104223046FFF732FD0137E8E79A
:1055D8003046FFF71FFDFFF733FF80F00100C6B22A
:1055E800B8E7FB685B7923B13B6831461B683846EE
:1055F8009847FB681F68002FF3D13046FFF70AFD74
:105608000DF107008DF80770FEF7B6FEAB690BB910
:10561800029BA3609DF80700FEF7D2FEDBE72C692A
:1056280054B90D4B0D480E49C01AC008000440F08B
:10563800020000F063F8CEE7236820469B6898478D
:10564800E3681C68ECE7002684E700BFA890002008
:10565800788A0E00B4900020F4890E00F4890E00B8
:10566800F4B10E002DE9F34704460E46924601A90F
:10567800012218469946FFF701FE1E4F20B3019DEF
:105688004FF00008AA1CC84508EB020127D11A48A8
:105698000021FEF771FF80F31000000440EA144077
:1056A800E4006B1C04F03804C3F30903C5F30905CF
:1056B80044F0010407EB8303033544EA881444EA01
:1056C8008624D86047F825403B781BB1FFF7C2FE17
:1056D8000028FBD1FFF7B2FE02B0BDE8F087C1F3A6
:1056E800090107EB81015AF82830CB6008F101085D
:1056F800C9E700BFA8900020C4A0002000231A46D4
:10570800FFF7B0BF07B50123019201AAFFF7AAFF6F
:1057180003B05DF804FB07B5CDE9002302236A4610
:10572800FFF7A0FF03B05DF804FB1FB5CDE9012327
:10573800069B039301AA0323FFF794FF05B05DF8C6
:1057480004FB1FB5CDE90023069B0293079B039337
:105758006A460423FFF786FF05B05DF804FB7FB5B2
:10576800CDE90123089B0393099B04930A9B0593A6
:1057780001AA0523FFF776FF07B05DF804FB0000D8
:105788002DE9F7430446D01C8846164601A9002295
:105798008008FFF773FD264D98B3019FB81C019050
:1057A800C0F30900C0F58063B6EB830F00F1030076
:1057B8004FEA830905EB80002AD83246414602F0B9
:1057C8005BFD1C480021FEF7D7FE80F310007B1C10
:1057D800C3F30903C7F30907220C05EB8303033757
:1057E80042EA0040E400D86004F0380455F8273055
:1057F80044F0020444EA865203F47C131A4345F841
:1058080027202B787BB9FFF719FE03B0BDE8F0839A
:105818004A46414602F030FDA6EB090208EB0901B1
:1058280005F10C00CBE7FFF715FE0028FBD1EAE7EE
:10583800A8900020C4A0002030B50E4C2269034671
:105848000020114629B9D968087142B923610A6054
:1058580030BDC9680D79854206D00968F2E7D2687B
:1058680014680C601360F3E701300A28E9D14FF09F
:10587800FF30EDE7A8A0002038B5084B03F58052AB
:10588800012514691D7004B938BDE3685D7123688A
:1058980020465B689847E3681C68F4E7A8900020F6
:1058A80030B5C38885B004460D4633B1144A00921A
:1058B8001449154A2846FEF71EFF217A05291DD0EE
:1058C800637A4BB1A088FFF7A3FD104B104953F83A
:1058D80020202846FEF70FFF227A0E4BA08853F8A7
:1058E800222003920021FFF777FD039A0A49034615
:1058F800284605B0BDE83040FEF7FDBE05B030BD16
:1059080038B20E0020B20E0018B20E00A8B20E0077
:1059180067A90E00CCB20E003DB20E0007B50346D3
:105928000846197A052911D05B7A2BB1094A0A4928
:105938000190FEF7E0FE019808490190FEF7DBFEB2
:10594800019803B05DF804EBFEF7CABE002AF8D050
:10595800F2E700BF38B20E0067A90E0035B20E009C
:105968002DE9F04385B01F460C9D002395F80C9057
:105978002B7306460C46904629463846FFF790FF9B
:10598800B8F1060F09D8DFE808F00412181F283309
:10599800400031462846FEF7AEFE0022294638462A
:1059A800FFF7BCFF85F80C9005B0BDE8F0832268CE
:1059B80031462846FEF79FFEEFE7D4E9002331463B
:1059C8002846FEF798FEE8E7A36800933146D4E935
:1059D80000232846FEF78FFEDFE7E3680193A368FC
:1059E80000933146D4E900232846FEF784FED4E725
:1059F80023690293E3680193A36800933146D4E9CD
:105A080000232846FEF777FEC7E7636903932369F7
:105A18000293E3680193A36800933146D4E9002315
:105A28002846FEF768FEB8E708292DE9F74F8046B3
:105A38000E4617461C463DD800251B7B257321467C
:105A480010460193FFF72CFFDFF88CA0DFF88CB02D
:105A5800AE4232D918F8052059462046FEF74BFECB
:105A68000135082DF4D11B49DFF874A0DFF874B0B4
:105A78002046FEF740FE4FF000094E4524D918F89D
:105A880009507E2D1ED8284602F08AFB002814BF34
:105A98002A462E2259462046FEF72DFE09F1010915
:105AA800B9F1080FE9D1012221463846FFF736FF40
:105AB800019B237303B0BDE8F08F51462046FEF7E3
:105AC8001AFECDE72E22E5E751462046FEF713FEE3
