:02000002F0000C
:1000000000000420316F0F00716F0F00736F0F003D
:10001000756F0F00776F0F00796F0F000000000001
:10002000000000000000000000000000311E0F0072
:100030007D6F0F0000000000511E0F00816F0F0048
:10004000836F0F00836F0F00ED740F00836F0F003D
:10005000836F0F00836F0F00836F0F00836F0F009C
:10006000836F0F00836F0F00836F0F00836F0F008C
:10007000836F0F00836F0F00836F0F00836F0F007C
:10008000836F0F00836F0F00836F0F00836F0F006C
:10009000836F0F00836F0F00836F0F00836F0F005C
:1000A000836F0F00836F0F00836F0F00836F0F004C
:1000B000836F0F00836F0F0000000000000000003E
:1000C000836F0F00836F0F00836F0F00836F0F002C
:1000D0003D1C0F00836F0F00836F0F00836F0F00B5
:1000E000836F0F00C56E0F00836F0F0000000000CC
:1000F00000000000836F0F0000000000836F0F00FE
:1001000000000000000000000000000000000000EF
:1001100000000000000000000000000000000000DF
:1001200000000000000000000000000000000000CF
:1001300000000000000000000000000000000000BF
:1001400000000000000000000000000000000000AF
:10015000000000000000000000000000000000009F
:10016000000000000000000000000000000000008F
:10017000000000000000000000000000000000007F
:10018000000000000000000000000000000000006F
:10019000000000000000000000000000000000005F
:1001A000000000000000000000000000000000004F
:1001B000000000000000000000000000000000003F
:1001C000000000000000000000000000000000002F
:1001D000000000000000000000000000000000001F
:1001E000000000000000000000000000000000000F
:1001F00000000000000000000000000000000000FF
:1002000010B5054C237833B9044B13B10448AFF350
:1002100000800123237010BDDC600020000000007E
:1002200070A00F0008B5034B1BB103490348AFF39F
:10023000008008BD00000000E060002070A00F00FA
:10024000154B002B08BF134B9D46A3F5803A0021A8
:100250008B460F461348144A121A07F0EFFD0F4B56
:10026000002B00D098470E4B002B00D09847002061
:10027000002104000D000D48002802D00C48AFF307
:10028000008007F08DFD2000290007F087F907F0B6
:1002900061FD00BF00000800000004200000000015
:1002A00000000000DC600020707F002000000000E3
:1002B00000000000074B13B504460360406828B1F6
:1002C000002300931A46052101F04AFB204602B0A4
:1002D00010BD00BF54930F0010B50446FFF7EAFFAE
:1002E000204607F091F9204610BD0000024A026046
:1002F00000224260704700BF54930F0037B5044698
:10030000406850B9009289029DF818204FF47A7520
:10031000B1FBF5F101F006FB606003B030BD0000F9
:10032000F0B5174E45687468C4F3080485B0DCB1B5
:1003300004AC002744F8047D00F0AAFE23460246E0
:1003400000970621284601F00BFB431E58425841F6
:10035000039B3BB14FF08053736040BFBFF34F8F9F
:10036000BFF36F8F05B0F0BD00F08CFE0094024625
:1003700023460121284601F0F3FA0120F2E700BFED
:1003800000ED00E0036810B50446186808B100F0FD
:1003900043FC204610BD70B504460E4621600D6832
:1003A0006DB903222946012000F022FA306020684E
:1003B00025712B462A462946006800F037FA204668
:1003C00070BD000010B5064C06492046FFF7E3FF5C
:1003D0002046054A0549BDE8104007F0E2BA00BFD3
:1003E000F8600020006100200060002085030F00FD
:1003F000704700207047000008B5044802F05CFA1E
:1004000080F00100C0B2404208BD00BFFC61002086
:100410001846084B10B5029CDB6903FB012102461C
:100420002346054802F082FA001B18BF4FF0FF3048
:1004300010BD00BF04600020FC6100201846084B7E
:1004400010B5029CDB6903FB0121024623460548E7
:1004500002F04FFA001B18BF4FF0FF3010BD00BF75
:1004600004600020FC61002010B5034B03600446CB
:1004700002F01AFD204610BDBC930F0010B50446D3
:10048000FFF7F2FF204607F0BFF8204610BD00003E
:1004900010B50549044602F085FC044B2360012396
:1004A00084F8F030204610BD04600020BC930F009B
:1004B00038B5012205460021094802F07DF80446BE
:1004C00060B10021284602F08DFC044620B90548A1
:1004D00008F09EF885F8F040204638BD0248F7E75E
:1004E000F86100205C930F008C930F00014802F02C
:1004F0007AB800BFF861002070B50D4E0D4C0E4D5E
:10050000304602F09FFB2046FFF7C2FF20460B4C0F
:100510000B492A4607F045FA3146204602F03EF8DC
:100520002A4620460749BDE8704007F03ABA00BFA6
:10053000106200200461002000600020F8610020AB
:1005400069040F00F1030F0000F108034FF0FF32C0
:100550004360C0E902230361002303607047002366
:100560000361704743684B609A688A609A6851607B
:100570009960036808610133036070470A68531C7F
:1005800030B50AD103695A684A6091608B6059603E
:10059000036808610133036030BD00F108035C6843
:1005A00025689542EFD82346F9E7D0E9011203699F
:1005B0008A60826851605968814208BF5A6000228F
:1005C00002611A68013A1A601868704710B504464B
:1005D00000F050FD204607F007FC044600F0F0FD57
:1005E0000CB907F04FF8204610BD10B5044601F0D5
:1005F00061F80228204603D1BDE81040FFF7E6BFAE
:10060000BDE8104007F0F0BB10B5044640B100F063
:1006100031FD204607F0F0FBBDE8104000F0D0BDF2
:1006200010BD10B5044601F045F80228204603D15C
:10063000BDE81040FFF7E8BFBDE8104007F0DCBBA5
:1006400010B5044601F0E6FAA46B01F0EDFAB4FA35
:1006500084F0400910BD70B51546026C866B0446E7
:1006600042B905689DB9406801F076F865600136C9
:10067000A66370BD6DB9806807F0D5FBA368226CD6
:1006800013446268A360934201D32368A3600020EF
:10069000EDE7C06807F0C7FB236CE26821685B42A6
:1006A0001A448A42E2603EBF62689B18E360022DF2
:1006B000EDD10EB1013EEAE73046D8E7034610B46B
:1006C0001A6C084662B1D9685C681144A142D960CD
:1006D00024BF1968D960D9685DF8044B07F0A3BB43
:1006E0005DF8044B704770B5044601F093FA94F836
:1006F000455004F124066DB2002D14DCFF2384F86C
:10070000453001F091FA01F085FA94F8445004F173
:1007100010066DB2002D12DCFF2384F84430BDE8D2
:10072000704001F081BA636A002BE7D0304600F0D8
:100730006BFE08B100F0D4FE013D6DB2DCE7236929
:10074000002BE9D0304600F05FFE08B100F0C8FE93
:10075000013D6DB2DEE7000038B504460D4601F0FC
:1007600059FAD4E90F302268A2604343D1181B1A0A
:1007700013446160E3600021FF23A16384F84430E7
:1007800084F845309DB923696BB104F1100000F085
:100790003BFE40B10A4B4FF080525A6040BFBFF35E
:1007A0004F8FBFF36F8F01F03FFA012038BD04F186
:1007B0001000FFF7C9FE04F12400FFF7C5FEF2E7C1
:1007C00000ED00E010B51C4683B10123002908BFED
:1007D0002246C4E90F0184F84630194622602046BB
:1007E000FFF7BAFF9DF8083084F84C30204610BD62
:1007F000F8B50646484350300D461746FFF7E6FE6B
:10080000044660B1002380F8463055B92060C4E941
:100810000F6501212046FFF79FFF84F84C702046AA
:10082000F8BD00F150030360F1E700002DE9FF4738
:100830000026DFF8F490019204468A461F46B0462F
:1008400001F0E8F9A26BE36B9A4201D3022F1AD1AF
:100850003A4651462046FFF7FEFE636A1BB104F19B
:10086000240000F0D1FD40B12F4B4FF080525A6070
:1008700040BFBFF34F8FBFF36F8F01F0D5F9012059
:1008800004B0BDE8F087019D1DB901F0CDF900204D
:10089000F6E716B902A800F0EFFD01F0C5F900F087
:1008A000E9FB01F0B7F994F84430FF2B08BF84F856
:1008B000448094F84530FF2B08BF84F8458001F050
:1008C000B3F901A902A800F0E3FD30BB01F0A2F9E1
:1008D000A26BE36B9A420ED101F0A6F9019904F1E3
:1008E000100000F06DFD2046FFF7FDFE00F068FCF3
:1008F00048B10126A4E701F097F92046FFF7F3FE7F
:1009000000F05EFCF5E74FF08053C9F8043040BFBB
:10091000BFF34F8FBFF36F8FEBE72046FFF7E3FE88
:1009200000F04EFCB3E700BF00ED00E013B500227D
:1009300000900B4601201146FFF744FF044638B1F2
:100940000023C0E90033C3601A461946FFF76EFF63
:10095000204602B010BDF8B505461746EFF31186E4
:10096000402282F31188806BEA6B904201D3022B04
:100970001ED195F845401A4664B22846FFF76BFE33
:10098000631C10D16B6A0BB9012009E005F124004A
:1009900000F03AFD0028F7D0002FF5D00120386094
:1009A00086F31188F8BD013464B285F84540EBE761
:1009B0000020F5E72DE9F04385B00026DFF8E4904C
:1009C000019204468846374601F024F9A56BDDB153
:1009D00041462046013DFFF771FEA56323696BB1D7
:1009E00004F1100000F010FD40B12E4B4FF080528A
:1009F0005A6040BFBFF34F8FBFF36F8F01F014F900
:100A0000012005B0BDE8F083019D1DB901F00CF98E
:100A10000020F6E716B902A800F02EFD01F004F957
:100A200000F028FB01F0F6F894F84430FF2B08BFE3
:100A300084F8447094F84530FF2B08BF84F8457063
:100A400001F0F2F801A902A800F022FDF8B9204651
:100A5000FFF7F6FDA8B1019904F1240000F0B0FC05
:100A60002046FFF740FE00F0ABFB40B94FF080534B
:100A7000C9F8043040BFBFF34F8FBFF36F8F01261B
:100A8000A2E72046FFF72FFE00F09AFBF7E720468B
:100A9000FFF729FE00F094FB2046FFF7D1FD002868
:100AA000EDD0B5E700ED00E02DE9F04385B000257D
:100AB000DFF81C91019104462F462E4601F0AAF85A
:100AC000A36BEBB1013BA363236813B900F0A2FE53
:100AD000606023696BB104F1100000F095FC40B137
:100AE0003B4B4FF080525A6040BFBFF34F8FBFF374
:100AF0006F8F01F099F80125284605B0BDE8F08315
:100B0000DDF80480B8F1000F03D101F08DF8002565
:100B1000F2E717B902A800F0AFFC01F085F800F089
:100B2000A9FA01F077F894F84430FF2B08BF84F855
:100B3000446094F84530FF2B08BF84F8456001F00D
:100B400073F801A902A800F0A3FC48BB2046FFF7F8
:100B500077FDF8B123683BB901F05CF8606800F0FC
:100B6000B9FD054601F060F8019904F1240000F098
:100B700027FC2046FFF7B7FD00F022FB40B94FF0FD
:100B80008053C9F8043040BFBFF34F8FBFF36F8F5E
:100B9000012793E72046FFF7A6FD00F011FBF7E7DA
:100BA0002046FFF7A0FD00F00BFB2046FFF748FDB5
:100BB0000028EDD0002D9FD001F02CF8616A19B10A
:100BC000236B1968C1F10501606800F0EFFD9CE737
:100BD00000ED00E0054B1A6812B19A682AB90122AB
:100BE00043F8321003EBC203586070475C7F00206B
:100BF000084B5A6890420AD0DA68904206D1012226
:100C0000002143F8321003EBC20359607047002201
:100C1000F6E700BF5C7F002010B5FFF7E9FF90F812
:100C200046301BB9BDE81040FFF7EEBC10BD70B5F3
:100C300004460D46164600F0EDFF94F84430FF2BB5
:100C400004BF002384F8443094F84530FF2B04BFE0
:100C5000002384F8453000F0E7FFA36B2BB9324640
:100C6000294604F1240000F0BBFB2046BDE870409B
:100C7000FFF739BD2DE9F041044600F0CBFF314BC1
:100C8000314D1A68314E01321A602A68002A4FD15C
:100C90002C601B68012B25D12D48DFF8EC802D4FEF
:100CA000FFF752FC2C48FFF74FFC2C48FFF74CFC99
:100CB0002B48FFF749FC2B48FFF746FC4046FFF75F
:100CC00043FC3846FFF740FC2748FFF73DFC274828
:100CD000FFF73AFC2648FFF737FC264BC3F80080A5
:100CE000254B1F60254A136801331360244AE363D0
:100CF0001168E36A8B4288BF1360154A142000FB19
:100D00000320211DFFF72EFC00F08EFF33686BB12E
:100D10002B68DA6AE36A9A4208D21A4B4FF0805283
:100D20005A6040BFBFF34F8FBFF36F8FBDE8F081B4
:100D30003368002BD6D12B68DA6AE36A9A4298BFEF
:100D40002C60CFE78C6200201C620020EC62002047
:100D500028620020B86200203C620020506200201F
:100D60006462002078620020D862002004630020C2
:100D7000F062002020620020246200209C6200209B
:100D8000A062002000ED00E0A4620020094B0A4AA6
:100D90001B681268D06A50B9084A1268012A07D83D
:100DA00033B9074B1868074B1B68C01A70470020FF
:100DB000704700BFA06200201C6200202862002053
:100DC000D062002018630020064A13681968064B99
:100DD00019B94FF0FF321A6070471268D268D268B2
:100DE0005268F8E720620020D06200202DE9F04729
:100DF000DDE9097496000D4632468046A521206B38
:100E0000994607F01BF8236B043E1E4426F00706A4
:100E10006B1E04F13402073513F8011F02F8011BA1
:100E2000197809B1AB42F7D1089D042D28BF0425DC
:100E30004FF0000AE562C4E9115A201D84F83BA076
:100E4000FFF78DFBC5F1050504F11800FFF787FBDF
:100E5000C4F84CA02461A561646284F850A04A469D
:100E60004146304600F09EFE206007B13C60BDE880
:100E7000F08710B590F8513004463BB9006BFFF78E
:100E8000C3FB2046BDE81040FFF7BEBB012BF9D0E5
:100E900010BD0000F8B5164B164E1C6805463068AC
:100EA00004300F46FFF781FB6B1C334607D137B187
:100EB000316811480431BDE8F840FFF753BB1A68A8
:100EC0006419546007D30D4A10681968BDE8F840EA
:100ED0000431FFF753BB0A4A106819680431FFF761
:100EE0004DFB084B1A68A24288BF1C60F8BD00BFCA
:100EF000186300201C620020F062002024620020A1
:100F000020620020D062002030B587B0DDE90B45BB
:100F10008DB194B12C63022485F8514005AC019445
:100F20000A9C02950094FFF761FF2846FFF7A2FE96
:100F3000059807B030BD2846FBE72046F9E72DE9C4
:100F4000F043074685B09000884616469946FFF75D
:100F50003DFB0546E8B15420FFF738FB0446A8B135
:100F6000002380F851300D9B056301930C9B029088
:100F7000009332464B4641463846FFF737FF20463E
:100F8000FFF778FE012005B0BDE8F0832846FFF7A3
:100F90003BFB4FF0FF30F6E738B5144B1B6883423C
:100FA00005461DD000F036FE6C6900F03DFE104B8A
:100FB0001B689C4216D00F4B1B689C4212D00E4BF4
:100FC0009C4205D1AB6A002B14BF0220032038BD20
:100FD0000A4B9C4208D0002C0CBF04200120F6E7ED
:100FE0000020F4E70220F2E70420F0E71C62002072
:100FF0002062002024620020F062002004630020B0
:1010000010B588B008AA002442F8044D06A905A826
:10101000CDE9054406F008FB059B0293069B079A61
:101020000E490F48CDE900432346FFF76DFF0D4BF6
:10103000186080B100F04CFC01280CD1402383F3F0
:101040001188094B4FF0FF321A60084B1860084BAB
:101050001C6000F0B9FD08B010BD00BFC4930F00C4
:10106000C5120F00CC620020D0620020EC6200208C
:1010700018630020024A136801331360704700BFF1
:1010800098620020014B1868704700BF1863002069
:10109000014B1868704700BF18630020014B1868A7
:1010A000704700BF8C62002008B9024B18683430CA
:1010B000704700BF1C620020014B1868704700BFDA
:1010C000CC620020024A136818441060704700BFC9
:1010D000186300202DE9F84F2E4B1B68002B53D1CD
:1010E0002D4B1D6801351D605DB92C4A2C4B1168D4
:1010F000186810602B4A1960136801331360FFF7FA
:1011000063FE294F3B68AB424FF0000607D9274BDF
:101110001B68002B0CBF30460120BDE8F88FDFF8BC
:101120007C90DFF894A0DFF894B0D9F800301B6809
:101130001BB94FF0FF333B60E9E7D9F80030DB68BB
:10114000DC6863689D42F6D304F104084046FFF76B
:101150002CFAA36A1BB104F11800FFF726FAE36A20
:10116000DAF800201420934200FB03B0414688BF08
:10117000CAF80030FFF7F6F90D4BE26A1B68DB6A2C
:101180009A4228BF0126D0E70A4A13680133136048
:101190000026BCE79862002018630020206200202F
:1011A00024620020D4620020D06200201C63002052
:1011B0001C62002094620020A062002028620020AF
:1011C0002DE9F04100F026FD294B1A68013A1A601A
:1011D0001C682CB1002400F027FD2046BDE8F081FA
:1011E000244B1B68002BF5D0234D244EDFF8A08044
:1011F0001DE0EB68DC68271D04F11800FFF7D5F946
:101200003846FFF7D2F9E36A32681420934200FBB4
:101210000380394688BF3360FFF7A4F9184BE26AB0
:101220001B68DB6A9A4202D3164B01221A602B68B4
:10123000002BDED10CB1FFF7C7FD134D2C6844B174
:10124000104E0127FFF746FF00B13760013CF9D18E
:101250002C600C4B1B68002BBCD00C4B4FF0805209
:101260005A6040BFBFF34F8FBFF36F8F0124B2E7C7
:10127000986200208C620020D8620020A0620020CA
:101280001C6200201C6300209462002000ED00E03E
:101290002862002008B548B9094B4FF080525A60C7
:1012A00040BFBFF34F8FBFF36F8F08BDFFF7E2FE64
:1012B0000021FFF7EFFDFFF783FF0028ECD0F4E7F4
:1012C00000ED00E0F8B51A4C1A4F1B4D2368DBB94E
:1012D0001A4B1B68012B08D9194B4FF080525A60EA
:1012E00040BFBFF34F8FBFF36F8FFFF74FFD012854
:1012F000EBD9FFF7BFFEFFF749FD012801D900F048
:10130000FDFCFFF75DFFE0E700F084FCFB68DE68B2
:10131000301DFFF74AF92B68013B2B602368013B26
:10132000236000F081FC3046FFF7A3FDCEE700BF4D
:1013300090620020046300208C620020286200205C
:1013400000ED00E0F8B5194B1A68194B12B10122F3
:101350001A60F8BD174C1A602268236812681B6B6C
:101360009A4204D820682168343106F075F9124E8B
:10137000124B32684FF0140C1F460CFB02F1581848
:101380005D5885B1456808316D6845600B449D42E4
:1013900004BF6B684360142303FB02735B68DB6864
:1013A00023603260D5E7013AE7E700BF986200208A
:1013B0001C6300201C620020A06200202862002024
:1013C00010B5064B0C4619681831FFF7D7F82046C0
:1013D0000121BDE81040FFF75DBD00BF1C62002089
:1013E00038B5084B0D46196814461831FFF7BAF89E
:1013F000002C21460CBF28464FF0FF30BDE8384096
:10140000FFF748BD1C62002038B5C368DC6804F1F2
:1014100018052846FFF7C9F8114B1B68EBB9251DC5
:101420002846FFF7C2F80F4AE36A11688B4288BF6B
:1014300013600D4A1420294600FB0320FFF792F8A1
:101440000A4BE26A1B68DB6A9A4285BF084B01209F
:1014500000201860FFF7B8FC38BD29460548EDE7C5
:1014600098620020A0620020286200201C620020F8
:101470001C630020D8620020034B1B680360034BF1
:101480001B684360704700BFD462002018630020CF
:1014900070B50C46054600F0BDFB0F4B1A6823687B
:1014A000591C0FD00D482E6800686968864201D02B
:1014B00091420ED9521A934209D99B1A23602846A9
:1014C000FFF7DAFF002400F0AFFB204670BD0023D9
:1014D00023600124F7E700BF18630020D4620020D6
:1014E000014B01221A6070471C63002000B1006CA0
:1014F000704700B101647047084B186860B9084B29
:101500001B6853B9074B1868074B1B68013B98428F
:1015100014BF01200220704700207047D8620020CD
:101520001C630020F06200208C62002070B50C4625
:101530001646054608B91B4A1568256005F13402B0
:101540006260EA6A22612A6BE261EA6BA2606A6CFD
:101550006261052B4FF00002A2611BD0114909689E
:10156000A9420BD12273D6B1296B0A46531A12F83D
:10157000010BA528FAD09B08238470BD032B23738D
:10158000F1D1FFF777FDAB6A0BB102232373FFF7AD
:1015900017FEE8E72846FFF7FFFC2073E3E7268401
:1015A000EBE700BF1C6200202DE9F84F0D68814673
:1015B0000C46924615B34B685B684B6001F1080717
:1015C000BB4204BFCB684B604B68D3F80C8000254E
:1015D0004FF0240B63685B6863609F4204BFE3685D
:1015E00063606368DE680BFB059153460122304659
:1015F000FFF79CFFB04505F10105EBD12846BDE89A
:10160000F88F00002DE9F84305461746FFF732FD35
:101610001F4B1B688B4238D84FF00008DFF88490CE
:101620004446242609EB080106FB04500122FFF77B
:10163000BBFFA8F1140818F1640F0444F2D1154B54
:101640000222196806FB0450FFF7AEFF124B044458
:101650001968022206FB0450FFF7A6FF0444042287
:101660000E4906FB0450FFF79FFF044406FB04509D
:1016700003220B49FFF798FF04440FB100233B609E
:10168000FFF79EFD2046BDE8F8830024F8E700BF81
:101690008C6200202062002024620020046300206D
:1016A000F062002078620020014B1868704700BF8C
:1016B0001C620020054B1B6833B1054B1B68002BD7
:1016C0000CBF02200020704701207047EC62002010
:1016D00098620020F8B5044600282BD01B4AC36A44
:1016E0001168C96A8B42164627D28269184D002AB2
:1016F000A1BF3268D26AC2F105028261142202FBE4
:10170000035342699A4211D1071D3846FEF74DFF37
:101710003368104ADB6A1168E3628B420BD81420ED
:10172000394600FB0350FEF71DFF02E03368DB6A19
:10173000C3620120F8BD1360F1E71368406CDC6AF6
:10174000A0422CBF00200120F4E700BF1C62002053
:1017500028620020A062002038B5044608B90020A5
:1017600038BD836CC16A426C013B91428364F6D000
:10177000002BF4D1051D2846FEF717FF636CE362CA
:10178000C3F10502A261074A11688B4288BF13604A
:10179000054A142000FB03202946FEF7E3FE012042
:1017A000DEE700BFA06200202862002070B504467A
:1017B00050B3436C994238BF1946C36A8B4223D059
:1017C000826C012A20D18269104DC162002A4FF03B
:1017D000140202FB03534269A4BFC1F105018161F8
:1017E0009A4211D1061D3046FEF7DFFE084AE36A31
:1017F000116814208B4200FB03503146BDE8704055
:1018000088BF1360FEF7AEBE70BD00BF2862002027
:10181000A0620020044B1A681AB119688A6C013260
:101820008A641868704700BF1C620020F7B5114C2D
:1018300000F0F0F92568BDB90F4F104E3846FEF79D
:1018400083FE3046FEF780FE0D4B0E4A1F600E4BA6
:1018500010211E60202000950C4BFEF7B3FF206086
:1018600010B10B49FFF7B6F903B0BDE8F04000F046
:10187000DBB900BFA4650020286500203C6500207E
:10188000206300202863002024630020546500208A
:10189000C9930F00914208B5416000610AD8D21A7D
:1018A00083699A420DD2084B011D1868FEF766FE47
:1018B000002008BD9A4201D2994202D2011D034B79
:1018C000F3E70120F5E700BF246300202063002038
:1018D00010B588B0FFF7AAFF0E4B18680024B8B106
:1018E00007AA06A905A8CDE9054405F0A9FE059BB0
:1018F0000293069B019302230093079A0649074827
:101900002346FFF701FB064B1860001B18BF0120A0
:1019100008B010BDA4650020CE930F000D1A0F0073
:10192000A86500202DE9F041804630200F4616467C
:101930001D46FEF74BFE044670B1FFF777FF069B8E
:101940006362C4F80080C4E906762562201DFEF7B4
:1019500006FE002384F82C302046BDE8F08100000C
:101960007FB50F4C0546206816461A4680B10529FA
:10197000CDE9001602950DDCFFF79CFE002302283E
:1019800008BF089A206818BF1A466946FEF74EFF3E
:1019900004B070BD00236946FEF7DDFFF8E700BF25
:1019A000A46500202DE9F341164D4FF000082B6887
:1019B0001A6832B9144A11682960136002B0BDE890
:1019C000F081DB68DC681E68271D3846FEF7EDFDF8
:1019D000636A20469847E369012BE8D1A369334441
:1019E0009E4206D26360246139462868FEF7C6FD30
:1019F000DDE70023CDF80080324619462046FFF788
:101A0000AFFFD4E720630020246300202DE9F04FCE
:101A10005D4D89B0A9464FF0000A2A681368002B73
:101A20004ED0D268D2F800B0584C0393FFF722FB97
:101A3000FFF728FB2268564E039B904280462746BC
:101A400040D2FFF7AFFFC4F80080FFF7B9FB4FF0BB
:101A5000010B002204A93068FEF7ACFF0028DCD09F
:101A6000049B002B03DADDE90601059B9847049BE4
:101A7000002BEEDB069C636913B1201DFEF795FD7C
:101A8000FFF700FB3B689842024603D20390FFF742
:101A900089FF039A049B3A60092BDAD80BFA03F307
:101AA00013F4047868D113F0C70F4AD19B06D0D540
:101AB00094F82C30002BCCD12046FEF7A5FDC8E7CA
:101AC0009B46B1E720600BB3834538D8FFF778FB1E
:101AD000D9F80030DB68DC68201DFEF766FDE3699D
:101AE000012B0FD1A1695B46424659442046FFF7BE
:101AF000D1FE38B10023CDF800A05A461946204641
:101B0000FFF72EFF636A20469847A0E7214B1B682A
:101B10001A68B2FA82F25209ABEB08013068FFF79B
:101B200086F8FFF74DFB002891D11B4B4FF08052F8
:101B30005A6040BFBFF34F8FBFF36F8F87E700221C
:101B4000EAE7A169059B20461944FFF7A3FE002898
:101B50003FF47FAF636A20469847E369012B7FF427
:101B600078AFA2690599CDF800800A444346414602
:101B70002046FFF7F5FE6CE70599A1611346114475
:101B80002046FFF787FE64E72063002050650020B1
:101B9000A46500202463002000ED00E0402383F3CF
:101BA0001188FEE74FF0807340E90213054B40F8BF
:101BB0000C3C6FF0020340F8202C40F8243C4438E1
:101BC000704700BF9D1B0F000F4C08B5E02384F841
:101BD000223000F069F80D4B00221A60D4F88830EA
:101BE0000B4A43F47003C4F88830536843F0404311
:101BF0005360236943F01003236100F00BF9402385
:101C000083F31188FEE700BF00ED00E0AC65002023
:101C100030EF00E0402383F31188024A1368013358
:101C200013607047AC650020034A1368013B1360E2
:101C30000BB983F311887047AC650020174B002265
:101C400070B51A601B68EFF31186402383F3118887
:101C5000134BD3F80445C3F8002103F580731B68C8
:101C6000FFF710FA241A24F07F44012C04D9FFF75F
:101C700021FD022818BF0124002514F1FF3408D2E9
:101C800025B1084B4FF080525A6040BF86F311884F
:101C900070BDFFF71FFA0543EFE700BF4041024068
:101CA0000040024000ED00E0104BD3F808251F2A49
:101CB0000DD00F4901220A601F21C3F808150D49F4
:101CC00000200A60C1F8F800F83109681A60074B73
:101CD0000322C3F844230122C3F80423064BE02265
:101CE00083F8242310225A60704700BF004002404E
:101CF000044002400840024000E100E0F8B5074619
:101D000072B63B4DD5F80465FFF7F6FB00286CD0A2
:101D1000384C3949BC4228BF3C46331923F07F4335
:101D20000122C5F80823C5F8403500230B600B6875
:101D30004FF48033C5F80433BFF34F8FB7B1F1EEE2
:101D4000100A20F09F00E1EE100AF1EE103A2B4845
:101D50004023C0F884314FF48063C0F8843120BF41
:101D6000D0F80021D0F804311343F8D020484FF4C4
:101D70008033C0F808330B6813B100230B600B6885
:101D80001F4B00221A601B680123C0F80433D0F8EF
:101D90000425921B22F07F439C42184A28BF1C4610
:101DA0001021012CC2F884111ED9601EFFF78AF998
:101DB000144BDB68DA010ED5134A1368DB070AD52A
:101DC000124B51686343A3F57423A3F510739B0A68
:101DD00001EB83135360FFF77DF930B10C4B4FF0EB
:101DE00080525A6040BF00E0F5D062B6F8BD00BF37
:101DF00000400240FDFFFF004041024000E100E0E2
:101E000000410240F0ED00E0001000E040420F0011
:101E100000ED00E00548006880F3088862B661B60E
:101E2000BFF34F8FBFF36F8F00DF00BF00000F00C5
:101E3000064B19680868B0E8F04F80F30988BFF3D3
:101E40006F8F4FF0000080F3118870471C620020F4
:101E5000EFF30980BFF36F8F144B1A681EF0100F59
:101E600008BF20ED108A20E9F04F10604DF8043DC6
:101E70004FF0400080F31188BFF34F8FBFF36F8F97
:101E8000FFF760FA4FF0000080F3118808BC196872
:101E90000868B0E8F04F1EF0100F08BFB0EC108AD1
:101EA00080F30988BFF36F8F704700BF1C6200206A
:101EB00080F308880847000008B501210E2005F0CE
:101EC00043FC01210E2005F0B5FC4FF4E1310B4835
:101ED00005F035F90A4B0B48196806F025FB0A494D
:101EE0000A484FF47A7200F0B9F94FF0804308487D
:101EF000D3F80014BDE80840FEF7DABA14760020E3
:101F00001C10001018940F0055240F00C8750020F5
:101F100004610020F0B5664991F8F030A7B0002BBD
:101F200000F0968009A801F045F82022002101A8C0
:101F300005F084FF00225F4909A801F080FA00281B
:101F400037D19DF82030002B3FD10024BDF80A3056
:101F500003F00F03012B78D1002C76D000225649D4
:101F600009A801F06CFA00286FD0544D544F00249A
:101F7000079B2344A3425FD94FF48052FF21284698
:101F800005F05CFF4FF48052294609A801F06CF976
:101F90000646002850D0002004F04CFC324629466A
:101FA000002004F067FC384600F01CF904F580546A
:101FB000DEE7202201A909A801F056F9044609A884
:101FC00001F053FA202CBCD0BFE79DF80430562B0B
:101FD000BBD1BDF80A301B12022BB6D10022364904
:101FE00009A801F02CFA04460028AFD009A801F096
:101FF000C3F90446D0B1079B83421BD100274FF0A1
:10200000FF35A7420ED2402216A909A801F02CF9EB
:1020100016A906460246284604F0D0FB374405467A
:10202000002EEED1049C631B5C425C4109A801F0C8
:102030001CFA8BE70024F9E7079A00214FF0FF30E4
:1020400004F0BCFB09A801F010FA09A801F020FA7D
:102050004FF010241648FEF749FA6169194806F056
:1020600063FA194805F0AAF8174805F011FA6369F0
:10207000D3E90001154B4FF0FF32C3F88020C3F8BD
:102080008420C3F88021C3F8842172B6104A00234B
:102090009360BFF34F8F83F3148883F3108883F327
:1020A000118883F31388FFF703FF27B0F0BD00BF4B
:1020B00004610020D6930F00E2930F00B06500206A
:1020C000C8750020ED930F001476002000E100E0B9
:1020D00000ED00E038B50023104D03704360044666
:1020E0000C30FEF703F9296821B903220120FEF71D
:1020F0007FFB28600A4A286800231370094AA360FE
:102100001360094A1360094A1370094A194613609B
:102110001A46FEF78BFB204638BD00BFC075002075
:10212000B8750020C4750020B4750020B07500207B
:10213000BC750020024B4FF0FF311868FEF7B4BCAD
:10214000C0750020034800231A4619460068FEF7B0
:102150006DBB00BFC07500202DE9F8431B4C1C4D22
:1021600023681C4ED3F804351B4B1C4F01221A70F8
:10217000A146FFF7DFFFD9F80030D3F804E52B685C
:10218000EBB13078D8B103EB40180022984511D05C
:102190009968DC68AEEB010121F07F41A14201D3D7
:1021A000197F19B90132D2B22033EFE799690131B1
:1021B0009961F9E7904202D13B6803B19847FFF774
:1021C000C1FF074B1868FFF765F8D2E750600020A1
:1021D000C4750020B8750020B0750020B4750020CB
:1021E000BC75002008B5FFF7A5FFFFF75DFAFFF704
:1021F0007DF9144B1B68D3F80425134B1B6813B1EE
:102200001249097829B900F025F9BDE80840FFF71F
:1022100099BFC0B28142F8D30028F6D000F1006027
:10222000013803EB4010836841698260D31A23F0C0
:102230007F439942016938BF4361994288BF036176
:10224000E3E700BF50600020C4750020B87500208F
:102250000148FFF7C7BF00BFC87500202DE9F04F48
:1022600087B0144606468946FFF764FF534B1B6848
:10227000D3F804350293A2024FF47A73B2FBF3F25F
:102280004F4B1A60002A5FD0B9FA89F464094D4DAA
:10229000286818B1FEF7C5F900232B60FEF7FEFE93
:1022A0005FFA80FB4FEA4B10FEF79FF9804600284B
:1022B00000F082802420002500FB0BF00595FEF73E
:1022C00094F90746002877D0FEF7F6FE5946824675
:1022D00005AA3846FFF796F9BB46C3B2E8B2984262
:1022E0003AD29BF808108B4235D3A1B301F1006EAE
:1022F0000EF1FF3E4FEA4E1E08EB0E0CDBF800001D
:10230000DBF80420CCF8040048F80E20029ACCF840
:1023100008204FF0FF3E4FF4E052CCE9032E504529
:102320004FF00002CCE9052202D0B26890420DD1F4
:102330004FF000028CF81C2003930135FFF7D9F809
:102340000BF1240B039BC9E70424A0E74FF0010E17
:102350008CF81CE0F0E70524002373601A4B18701A
:102360001A4BC3F80090174BC3F80080B36853B9F9
:1023700006F10802019204220092154915484FF413
:102380008062FEF7DCFD3846FEF74BF906F10C05DE
:1023900001230093284633460F4A4FF47A71FDF724
:1023A000ADFF2846FDF7BCFF04B13470FFF7CAFE4D
:1023B000204607B0BDE8F08F0224E7E75060002018
:1023C000BC750020C4750020B8750020B4750020CD
:1023D00035940F0059210F0051220F0010B5054C04
:1023E0002046FFF777FE2046034A0449BDE8104027
:1023F00005F0D7BAC87500200060002001240F0046
:1024000038B5094D0446286818B1FEF70AF90023CB
:102410002B60064B186808B1FEF7FEFB04F10C00B8
:10242000FDF748FF204638BDC4750020C075002068
:10243000704700000348044B044A0549036005F057
:10244000B0BA00BFDC750020F860002000600020FA
:1024500031240F00034BD3F8002412B1024AC3F811
:1024600000267047000001403546526E03689B68A5
:1024700018470368DB68184710B404682469A44649
:102480005DF8044B604703685B69184710B4046843
:10249000A469A4465DF8044B604708B5043000F019
:1024A0000AF980F00100C0B208BD08B5043000F0A0
:1024B000E4F8400A08BD13B58468E47A640613465C
:1024C0004FEA412109D54FF40073043000F011FAAE
:1024D000003018BF012002B010BD4FF4007200920E
:1024E0000A460146406900F011FCF4E737B58568FB
:1024F000ED7A6D064FEA41214FEA432307D50430B8
:1025000000F0F7F9003018BF012003B030BD009390
:1025100013460A460146406900F0F8FBF5E7836878
:10252000DB7A0146C3F3801010B9486900F09EBB06
:10253000704713B58468E47A640613464FEA412174
:1025400009D54FF40073043000F0F0F9003018BFE3
:10255000012002B010BD4FF4007200920A460146FD
:10256000406900F09BFBF4E737B58568ED7A6D06AE
:102570004FEA41214FEA432307D5043000F0D6F952
:10258000003018BF012003B030BD009313460A4647
:102590000146406900F082FBF5E7000010B50446F3
:1025A000043000F057F8034B23600023636120469A
:1025B00010BD00BF40940F0070B50446043000F019
:1025C000A3F8A368054663B1DB7A5B0609D46369A7
:1025D0003BB941F2040005F013F8064600F040FB59
:1025E0006661284670BD10B50446043000F03BF823
:1025F000606918B105F008F80023636110BDF0B5FB
:1026000000240C25E3B28B420FDA05FB0303177895
:102610009E79B74207D15778DE79B74203D19778D0
:102620001E7AB74202D00134ECE700231846F0BD11
:102630008368002B03DB017B184605F0FBB870476D
:102640008368002B05DB017B184681F0010105F052
:10265000F1B8704701604FF0FF320021C0E901126C
:1026600001220273704710B50446006820B1036868
:102670005B6898470023636010BD406800B1006844
:10268000704713B5006803680DF107025C69052106
:102690000123A0479DF8070002B010BD13B50068E4
:1026A00003680DF107025C6935210123A0479DF8FD
:1026B000070002B010BD08B54368DB7AC3F380138E
:1026C00033B9FFF7DEFF10F0030F0CBF0123002327
:1026D000184608BD4368DB7A5A0610B5044607D48D
:1026E0002046FFF7CEFF830702D004F091FFF7E703
:1026F00010BD0068036806211B691847006803685D
:1027000004211B69184700002DE9F34104460068C5
:102710000D46174620B90026304602B0BDE8F081CC
:1027200003681B68984706460028F4D020680368B1
:10273000D3F8148004230DEB03029F21C0479DF8BA
:1027400005307F2B01BF9DF806308DF805309DF8D0
:1027500007308DF806302DB101AA39462846FFF71B
:102760004EFF606063682BB901AA01214D48FFF755
:1027700046FF606065686DB99DF805309DF80410EE
:1027800049481B0243EA01439DF80610194305F02E
:10279000CBFEC0E7EB7A5A061DD42046FFF771FF47
:1027A000C307FAD46368DB7A9F0604D42046FFF798
:1027B00075FF0506FAD42068036866211B699847EF
:1027C0002068036899211B699847384B4FF4F060E3
:1027D00043F0010398476368354A5B7A20685A439F
:1027E000344B9A4228BF1A4603681146DB68984763
:1027F000206803689B689847636840B1DA7A50079D
:1028000005D591061AD42046FFF748FF19E0DB7A78
:102810009A073CD463681B68B3F1807F3BD920687A
:102820000368B7211B699847042322682046137167
:10283000FFF764FF2046FFF74DFF6DE72046FFF7E7
:1028400020FF63689D7A0540E4D12046FFF751FFE1
:102850006368ADF800509A7ADB7A8DF8012013F0A6
:10286000100F206807D003689D6901230DEB030258
:102870003121A847CEE79B06026848BF012395692E
:1028800056BF02230DEB03026A460121F1E72368DC
:102890000B225A71BEE7B3F1011F34BF0223032399
:1028A000C3E700BF70940F007C940F00A0940F004A
:1028B00040420F000090D00370B5446805460E46B4
:1028C000ACB1E47AC4F380148CB9FFF7B1FE2846AA
:1028D000FFF700FF2846FFF70CFF28680368320364
:1028E000DB692021984704462846FFF7A9FE2046C9
:1028F00070BD2DE9F0411D46436804460F469046E1
:1029000083B1FFF795FE2046FFF7E4FE20680368D9
:1029100042461E6A39462B46B04706462046FFF718
:102920008FFE06B900252846BDE8F0812DE9F04765
:102930001E46436804460F469046002B39D0FFF7E9
:1029400077FE6368DB7A5B0612D52046FFF7D1FE7F
:102950002068036842465D6A39463346A8472046E8
:10296000FFF7CCFE2046FFF76BFE3046BDE8F08750
:10297000B146B9F1000F19D02046FFF7ABFE204653
:10298000FFF7B7FEFDB22068C5F580754D450368B9
:1029900028BF4D46D3F824A042462B463946D0479F
:1029A00020B1A9EB0509A8442F44E2E7A6EB0906EC
:1029B000D8E71846DAE701207047000010B50F4B42
:1029C000012210460132B3FBF2F48C4201D9112AE4
:1029D000F7D10B49D1F8002622F0704222F0FF0215
:1029E000441E0123C1F80026A340D1F80026DBB223
:1029F00043EA00731343C1F8003610BD0048E801F4
:102A00000090024010B586B00446182200216846A6
:102A100005F014FA03238DF80A3002238DF80B30E9
:102A20000A238DF80E300F238DF8113007238DF80F
:102A3000123094F90620174B53F822208DF8042009
:102A400094F9072053F822208DF8052094F90820E6
:102A500053F822208DF8062094F9092053F82220FB
:102A60008DF8072094F90A2053F822208DF80820C9
:102A700094F90B2053F822308DF8093000221146CA
:102A8000684604F037F8044BC31A5842584106B060
:102A900010BD00BFD8940F000000AD0B04F064B966
:102AA00007B502A80022012300F8081D11468DF881
:102AB00001308DF802308DF80330ADF8042004F0B9
:102AC00011F9034BC31A5842584103B05DF804FB97
:102AD0000000AD0B13B5012400202344ADF8040021
:102AE0008DF80010014668468DF801308DF80240DF
:102AF0008DF8034004F0F6F8024BC31A58425841CF
:102B000002B010BD0000AD0B13B501201446034404
:102B100000228DF802008DF803008DF80010684641
:102B200021468DF80130ADF8042004F0DBF8034BAA
:102B3000C31A5842584102B010BD00BF0000AD0B8F
:102B4000202908B50AD0D8290AD10120114604F05D
:102B500081F9044BC31A5842584108BD0020F5E7DB
:102B60000020FAE70000AD0B73B502F00304C4F1D6
:102B700004049C420E46154628BF1C4690B10A46E6
:102B800004210DEB010004F062F90F4B984203D0D1
:102B90000024204602B070BD224601A9284605F057
:102BA00042F9F6E74FF0FF332246294601A8019388
:102BB00005F039F9042132460DEB010004F044F927
:102BC000014B9842E4D1E4E70000AD0B2DE9F84356
:102BD000970780460E4614461D4608D0FFF7C4FFEF
:102BE00010B90020BDE8F883044406442D1A032DD3
:102BF00010D925F00307DFF83C90324639462046CD
:102C0000B8F1000F11D004F022F94845E9D13C4455
:102C10003E44ED1B65B12B46224631464046FFF748
:102C2000A3FF003018BF0120DCE704F00DF9ECE74A
:102C30000120D7E70000AD0B0120FFF7C7BF002040
:102C4000FFF7C4BF034A02600349044AC0E9011206
:102C5000704700BFB0940F00036B11140D150F17D0
:102C600000F580534FF0FF321A60704770B500F5E1
:102C7000805506462B685A1C0ED00C1D2046190B99
:102C8000FFF71AFE4FF48053324629682046FFF7BB
:102C90004DFE4FF0FF332B60012070BD2DE9F74F43
:102CA0001F460B1D06468A46154600F5805B0193BC
:102CB0000C9B3BB3C5F30B09C9F580549C4228BF5C
:102CC0001C4625F47F68DBF8003028F00F084345E8
:102CD0000CD051463046FFF7C9FFCBF800804FF4C7
:102CE0008053324641460198FFF703FE394622469B
:102CF00006EB090005F097F80C9B1B1B27440C936F
:102D00002544D5E7012003B0BDE8F08F2DE9F84F49
:102D1000984600F5805383461C680A9F631C8946C9
:102D2000154632D0944202D9D3199C422DD204F5D3
:102D30008053AB4229D9641B4ABFC4F1000A4FF04B
:102D4000000A0024CAF580513E1B8E42A8BF0E46E1
:102D500034B123464246294609F10400FFF7C9FD74
:102D60000BEB0A01324608EB040005F05CF8A119F0
:102D70008F4207D97B1A08EB0102294409F10400AC
:102D8000FFF7B7FD0120BDE8F88F3B4642462946D4
:102D9000F4E74FF0FF31FDF787BE00231A461946CE
:102DA000FDF744BD03460E4A70B543F88C2B04462C
:102DB0000025C0E92453C0E926350E4680F88C5022
:102DC000782229460C3005F039F8A660257104F107
:102DD000A0010120FDF7AAFDC4F88400204670BDC3
:102DE000A0950F0070B50446D0F884000E46FFF79A
:102DF000D0FF2579E5B906B1A660A168C9B104F193
:102E00000C0003F061FA00280CBF0123002323719A
:102E10000FD1D4F8945004F18C06AE4208D0286942
:102E200008B100F0CCF9284604F001FE0546F4E7AD
:102E30000125D4F88400FFF7B0FF284670BD70B5B7
:102E40000446D0F88400FFF7A4FF2379ABB1D4F88F
:102E5000945004F18C06AE4209D0286910B10121CA
:102E600000F024F9284604F0E2FD0546F3E70023CC
:102E7000237104F10C0003F025FAD4F88400BDE8B6
:102E80007040FFF78ABF0079704770B506460C4660
:102E90004CB1E1683046FFF7F8FFA568204604F022
:102EA000B3FB2C46F4E770BD38B50546064B45F834
:102EB000883B0446FFF7C3FF2846D4F89010FFF77D
:102EC000E4FF204638BD00BFA0950F0010B50446B2
:102ED000FFF7EAFF204604F097FB204610BD13B52C
:102EE00002AB026803F8011D546819460122A0478D
:102EF00002B010BD4FF0FF3070474FF0FF31FDF7CB
:102F0000D3BD00231A461946FDF790BC10B583695E
:102F10000446D3F88400FFF7F0FF216A29B1237F2C
:102F20001BB9A0690C3003F00DFBA369BDE810408C
:102F3000D3F88400FFF7E5BF2DE9F041D0F89020E9
:102F400000F18C0805460E464446012352B1136930
:102F5000B3428CBF9168D16814468CBF0123002313
:102F60000A46F3E76BB1D5F89430A34205D020466A
:102F700004F071FD0369B34219D2A04503D10127C2
:102F800006E02046F6E72769B74294BF00270127ED
:102F9000142004F035FB43460146066122463846BC
:102FA00004F05BFDD5F89C300133C5F89C30BDE8DA
:102FB000F081000010B54FF47A7400220461054CD2
:102FC00042600460816102774262C0E90B220262C2
:102FD00010BD00BFB0950F0038B504460025A069AC
:102FE000FFF751FF70B9A369D3F88400FFF789FF99
:102FF000642004F0C3FAA369D3F88400FFF77DFFCF
:103000000125ECE7284638BD2DE9F8430446271D85
:10301000D4F808E008463E467346FBB11A690568D5
:10302000AA4204D2DA6833461E461346F5E79A6888
:10303000FAD8D86852B111698D428ABFD2F80CC053
:10304000D2F808C01A4613466246F3E738B102695F
:10305000954236BF0646C0688068F7E73346E568A4
:10306000D4F814809D420FD1B7420ED1714620464C
:10307000FFF70BFF0023C4E90237C4E9047360695A
:10308000A8EB0000BDE8F8831D46AE42F7D0284605
:1030900004F0CDFC39468146284604F040FD04F09A
:1030A000B3FA6369013B63614D46EEE7036A37B5E6
:1030B00004460D46B3B1237F806913B3FFF7E3FEE7
:1030C00058B12DB1A069216A0C3003F075FB606224
:1030D000A069216A0C3003F01BFB206AFDF7A1FAFE
:1030E000002323625DB9E06A10B1FDF79AFAE56248
:1030F000A06902A9883041F8044DFFF785FF03B0AD
:1031000030BDFFF7C0FE0028E7D02DB1A069216ACD
:103110000C3003F077FA6062A069216A0C3003F08A
:10312000F9F9DAE72DE9F041044688461546DAB1A7
:10313000012A1BD0022A27D140F203565420FDF762
:1031400054FA206270B1A76942460146334607F13E
:103150000C0003F0C1F9024658B120460021FFF7E8
:10316000A5FF0020BDE8F0810126E7E740F2031645
:10317000E4E7013D012D05D8A069216A02230C3046
:1031800003F028FA002323770120EBE738B5044643
:1031900034200D46FDF729FA206260B1A36901468B
:1031A0002A4603F10C0003F05DFA28B12046002105
:1031B000FFF77CFF002038BD01202077FBE7036A82
:1031C00070B5044613B10125284670BDC36A0BB91A
:1031D0000025F9E7FFF700FF28B1236A002BF2D1A1
:1031E000E36A002BF4D0267FE16A66B12046FFF740
:1031F000CDFF05460028EBD0A069D4E908120C30B9
:1032000003F093FAE0E794F828202046FFF78AFFBE
:1032100005460028DCD0A0693346D4E908120C30FA
:1032200003F0D8F9D0E770B583690546D3F8840078
:103230000C461646FFF761FE2846FFF7C0FF88B12F
:103240002B7F7BB9A869296A224633460C3003F0EC
:10325000A9F920EAE074AB69D3F88400FFF751FEC6
:10326000204670BD0024F6E770B583690546D3F8A3
:1032700084000C461646FFF740FE2846FFF79FFFE6
:1032800040B12B7F73B9A869296A334622460C30B6
:1032900003F070F90446AB69D3F88400FFF731FE00
:1032A000204670BD0024F6E707B501220DF10701A5
:1032B000FFF7DAFF0028CCBF9DF807004FF0FF3082
:1032C00003B05DF804FB73B583690446D3F884004A
:1032D000FFF713FE2046FFF772FF40B3257FA0697A
:1032E0002DBB216A0C3003F08DF902AA0646A069B5
:1032F00002F8015D0123216A0C3003F03BF900283C
:10330000A069216AC8BF9DF807504FF000033246FC
:1033100000F10C00D8BF4FF0FF3503F05BF9A36953
:10332000D3F88400FFF7EDFD284602B070BD4FF0E2
:10333000FF35F4E738B583690546D3F88400FFF715
:10334000DCFD2846FFF73BFFA0B12B7F93B9A869AE
:10335000296A0C3003F06AF90446A869296A0C301E
:1033600003F050F9241AAB69D3F88400FFF7C9FDC4
:10337000204638BD0024F6E738B583690546D3F802
:103380008400FFF7BAFD2846FFF719FF30B12B7F05
:1033900063B9A869296A0C3003F048F90446AB699F
:1033A000D3F88400FFF7ADFD204638BD0024F6E7D2
:1033B000F0B504468DB00F4600211546FFF776FEA6
:1033C000A06901AA39460C3003F060F830BB9DF8C3
:1033D0000430012B1DD12A4639462046FFF7A2FEB4
:1033E0000646E8B12146A069FFF7A6FD022D08BFF9
:1033F000012584F82850384605F04AF90546E06270
:10340000B8B12F2105F067F9002808BF28462063CE
:1034100007E039462046FFF7B9FEE1E7023003D066
:10342000002630460DB0F0BD6B1EDBB2012BF7D885
:10343000D1E701462046FFF739FE2E46F1E770B589
:10344000836904460D46D3F884001646FFF755FD00
:10345000294632462046FFF7ABFFA3690546D3F85D
:103460008400FFF74EFD284670BD10B58369044601
:10347000D3F88400FFF741FD20460021FFF716FE38
:10348000A369BDE81040D3F88400FFF73ABD0000FF
:1034900010B5034B03600446FFF7E7FF204610BD5D
:1034A000B0950F000368013304D04068431C5842B4
:1034B000584170470120704710B50B6804689C4262
:1034C00009D040684A68904205D0944203D0181A47
:1034D00018BF012010BD0020FCE740F30903B3F141
:1034E000FF3F08BF0130C0F309000430704710B53A
:1034F000031F0439083053F8042F51F8044F834256
:1035000082EA04021A60F6D110BD036833B942683A
:1035100022B98068B0FA80F04009704700207047F7
:1035200008B503681B0D13F4E06306D00430FFF701
:10353000C3FFB0FA80F0400908BD1846FCE700B9A7
:103540007047884201D00068F9E701207047836E18
:103550001A6A436DD31A1944B1FBF2F302FB13113B
:10356000836D8B4210B50BD94C09426E012301F0DB
:103570001F0103FA01F152F824300B4342F82430C2
:10358000002010BD164A036830B511F0805F154C5D
:1035900083EA010518BF144625421FD043F30904EE
:1035A00001341BD001EA02040F4A1A4042F09F4244
:1035B00042F4E002944211D00A0D02F4E064B4F542
:1035C000806F09D1C3F38924C1F389218C4203D3CD
:1035D00052B203EB82230360002000E0012030BDE3
:1035E00000FCFF7F00FC0F7000FC0F00024608B5D6
:1035F0000846FFF772FF136818441060002008BDEA
:1036000003680133036000207047836E1B6B10B5A5
:10361000044613B9C068FDF704F8A36E5B6B13B9D9
:10362000E069FCF7FEFFA36E9B6B13B9606EFCF7BD
:10363000F8FF002010BD10B50C46826AE068FF213B
:1036400004F0FCFB4FF0FF33236010BD38B5044697
:103650000D46A166496931B9644B654A40F6A851E7
:10366000644804F04BFBAA6922B9634B604A40F6F8
:10367000A951F5E7A86A20B9604B5D4A40F6AA5106
:10368000EEE7B0FBF1F301FB130323B15C4B584AA7
:1036900040F6AE51E4E7B0FBF2F302FB130323B1B3
:1036A000584B534A40F6AF51DAE7EA69B2FBF0F300
:1036B00000FB132323B1544B4D4A4FF45B61CFE71A
:1036C000A2F108014FF0FF33B3FBF1F3013BB3FA72
:1036D00083F3C3F12003B2EB830F04D24B4B444A74
:1036E00040F6B451BCE76B6A23B9494B404A40F6F7
:1036F000BC51B5E72B6BA3B1E3606B6BE3B1E36146
:1037000028462146FFF797FFA06E04F11001FFF74E
:1037100092FFA56EE86AB0B93E4B354A40F6DA51E1
:103720009EE7FCF762FFE0600028E6D12046FFF745
:103730006CFF6FF00B0057E0A86AFCF756FFE061E2
:103740000028DDD1F2E7410702D1AB6B9A0704D024
:10375000314B274A40F6DC5182E743B16366EB6B9D
:10376000202B0AD92D4B224A40F6E85178E7FCF786
:103770003CFF60660028F2D1D8E743B1E3662B6CCA
:10378000002B06DA264B1A4A40F6EE5168E7202352
:10379000F4E708BF6FF0004323676B6C40F2FE3222
:1037A000934204D91F4B124A40F6F45158E7002BBC
:1037B00008BF13466367AA6CEB699A4204D91A4B97
:1037C0000B4A40F6FA514BE700204FF0FF33C4E9B3
:1037D0000833C4E90A00C4E90F00C4E90C00C4E9D5
:1037E00012006064A063206538BD00BFEF9A0F002F
:1037F00054960F00089B0F00879B0F00A09B0F00A3
:10380000BA9B0F00EA9B0F001A9C0F004B9C0F0005
:10381000979C0F00B39C0F00D09C0F00249D0F00BD
:103820003D9D0F005E9D0F00799D0F00026A8A4248
:1038300008B505D8074B084AF521084804F05EFA98
:10384000C3689847002803DD054B034AF721F4E7D6
:1038500008BD00BF70970F0005960F00089B0F0072
:1038600023970F0008B50368C3F3090242B9002982
:1038700006DA0A4B0A4A0B4841F2070104F03EFA05
:103880001944C1F30903003318BF012321F000419B
:1038900041EAC3710160002008BD00BFBD9A0F005E
:1038A0005D960F00089B0F00F8B5C5690E68083DCE
:1038B0000F46B6FBF5F080B1013804F00BFA841C1A
:1038C000A6EB8404B4FBF5F4204604F003FA04FBF1
:1038D0001565A5EB80053D602046F8BD2DE9F04F4C
:1038E000904685B002680393DDE90E94136A029056
:1038F0004B458A46DDE9107603D9D269A319934274
:1039000022D96FF0530063E0BAF1000F3FD0DAF82C
:10391000003099453BD1DAE9015305EB030BA34590
:1039200035D9A54214D8ABEB040BB345DAF80C102B
:1039300028BFB346651B38465A46294404F073FA3B
:103940005F445C44A6EB0B06002EDDD130463FE021
:103950002D1BB54228BF3546D8F8003099451CD1FB
:10396000D8E901130B449C4217D28C4211D31B1B84
:103970009D4228BF1D46D8F80C30611A2A461944CA
:10398000384604F050FA2F442C44761BDCE73546C9
:10399000E2E7091B8D4228BF0D46029B1868039B76
:1039A000B34218D84369B4FBF3F203FB124292B955
:1039B0009E4210D3B5FBF3F203FB1253ED1A0095B0
:1039C000D0F804B03B4622464946D8470028DAD012
:1039D00005B0BDE8F08F036A994505D3194B1A4A23
:1039E0005B211A4804F08AF94169039DB4FBF1F2A6
:1039F0004B1E2B44234401FB1242B3FBF1F501FBA8
:103A000015315B1AC169C8F80090A21A8B4294BFA5
:103A1000C2EB0303C2EB0103816AC8F804208B42A6
:103A200028BF0B460093C8F808304568D8F80C301A
:103A30004946A847002803DD054B034A6621D0E725
:103A400082D0C5E770970F00D4950F00089B0F0038
:103A500023970F002DE9F04F9A46D1E9036389B00F
:103A600007463C30079388460592FFF759FD059BB2
:103A7000C3F3892900287ED0B9F1000F7DD0FC6BFB
:103A80003F4BC4F38924CAF38920844294BF1C4667
:103A9000002407F1680B079D2846FFF71EFD031D54
:103AA000B34233D8361A07AA0423CDE90162D8F805
:103AB0000020009203933A4600215846FFF70EFF7C
:103AC00030BB079B1BBA6B4023F000430793B9F14F
:103AD000000F23D02A0D02F4E063B3F5806F1DD1EF
:103AE000AAEB0403C3F38920C5F38921884215D3C7
:103AF00023F07F4323F4700323F47F7323F0030345
:103B000043F0804343F48013AB4204D16FF00100D3
:103B100009B0BDE8F08F52B204EB8224AAEB040195
:103B2000059B69401940B6D145F309030133EDD037
:103B3000149BC5F30909994528BF9946139B029325
:103B4000129BCDF80C9004331E44D8F8003000933B
:103B500001964B463A465846FFF7C0FE0028D7D19B
:103B6000149BA3EB0902139B014603EB090004F02D
:103B700065F96019CCE704468BE74C4689E700BF3E
:103B800000FCFFFF1FB5C3F309040294069C0194D7
:103B900000240094FFF75EFF04B010BD30B587B07D
:103BA00003AC15460094084B084AFFF7EBFF0028CA
:103BB00004DA831C08BF002007B030BD2846214628
:103BC000FFF795FC0020F7E70C00F07F0000F07F86
:103BD0002DE9F04F95B092461D46BDF88820209BF8
:103BE0000D92BDF990B0BDF88C200E92DFF87C915B
:103BF0001E9EC3F38F220C924FEA8B220746884603
:103C00000B9203EA09092846FFF767FCD8F80C3045
:103C100000EB0A049C4250D211AA0423CDE90142D0
:103C2000D8F80020009203933A46002107F168007B
:103C3000FFF754FE00283DD1119B1BBA5D40D8F818
:103C40000030129345F00045231DA24611951393B1
:103C500012AC119B219A534013EA0903D3D10C9A59
:103C6000002A35D11199C1F30A53002BCBD040F271
:103C7000011293424CD1269A0892C1F30903259A66
:103C80000792C1F389215A1CC91ACDE90432354B78
:103C90004FF00052594409B2CDE902320022069198
:103CA000CDE900224FF0FF3321463846FFF790FF61
:103CB0000028A8D015B0BDE8F08F1F9B002B4EDD6B
:103CC000336811931F9B7468013B08361F93C0E74C
:103CD00011AA0892244ACDE90433CDE90632CDE990
:103CE00002331F9B5246CDE9006341462B463846BE
:103CF000FFF76EFF0028DDDB85D1119B0D9AC3F322
:103D000089239A423FF67FAF0E9A9A42AAD87AE761
:103D1000B3F5817F1CD100231199C1F309029342AD
:103D2000BFF471AFA26820780F93C1F38921594481
:103D300042EA812100F54070626841EA0051DDE904
:103D4000253098470C340028B4D10F9B0133E3E7AA
:103D50000B9B22461944DDE925309847A8E700204F
:103D6000A8E700BF00FC0F6085350F000000F07F62
:103D700030B5134687B00268054604AC0820916E42
:103D800003900294586801901B680093CB6902F17C
:103D9000680002F11001FFF7A1FD30B9291D20468E
:103DA000FFF78AFB003018BF012007B030BD0000CC
:103DB0002DE9F04F97B016460B931368826E126A86
:103DC000934207460C4680F0EB8171688A4240F2CC
:103DD000E78100F16802002104924FF0040810AA64
:103DE000CDE90112009302464346CDF80C800498B9
:103DF000CDE91011FFF772FD4346054618B110F1E9
:103E0000540F40F08E8103934FF0000811AB0293E2
:103E1000CDF80480736800933A4604234146049821
:103E2000FFF75CFD054600284FD010F1540F40F01D
:103E3000788156F82830236088F00103099356F8FA
:103E40002330636016AB03EB8808022258F8183C55
:103E5000A3600023E3600A924FF0FF350893B34A52
:103E600092E8030012AB83E80300042204F1080186
:103E70004FF0FF3002F0A2FC0023079305934FF0B0
:103E8000FF330D90A84606934FF0000A0698FFF7FF
:103E900024FB0DF1380B8244BB6E22680092CDE901
:103EA00001AB4FF00409CDF80C90DB6904983A4659
:103EB0000021FFF713FD0646B0B116F1540F40F094
:103EC0002F819DF82030A37532E0DDE91023A3EBAC
:103ED0000208B8F1000FD4BF4FF000084FF00108FE
:103EE000A7E701230A93BAE74A4659460D9802F01C
:103EF00065FC0E9B069A0D901BBA82EA030BBBF180
:103F0000000FCDF838B02EDA4FEA125A0AF4E06A00
:103F1000BAF5A06F09D1BB6EE2689B69B2FBF3F6FC
:103F200003FB1626B6FA86F6760906F00106A67594
:103F3000E368002B00F01C81214607F13C00FFF7ED
:103F4000EFFA002800F0FF80FB6BC5F38922C3F372
:103F500089239A4240F0F08045F00045219B002BD8
:103F600040F0F380FBE05846FFF7B7FABB6EDB6921
:103F700050449842A5D84FEA1B5202F4E062B2F5D1
:103F8000A06F3FD10FAA02920AF1040201922268A7
:103F900000923146CDF80C903A460498FFF79EFC0B
:103FA0000646002889D10F9A0D9B9A4289D10E9B13
:103FB000F86A1B0D4A460DA98BEAC37B02F0FEFB93
:103FC000F8620E98FFF789FABDF81430A382129BAD
:103FD000A3615044139BE361C4E9030B9DF81C30BB
:103FE000E3754FF0FF330D9343464546CDF818B0C7
:103FF00098464BE701220FA90D9802F0DFFB09F16B
:1040000001090D900E98FFF768FA4845236817D903
:104010000121BA6E03910FA9029109EB0A01CDE9C2
:1040200000310498D36900213A46FFF757FC064651
:104030000028DFD010F1540F72D19DF82030A37505
:104040000E9B1A0D12F4E0611ED1059AC3F3892369
:104050009A4201D8013305930E99209A0B98236850
:104060004A4002420DD114930AF10403159314AA95
:10407000DDE922309847061EFFF61FAF0E9B3CD1AC
:1040800098464346A846B0E7B1F5806F1CD1059924
:1040900052B2114489B20591254908EA010141F063
:1040A0009F4141F4E0018B4202D148F00048D3E740
:1040B000B8F1FF3FD0D0C3F38923C8F389218B42E5
:1040C000CAD808EB8228C7E7B1F5C06FC4D102F0A7
:1040D000010308220793BB6E039212AA02920AF10F
:1040E0000402019222680092DB6904983A4600219A
:1040F000FFF7F4FB5430AFD1E3E60E4988EA030240
:104100000A420AD0022EBCD1C8F38922C3F3892106
:104110008A42B6D343F00048B3E74FF0FF38B0E728
:104120003546284617B0BDE8F08F00BFCC950F008C
:1041300000FC0F0000FCFF7F691C3FF40FAF9A42A8
:1041400088BFA5F58065219B3BB1A28AC5F3892371
:10415000934228BF1346219A1380002DE1DAA38AE7
:10416000C5F38925AB4294BF00256FF00105D8E760
:10417000099916A800EB8101D4E9002351F8181C15
:10418000A1600A990129C4E900327FF4AAAE064968
:104190000648CDE9002140F23A42054904F0C4F94D
:1041A0006FF05305BDE700BF9A9F0F00EE980F0018
:1041B000089B0F002DE9F04701230024C2E90643C4
:1041C000DFF86080DFF86090DFF860A088B0064616
:1041D0000F46154605F118021046FFF763F910B1B6
:1041E0006FF0010018E0B36E1B6AB4EB530F16D2E8
:1041F0003B6806937B68079305ABCDE90283CDE965
:10420000009053462946304601340596FFF7D0FD0D
:104210000028DFD0831CDDD008B0BDE8F0876FF048
:104220005300F9E7713D0F0008000020FF03F07F05
:104230001FB50023CDE9023301934FF0FF33009304
:10424000FFF7B6FD05B05DF804FB2DE9F041012351
:104250000024C2E9064307468846154602F11806BF
:104260003046FFF71FF910B16FF0010011E0BB6E8F
:104270001B6AB4EB530F0ED2414630460134FFF7B0
:104280001BF930B1324629463846FFF7D1FF0028E6
:10429000E6D0BDE8F0816FF05300FAE72DE9F04F6A
:1042A0008DB080460E460692146805931BB1059AA0
:1042B00040F2FF331380D8F82030B361DFF82CB11F
:1042C000D8F82430F3614449204604F018FA251840
:1042D00082464149284604F0C8F90128074605EB03
:1042E000000905D114F80A202E2A0AD14C46EAE723
:1042F000022806D102463949284603F085FD0028E8
:10430000F4D04C464FF0010A3349484604F0F7F91F
:1043100081443149484604F0A8F9034698B102287F
:104320000DD1024607902D49484603F06DFD079BCD
:1043300028B9BAF1010A04D109F10204C3E70AF16C
:10434000010A9944E0E72A78002A3ED0069B4FEA0A
:104350001B52022A1D603CD1CBF3892340F2FF326D
:10436000934206F1180923D10DF1240A2F21284682
:1043700004F066F9059B1A4ACDF80CA0002818BF76
:104380000023CDE9013200974FF0F0434A46314611
:104390004046CDE909850B97FFF70AFDB0F1000B08
:1043A00013DB90D1F37D002BE0D16FF0010B0CE01B
:1043B0000C4ACDF8009042EA832331460A4A40462F
:1043C000FFF7E0FBB0F1000BCEDA58460DB0BDE8C8
:1043D000F08F6FF0130BF8E723990F0025990F006A
:1043E0007F460F000800002000FC0F7000FC2F002B
:1043F0002DE9F04788B01E46DDE9103889460746AA
:1044000008A9013B41F80C3D57F8680F9246FFF7A9
:104410004BFA054631461298C047024610BB0DB311
:1044200005F00104C4F10204A30006A9CDE90101CD
:1044300052460393009649463846FFF74FFA024624
:1044400080B9661E964206DC08AB03EB86062D1B80
:1044500056F8086CDEE706991298C047012200283A
:10446000F0D00246104608B0BDE8F087F0B51C4613
:10447000C36E85B09602013304F108020092334303
:10448000134A05460F46FFF77DFB002816DB02ABFB
:10449000000D009346F00053207043F008030D4ACE
:1044A00039462846FFF76EFB002807DB030D40F274
:1044B0000222934204D1039B6360002005B0F0BD4B
:1044C00040F20122934204BFC0F309006060F4E7A8
:1044D00000FC0F7800FC0F702DE9F04F89B0054605
:1044E00089460592139F43B94FF0FF323A60149A00
:1044F0000020136009B0BDE8F08F08A9013B41F826
:10450000043D806EFFF7D0F912A9064655F8680FF2
:10451000FFF7CAF94FF0040A80460DF1140BB045BD
:10452000059A02D33A60129BE1E7A6EB0804B4FABD
:1045300084F496FAA6F3B3FA83F3C4F11F049C4201
:1045400028BF1C46A300CDE90023CDE902BA04230D
:104550004A4600212846FFF7C1F90028CAD10123A5
:1045600003FA04F4361BDAE72DE9F04F87B0DFF8E1
:10457000A4B0119C139E0746884615466FF00109AA
:1045800003F1FF3A0EB9304641E02B68E868023388
:1045900018D1D5E901130B449C4213D28C4211D39C
:1045A0001B1BB34228BF3346611A1A4601441298B6
:1045B000059303F038FC059B129A1A4412921C448E
:1045C000F61ADFE7D7F868C0C5F80090DCF81410D9
:1045D000B4FBF1F20AEB0103234401FB1242B3FBEB
:1045E000F1FE01FB1E315B1ADCF828108B4228BF5C
:1045F0000B46A21ACDE901036A60AB600092109BE2
:104600005A4641463846FFF725FA0028BADA07B07D
:10461000BDE8F08F00FCF7FF2DE9F04F87B0894629
:10462000129E92461F46002400F1680B0DF11008FF
:10463000A64201D800201BE0351B109B082D28BF87
:104640000825E318CDE90073CDE90285AAEB040340
:104650004A4600215846FFF741F948B9119B2A46BE
:104660001919404603F0D0FB002804D005DB0220D6
:1046700007B0BDE8F08F2C44DAE70120F8E730B549
:104680000446C1F30905A368216885B0AB4228BF81
:104690002B46104602931A466368019343680093C1
:1046A00003680846FFF7B8FF28B9A368AB4202D0F9
:1046B0002CBF0220012005B030BD00002DE9F043E1
:1046C0000D46096898468B1C012B85B00646174697
:1046D0003FD9806E036A994205D3204B204A94212A
:1046E000204803F00BFB8269AC681444013CB4FB26
:1046F000F2F302FB1343E41A0094D0F80890EB683D
:104700006A68C847B0F1000903DD174B144A9821C5
:10471000E6E706D1B8F1000F07D12946B06EFEF7E3
:104720008AFF484605B0BDE8F0834FF0FF333B6099
:10473000EB6801936B68009302942B68224639461C
:104740003046FFF769FF002806DBE6D06FF053091B
:10475000E7E74FF00009E4E78146E2E72C970F0016
:10476000E0950F00089B0F0023970F002DE9F74FEE
:10477000DDE90C8418F1020F914607460D469A4672
:104780000F9E826E08D0136A434505D82B4B2C4AE6
:10479000C9212C4803F0B2FAD269A319934204D874
:1047A0004FF0000B2EB9304633E0274B244ACA2184
:1047B000EFE72A6890452FD16868A0422CD8BB6EDD
:1047C0009B6A03449C4227D21B1BB34228BF33463B
:1047D0001A460193EB680E99201A184403F023FB44
:1047E000019B0E9A1C441A44F61A6B680E92AA6832
:1047F000E31A934238BF1346BA6EAB60926A934293
:10480000D0D153464A4629463846FFF757FF00287D
:10481000C8D003B0BDE8F08F013203D00B4B084A7B
:10482000E721B6E7BB6EC5F800809A69B4FBF2F3E6
:1048300002FB1343E31AC5E9013BB3E752970F00AC
:10484000F9950F00089B0F008E970F00B1970F008E
:10485000F0B585B0CDE902231D464B6801930B6886
:1048600000930C4617460023024600F11001FFF7A3
:104870007DFF064640B92A463946E06801F09EFFB2
:104880006368E0602B446360304605B0F0BD2DE9FD
:10489000F04F804689B01046174699460C46FEF701
:1048A0001CFE4B684A6903449342064642D88B6813
:1048B00027F0004A08AA8AEA03031BBA42F8043D1B
:1048C00040460423FFF7C4FF054660B9002FA6F158
:1048D000040628DB33464A4621464046FFF7B8FF28
:1048E00058BBC4F808A0284609B0BDE8F08F0123E2
:1048F000CDE902B3D9F8043005983B440193D9F8C7
:10490000003000934246F31B0021FEF7E7FFA0B9F9
:1049100001235A4621464046FFF79AFF68B90137FE
:10492000B742E4D3DDE708F16803074605930DF1CC
:104930001B0BF5E76FF01B05D5E70546D3E71346DC
:104940000A46D0E90001FFF7A2BF0000836E2DE9FF
:10495000F04F9A694D68154407358DB0B5FBF2F3F9
:1049600002FB1353ED1A002305939B46A5F10803A0
:1049700007460E4606937468AC4219D339464FF089
:10498000FF3341F8103B3A4600233846FFF796FEC6
:104990008046002840F0BF80B86E03699847B0F1A8
:1049A000000873DD5F4B604A6048BE2103F0A6F942
:1049B00004F1040AA5EB0A0440F2FE339C4294BFC2
:1049C00054440AEB0304AC4203D2069B9C4228BF2A
:1049D0001C460CAA4FF0FF3342F80C3D0423CDE9EE
:1049E00002233268009201943A46002107F16800E0
:1049F000FEF774FF804618B110F1540F40F08B8021
:104A0000099BF0681BBA6FEA0309A4EB0A044FEA9A
:104A1000D97344F47F2403F5A06344F4406444EA6A
:104A20000354B36809945C4023BA0CAC042244F8E4
:104A3000083D214601F0C2FE0823CDE90243736818
:104A400001933368F0600B9000933A46002307F11E
:104A500010013846FFF78AFE804600285BD1716856
:104A6000BBF1000F03D1F368059301F1040B099B1F
:104A700009F00049C3F30902043289EA03030A4436
:104A8000B3604FF0FF337260F36074E743D107F116
:104A9000680334690793D946AC423CD209F1040358
:104AA0004FF0FF3A06931AE0A34502D1059B534508
:104AB0002ED1012303930AABCDE901433368009360
:104AC000069B07981B1B3A460021FEF707FF08BB11
:104AD000504601220AA901F071FE01348246069B6C
:104AE000A342E1D8BAF1000F19D1A5EB090440F2B5
:104AF000FE339C4294BF4C4409EB0304AC4204D205
:104B0000A5F108039C4228BF1C4604F10409C3E731
:104B10006FF05300804640460DB0BDE8F08F6FF057
:104B20005308F8E723970F00ED950F00089B0F003F
:104B30002DE9F04F8FB004460D46164600211C2289
:104B400006A89946DFF838A103F078F901230D9300
:104B50004FF000080CA8FEF7A5FC20B1A76A002FB3
:104B600058D1384644E0A36E1B6AB8EB530F80F06F
:104B700082800C99304608F10108A847002837D1F7
:104B80000D993046A847002832D10CAA06A9204624
:104B9000FFF74EFB60BBDFF8ECB00746BDF82C20FA
:104BA000BBB29A42D6D9354B04AA03EA87230092B6
:104BB00043EA0B03524606A92046FEF7E3FF00280E
:104BC00003DA831C14D10137E8E7000D40F2022319
:104BD000984210D1059B002BF5D00093CDE90156EA
:104BE000049B224600212046FFF702FC0028EAD061
:104BF0000FB0BDE8F08FB9F1000FE4D0B0F5007F41
:104C0000E1D104993046A8470028F1D105993046F2
:104C1000A847EBE7BB79012B01D03F689FE73B6BCF
:104C200003F48813B3F5803F15D03B6B03F4901366
:104C3000B3F5003FF1D17B6B002BEED0CDE90156EF
:104C40000093BB6B224607F140012046FFF7D0FBE3
:104C50000028E2D0CCE7FB6A002BE6D0CDE9015674
:104C60000093BB6A224607F140012046FFF7C0FBD4
:104C70000028DAD0BCE76FF05300B9E700FCFF036F
:104C800000FC0F70080000202DE9F341364D04466A
:104C90000E460127A36DD4E917219A420ED1626D09
:104CA000134400293AD1314A0092314931484FF436
:104CB0000F7203F039FC6FF01B0026E00139501C25
:104CC00021664FEA521C616EE06551F82CC002F07B
:104CD0001F0007FA00F010EA0C0FDCD1636D1A44D4
:104CE000A36E186AB2FBF0F300FB13223260A66DCC
:104CF0000125E36DB34235D05A0903F01F0051F886
:104D0000222005FA00F0104002D102B0BDE8F08187
:104D10000133E365236E013B2366EAE7A06ED0F81A
:104D200020C0B3FBFCF20CFB1233C26A63654FF088
:104D30000008D3008B4294BFA365A165C4F85C80D2
:104D40004146606E03F07AF8012322462946204648
:104D5000FFF7EEFE00289DD0A36E1B6A2366C4E910
:104D60001688D2E70020D0E74F350F009A9F0F003A
:104D7000089B0F00FC960F007FB50C4604310646D9
:104D8000FFF782FF054698BB21463046FFF77CFFC0
:104D9000054668BB2246042342F8080FCDE90223EA
:104DA0002268019000920146324606F16800FEF743
:104DB00095FD10B110F1540F1DD1B36E5A6A002A3F
:104DC0000BDDA368013242F00102013B1344B3FB47
:104DD000F2F102FB11329B1AA3604FF0FF32042361
:104DE000C4E90622C4E903320023A382A375E37554
:104DF000284604B070BD0546FAE700002DE9F04FE3
:104E0000DFF81CA1DFF81C9187B004460D4605A908
:104E10002046FFF739FF074648B90599A06EFEF70F
:104E200005FD0746002864D010F1540F67D03846BE
:104E300007B0BDE8F08F2A6BD202A3EB06032BD597
:104E4000AA884AEA822EA26ED2F81CC0701C844541
:104E500005F108014AD3012003900DF11300CDE9BB
:104E60000160CDF800E042462046FFF77DFB88B99F
:104E70000DF113020123CDE90162059A009203931B
:104E8000224604F110012046FFF770FC90B110F1AA
:104E9000540F34D00746CAE7012203920DF11302E2
:104EA000CDE90162AA6B0092414622465846FEF7C0
:104EB00015FDDCE70136EB6BB342BCD8A36EE169AC
:104EC0009A6AE86C02F0AFFF23692B6463696B6434
:104ED000A369AB6404F11001A06EFEF7ACFB059B67
:104EE000AB632B6B43F400332B63A0E76FF05300ED
:104EF000D0E7064605F1400804F1680BDBE7059BA7
:104F0000CDF8009040F6A1220349044803F00CFBC1
:104F10004FF0FF3323617AE7089B0F00EF990F00F2
:104F2000000010209A9F0F002DE9F04F9B460B6B5D
:104F30008FB09F0706460C46069206D4A84BA94A96
:104F4000A94840F6883102F0D9FE5D031BD4276BD7
:104F5000390521D4D4F83480326F08EB0B0191422B
:104F600000F2768117F400371CD0236BDA022CD4C0
:104F7000CDF810B0049A236B002A4DD123F40023FE
:104F800023635D4604E000F067F905460028DED0A3
:104F900028460FB0BDE8F08FE26A616B8A4288BF95
:104FA0006263D7E7E36A9845DFD96363636B98452B
:104FB000DBD901230DF12B02214630468DF82B70F1
:104FC000FFF7B2FF051EF1DAE2E7656BE36AB16E47
:104FD00005EB0B00984238BF18468B6C8A6ACBB140
:104FE00040F2FE37BA424FEAD30328BF3A46934213
:104FF00028BF13468342BBD20B6AE5632146336662
:105000003046FFF7FBFE236B054630BB23F48013CD
:105010002363ADE7CB69E3E713F4003104D0B26E4C
:10502000E06BD269904250D1DB02626B00F1FB80F1
:1050300004F1400AC9B9C2B104F13C030293013A38
:1050400004F13803019300925146D4E90A23304613
:10505000FFF742FA054620B1236B43F40023236394
:1050600096E75146B06EFEF7E6FAB36E1B6A3366FA
:10507000A36B0793636B05930BA93046FFF704FE00
:1050800005460028E8D10B99B06EFEF7CFFB054628
:1050900078B115F1540FDFD1544B00934FF41762E0
:1050A0000B9B5149524803F03FFA4FF0FF33236402
:1050B000E2E7059BB06E002B2DD10B9BA363059BF4
:1050C000E363236B43F400332363B36EDF69E36B65
:1050D000FF1A049B9F4228BF1F4604F14008069B0D
:1050E0000293E36B0193A36B009303970123324672
:1050F00041463046FFF73AFB0546002800F098800D
:1051000010F1540FA8D121463046FFF777FE05462F
:105110000028E4D0A0E7059B0EA9013B41F8083D1B
:10512000FEF7C2FBB26E0C9BD269013393420C9323
:1051300060D1471C97FAA7F7B7FA87F77B1C0DF1E8
:1051400038090893079B49F8043DA8464FEA8803AD
:1051500009930423CDE90293099B01930B9B0093D0
:105160003246012351463046FFF700FB0D9B0546B2
:1051700000288ED1474545D1089B08F101084345D9
:10518000E4D80B9BA363089B9B0099E7079A0092C6
:10519000CDE90279CDF80480A3EB08033246002163
:1051A0000898FEF79BFB054600287FF455AF0B9B44
:1051B0000093CDE90279CDF80480012332465146AF
:1051C0003046FFF7D3FA054600287FF462AF08F1B6
:1051D00001080C9B4345D9D80B9AA26370E700BF26
:1051E000C2990F0042960F00089B0F009A9F0F0074
:1051F000EF990F0006F16803A84608934FF00109E4
:105200000DAFE6E70422CDE90292099A0146CDE905
:10521000003206F1680004233246FEF75FFB0546C4
:105220000028A9D018E76FF00103C4E90E3248E75F
:10523000636B3B446363E36B3B44E363069B3B4428
:105240000693049BDB1B0493B36E1B6A336691E6E3
:105250006FF01A059CE600BF2DE9F0430B6B0C467E
:10526000590399B0054608D5DA0258BF4FF0FF320E
:1052700023F4802358BF22642363216B11F4003090
:1052800039D011F48011666BE76A4ED1542203A81D
:1052900002F0D4FDA36ACDE90D370123CDE90F3625
:1052A00095E80F0013AF87E80F004FF0FF372F602E
:1052B000626BE36A9A4221D3DFF89490DFF894801E
:1052C000224F01232A4604F140012846FFF7F6F950
:1052D00078B310F1540F0ED14146CDF80090A36B76
:1052E0004FF42F62384603F01FF921462846FFF796
:1052F00085FD0028E5D019B0BDE8F08301230DF14C
:105300000B0203A9284600F027F80028F3DB01234D
:105310000DF10B0221462846FFF706FE0028EADBC6
:105320002B680133C4D01397C1E7BE422CBF66631C
:105330006763A36BA362636BE362236B23F40033A5
:1053400043F48033C4E90C360020D4E7EF990F0012
:105350009A9F0F00089B0F002DE9F04F91460A6BB2
:105360001D46D30785B007460C4606D43E4B3F4A40
:105370003F4840F63E3102F0C1FC960305D4666B0F
:10538000E26A964208D3002003E0FFF765FF002899
:10539000F5D005B0BDE8F08F961BAE4228BF2E4673
:1053A000DFF8D0B0B04604F1400AB8F1000F01D1E7
:1053B0003046EEE7226B510304D5BB6EE16BDB692F
:1053C000994215D1D202636B3AD404F13C020292A5
:1053D00004F13802CDE900325146D4E90A233846B7
:1053E000FFF77AF80028D4D1236B43F4802323639A
:1053F000BB6EE26BDB69216B9D1A454528BF4546B4
:1054000011F4801121D0A08802EB050C634504F152
:1054100008014BEA802023D3CDE90002CDE90295B3
:1054200052463846FFF7A0F80028B2D1636B2B44F0
:105430006363E36B2B44E363A944A8EB0508B4E77B
:105440006FF00102C4E90E23CEE70192A26B009235
:10545000CDE90295524607F16800FEF73FFAE3E70F
:105460006FF0530095E700BF95990F0031960F003C
:10547000089B0F000000102038B50D46496B3BB962
:105480001446036FA3421BD38C4212D1204638BD71
:10549000012B01D15418F4E7022B08D1D5E90B43B5
:1054A0009B0302D58C4238BF0C461444E9E70C46F6
:1054B000E7E72946FFF7D0FE0028E8D16C63E5E76F
:1054C0006FF01500E3E7000007B502AA002342F8D9
:1054D000043D0449FFF72CFB00B9019803B05DF8C7
:1054E00004FB00BF01360F002DE9F04F856AA3B021
:1054F00006460C46914698463DBBA446BCE80F00C4
:1055000012AF0FC79CE80F0040F2014E87E80F0072
:105510002F4640F2FF40454546D1002F7BD0A38A5D
:10552000002B78D11AAA21463046FEF78EFE84461B
:10553000002865D010F1020F6DD012AD0FCD0FC451
:1055400095E80F0084E80F002AE005F10800A0426A
:1055500001D12D68D0E72146FDF7AEFF0028F8D134
:10556000AB79012BF5D12B6BDB02F2D5B36EE96A77
:105570009A6A9142EDD96A6B1B6AEA6329463366DF
:105580003046FFF73BFC844650B92B6B23F4801365
:105590002B6329463046FFF75FFE84460028D8D0AB
:1055A000604623B0BDE8F08F59F835301B0D9AB234
:1055B000C2F30A0CF44504D1A38A0133A382013556
:1055C000A9E784450CD1A38A33B9984B984A40F295
:1055D0004771984802F092FB013BA3820127EEE756
:1055E00002F4E062B2F5C06FE9D109EBC50203F045
:1055F000010352681168A1615268E261E375DEE758
:105600009DF87F303BB122461AA9304600F0FAFBE4
:105610008446002891D1A37D13B9A38AFE2B2DD9EE
:10562000E268B06E23681A934FF0FF31CDE91D1286
:10563000816C23691B921C9391B308391F910DA9AA
:1056400008917D4907910021CDE90511CDE90311AC
:10565000CDE901510DF1680BCDF80090214630469F
:105660000D96CDF838B0FEF7B3FA8446D0B11CF1F0
:105670001C0F03D01CF1540F7FF45FAF4FF0FF33CA
:105680003361A38A02930023CDE900434A462B46A7
:105690002146304600F0D6F88446002851D04CE729
:1056A000C169CAE706F13008CDE90F001190414603
:1056B0000FA806F13C07FDF71AFF06F1480A394624
:1056C0000FA8FDF714FF0FA85146FDF710FF0F9B21
:1056D00023F47F7323F003030FA80F93FDF715FF47
:1056E00088B90FAA21463046FEF758FA84460028AA
:1056F0007FF423AF0FAB514A59463046FFF7C7F846
:1057000084460028B3D159463046FFF71FF9844636
:105710000028ACD1B36E1B9A9969B2FBF1F301FB7F
:10572000132323B1464B424A40F2A67151E7E2608F
:105730001C9A226198E8070087E80700B364CAE969
:105740000133D6F828804FF0FF3A474627B9B8F121
:10575000000F49D1C44623E707F10803A34201D152
:105760003F68F3E7184612A90B93FDF7A5FE0B9BC4
:1057700083460028F4D1A6469C46BEE80F00ACE85C
:105780000F009EE80F008CE80F005D45E8D059F847
:105790003B3040F2FF41C3F30A528A4213D1BA8828
:1057A000C3F389239A4204D1C7E902AA0BF1010B82
:1057B000EBE7FBD9BB79013A022BBA80F6D1BB6A81
:1057C000013BBB62F2E740F201418A42EED1BA8866
:1057D000C3F389239A42E9D3BB790132022BBA8001
:1057E000E4D1BB6A0133ECE708F1080412A92046B2
:1057F000FDF762FE50B908F12005B8F80430B8F89A
:105800001C20934202D398F81F1011B9D8F80080D9
:105810009DE79B1AA8F804302A4621463046FEF739
:1058200007FD84460028E8D0BAE600BFD4970F00F1
:1058300022960F00089B0F003F490F000CFCFF7FD2
:10584000E3970F002DE9F04FA5B0CDE90A230B68CF
:105850000C93BDF8BC804B68BDF8C0B0DFF868930E
:105860000D9304460E464FF0000AABEB0807012FDC
:1058700000F38480A36EB2685B6A0132002BB260D1
:1058800040F3D080013343F00103B2FBF3F103FB9B
:105890001123002B40F0C68001250EA930460E933F
:1058A0000F95FDF709FE0746002840F06481204669
:1058B000FFF70AFE051EC0F2AD80A36E1B6AB5EBB2
:1058C000530F1AD2B54B009340F27262B368B449D9
:1058D000B44802F029FE2E9B0093CDE9018BDDE94F
:1058E0000A233146204600F053FA0546002800F00E
:1058F0009B8010F11C0F40F08D80A06E71681C9190
:1059000000234FF0FF32CDE91D32CDE91F23836C18
:10591000002B00F08C80083B2193FDF787FF0546A4
:10592000002800F0868015F1540F73D14FF0000A63
:105930004FF0FF332361BAF1000F08D1974B00936A
:105940004FF4E16273689649974802F0EDFD002339
:10595000012712A93046CDE91237FDF7ADFD002829
:1059600040F00B818D4B009340F20E7273688C49AE
:105970008E4802F0D9FD6FF01B054BE024AB0022EE
:1059800043F820ADCDE90793C8F100031BB2CDE980
:1059900005B3874B02930B9B01930A9B0093CDE9C0
:1059A00003A84FF0FF332E992046FEF711F9054664
:1059B00080BBFE2F15DCA26ED169936CA1F124008F
:1059C00063B3590895696A1E5318B3FBF5F205FBDA
:1059D00012329B1A83421C9A28BF03469A427FF6D2
:1059E00049AF08EB67072E9B0093BFB2CDE9017B5F
:1059F000DDE90A233146204600F0CAF9054678B1B0
:105A000010F11C0F06D1A36E1C9ADB69243B934254
:105A1000BFF430AF284625B0BDE8F08F4908D1E784
:105A2000BB4622E7002768E7C346074665E7C36928
:105A300071E70DF17009042306F10802494620467A
:105A4000FEF706FF054600287FF46DAF10AB089304
:105A5000584B0793C8F100031BB2CDE905B3544B73
:105A600002930B9B01930A9B0093CDE90308024626
:105A70004FF0FF332E992046CDE91049FEF7A8F8E4
:105A8000054600287FF44FAF06F118010846FDF7E0
:105A900009FD70B9F27D0B46474902F5C06241EA43
:105AA000025220464946FEF7F2FE054600287FF4E2
:105AB0003AAF0023CDE918331A934FB904F13C01F2
:105AC00018A8FDF714FD04F1300118A8FDF70FFD2B
:105AD00004F1480A514618A8FDF709FD189B23F464
