:020000022000DC
:107000000000042075DE0500B5DE0500D9F7050097
:10701000B9DE0500BBDE0500BDDE05000000000096
:10702000000000000000000000000000F1DD05008D
:10703000C1DE05000000000011DE0500C5DE050010
:10704000C7DE0500C7DE050079AC05005D3B040026
:107050006DEC0500C7DE0500E5720300C7DE050024
:10706000C7DE0500C7DE0500C7DE0500C7DE050078
:10707000C7DE0500C7DE0500C7DE0500C7DE050068
:10708000C7DE0500C7DE0500C7DE05000DD703001B
:10709000C7DE0500C7DE0500C5560500C7DE0500D2
:1070A000C7DE0500C7DE0500C7DE0500C7DE050038
:1070B000C7DE0500C7DE050000000000000000007C
:1070C000C7DE0500C7DE0500C7DE0500D9EC0500F8
:1070D0002DDB0500C7DE0500C7DE0500C7DE0500A5
:1070E000C7DE0500B1E60500C7DE050000000000B0
:1070F00000000000C7DE05000000000051ED0500A3
:10710000000000000000000000000000000000007F
:10711000000000000000000000000000000000006F
:10712000000000000000000000000000000000005F
:10713000000000000000000000000000000000004F
:10714000000000000000000000000000000000003F
:10715000000000000000000000000000000000002F
:10716000000000000000000000000000000000001F
:10717000000000000000000000000000000000000F
:1071800000000000000000000000000000000000FF
:1071900000000000000000000000000000000000EF
:1071A00000000000000000000000000000000000DF
:1071B00000000000000000000000000000000000CF
:1071C00000000000000000000000000000000000BF
:1071D00000000000000000000000000000000000AF
:1071E000000000000000000000000000000000009F
:1071F000000000000000000000000000000000008F
:10720000F1EE103A43F08073E1EE103A704700BFA0
:1072100010B5054C237833B9044B13B10448AFF3D0
:1072200000800123237010BD2863002000000000AF
:107230004431070008B5034B1BB103490348AFF3C2
:10724000008008BD000000002C63002044310700CE
:10725000154B002B08BF134B9D46A3F5803A002128
:107260008B460F461348144A121A3EF024FF0F4B68
:10727000002B00D098470E4B002B00D098470020E1
:10728000002104000D000D48002802D00C48AFF387
:1072900000803EF07DFE2000290036F039FE3EF0F1
:1072A00051FE00BF000008000000042000000000A4
:1072B0000000000028630020748D00200000000002
:1072C0000000000090F89800704700BF90F8BE00E2
:1072D000704700BF30B50C2183B00546022038F05E
:1072E000B3FF0121022039F033F80121042038F0E6
:1072F000ABFF0021042039F02BF80A4C322035F086
:107300001DFBFF23204600931F221B2305211BF09A
:1073100055FE20461BF092FD002385F8A43003B0F3
:1073200030BD00BFF472002010B5044613481BF0B6
:10733000CDFD0121042038F087FF0121042039F020
:1073400007F801211F2038F07FFF00211F2038F0AF
:10735000FFFF00212E2038F077FF0021032038F0B6
:1073600073FF0C21022038F06FFF0021022038F05B
:10737000EFFF012384F8A43010BD00BFF472002099
:107380000023D0F884001A46194633F09FBF00BF8F
:1073900010B50446D0F88800054B236008B136F0DC
:1073A00001FED4F8840008B134F0FCFD204610BD85
:1073B000C8930600D0F884004FF0FF3134F02EBCA3
:1073C000F0B52DED028B054683B0007C254E08EE0E
:1073D000102A0F463DF00EFF0022234B3DF074FFB4
:1073E0003EF06AFA06F15404002168610D46204619
:1073F00030F0D8FE40232A46204600951B2131F06C
:10740000BFF896F8A5203946204631F00FFA01461C
:10741000204630F0BBFFB8EE480A204631F00AF9AA
:107420000146204630F060FF2B462A460095204654
:10743000622131F0A5F801221146204630F0F8FF14
:107440002046012130F05EFE2A462046012130F020
:10745000F9FE2046012130F0A5FE012003B0BDEC6D
:10746000028BF0BD486300200000A03FD0E9270256
:10747000101A19F0B5B900BF10B50368254A5B6949
:10748000934282B004463DD10C21022038F0DCFE4C
:107490000121022038F05CFF0121042038F0D4FEE5
:1074A0000021042038F054FF322035F047FAFF2342
:1074B00000931F221B23052117481BF07FFD164850
:1074C0001BF0BCFC002384F8A43004F1A503009356
:1074D000124A114B042104F1540030F06BFD60B9E5
:1074E00094F8A5003D280FD0A0F14600B0FA80F036
:1074F000400984F8980002B010BD002084F898007C
:1075000002B010BD9847E0E7012084F8980002B06F
:1075100010BD00BFD5720200F472002000093D00CA
:107520000268174992698A4228D110B50446154865
:107530001BF0CCFC0121042038F086FE0121042040
:1075400038F006FF01211F2038F07EFE00211F20A9
:1075500038F0FEFE00212E2038F076FE00210320B8
:1075600038F072FE0C21022038F06EFE002102205D
:1075700038F0EEFE012384F8A43010BD104700BFA0
:1075800029730200F472002030B5044683B05430F1
:1075900030F008FD20460FF0A5FF00251E4B2360AC
:1075A00029460322C4F88450012033F01BFEC4F89E
:1075B000840019F009F884F8BE50C4E927004FF49C
:1075C000017036F0EDFCD4F8A830C4F88800BBB1E7
:1075D00000230825012084F8A700C4F8AC3084F803
:1075E000A53084F89830C4F894301A46194684F8C7
:1075F000A650D4F8840033F069FE204603B030BDB5
:1076000004F1A8010122CDE90021044804494FF406
:10761000007234F067FEDBE7C8930600CD78020005
:10762000B493060008B5002038F0AEFEB0FA80F042
:10763000400908BD10B5054C2046FFF7A5FF2046C0
:10764000034A0449BDE810403DF04CBC48630020AB
:1076500000600020917302002DE9F04FB5B00446A0
:107660009349DFF85CB2DFF85C82DFF85CA218A80F
:107670001DF074F904F1100301934FF47A760DF1C3
:1076800040097CE02C2200210DA83EF014FD284684
:10769000012332460DA98DF8383034F02BF901283A
:1076A000054676D094F8BE30002B00F0C380012B45
:1076B00062D1E02000238DF80C00032203A940468C
:1076C0008DF80D308DF80E3030F034FF002840F08A
:1076D000B480BDF80D3013F4F84F40F0AE80C3F322
:1076E0000903AAFB0312920802EB4202A3EB420237
:1076F00092B222B1D4F8AC200132C4F8AC20AAFB7B
:1077000003239B089AB2ADF80D20A3B3D4E923015B
:10771000091A8B4288BF8AB202EB42034FEA430345
:1077200088BFADF80D209BB2D4F888206321404675
:1077300030F0D2FEBDF80D20D4F8881002EB4202E2
:10774000520018A81DF004F8BDF80D20D4F88810D8
:10775000D4F8940002EB4202520026F0BBF8D4E9C0
:107760002312BDF80D30C4F894000B449342C4F8C2
:107770008C3080F0888001264E4819F033F9656816
:107780001DB1A368002B7FF47DAF0A2033F09AFC73
:10779000F2E79DF83870012F55D0022F37D194F8B9
:1077A000BE30012B33D018F00FFF0F9BB4F8BA2076
:1077B000C4F89C00AAFB03139B0800214FF0FF3084
:1077C000C4F89030C4F88C10A4F8B820C4F8940021
:1077D000202205A83EF06FFC48463FF038FC4946A1
:1077E0000246009005A83FF03AFC009BDBF8000041
:1077F00049F803004B44BBF8041099803A464946C7
:1078000018A81DF0EBF9002835D084F8BE500022EE
:1078100003211346049265688DF810100D980395A6
:107820004FF0FF3203A933F051FD94F8BE30002B26
:107830007FF43DAF4FF47A769EE7D4F8AC30013355
:10784000C4F8AC3097E794F8BE30002BDFD018A80E
:107850001DF038FBD4F89430A36405AA019B18A945
:1078600020460FF0E5FE18F0AFFE0023C4F8A0009C
:1078700084F8BE30CBE74A460F49104832F060FD2D
:1078800084F8BD50C3E718A81DF01CFBD4F8943051
:10789000A36405AA019B18A920460FF0C9FE18F0A1
:1078A00093FE0023C4F8A00084F8BE3063E700BF55
:1078B000C0650020C472002084930600BC7D0020B7
:1078C0007C9306009C630020ABAAAAAA08B50148D5
:1078D000FFF7C2FE48630020036810B5044618682D
:1078E00008B134F05FFB204610BD00BF03684FF0C5
:1078F000FF31186834F092B9026800231068194605
:107900001A4633F0E3BC00BF036810B504464FF0DD
:10791000FF31186834F082F923796BB9012038F00F
:1079200023FB0C2038F01AFB402038F04DFB0320DD
:1079300038F096FB01232371226800231068194652
:107940001A46BDE8104033F0C1BC00BF10B5036853
:1079500004464FF0FF31186834F060F938F058FCF5
:1079600022680023106819461A46BDE8104033F01B
:10797000ADBC00BF036870B5164604460D461868D6
:107980004FF0FF3134F04AF9304638F057FC2846C2
:1079900038F098FB226800230546194610681A46FD
:1079A00033F094FC284670BD70B50D4C0D4E256823
:1079B000346035B10C4A0D490A48BDE870403DF0CD
:1079C00091BA29460322012033F00CFC3368206071
:1079D000186835712B462A46294633F077FCE9E7CB
:1079E000106400200864002000600020D9780200A4
:1079F0000020704710B50446406808B134F0D2FA50
:107A0000204610BD000000002DE9F04F037883B040
:107A10002B2B0446019100F0C5802D2B11D00022A4
:107A20000092A3F1300B5FFA8BFBBBF1090F13D966
:107A30002E2B00F0E98000230093184603B0BDE828
:107A4000F08F4378A3F1300B5FFA8BFB0122BBF17F
:107A5000090F00921444EBD85FFA8BFB4FF0000C37
:107A6000002000214FF09939DFF8D0A20EE08A45BE
:107A700008BF814541D380197941061841EB0107C0
:107A8000BB4208BFB2423046394636D314F8015FD4
:107A90000A46A5F1300810EB0B0142EB0C025FFA2D
:107AA00088F8084693005FFA88FB4FF0000CB8F1A5
:107AB000090F114643EA90774FEA80066FEA0B02FE
:107AC0006FEA0C03D3D9002D40F02181009B002BDD
:107AD00000F0D180B1F1004F08BF01280DD2019A0A
:107AE000137A404223F07F0361EB410143F00A0324
:107AF000C2E9000113720098A0E78B4F4FF0000914
:107B00004FF0FF360A2200233EF034F88F4209F18D
:107B1000010908BF86420FFA89F9F3D3B8F1090FBA
:107B200009D814F8015FA5F1300309F10109092B07
:107B30000FFA89F9F5D92E2D6AD005F0DF03452B10
:107B40004E4634D0002D7FF476AF3DF087FB002EFB
:107B500040F3D880754D002403E0761004F1010451
:107B60000CD0F307F9D5E3B205EBC303D3E9002347
:107B70003DF0AAFB761004F10104F2D1009B13B191
:107B800001F100431946019A137A23F07F0343F071
:107B90000C0313720123C2E900011846009303B0DD
:107BA000BDE8F08F002243780092013439E7657810
:107BB0002D2D00F082802B2D00F09580A5F1300353
:107BC000DAB2092A04F10104BCD803EB0902B2F5C8
:107BD0009A7F00F383804FF0000C06E002EB47032E
:107BE00003EB0902B2F59A7F54DC14F8015FA5F1AA
:107BF0003002D6B2092E03EB8307EFD9BCF1000F98
:107C00007BD0A9EB03069DE7002000214FF000097F
:107C10006578A5F1300C5FFA8CFCBCF1090F04F11A
:107C200001048AD83EA3D3E9002382468B465B45F4
:107C30004FEA8B0508BF52454FEA8A0645EA9A7714
:107C40000DD31AEB06004BEB07010018494109F16F
:107C5000FF3910EB0C0A41F1000B0FFA89F914F807
:107C6000015FA5F1300C5FFA8CFCBCF1090FDED985
:107C70005046594661E7019A137A23F07F0343F097
:107C8000080313720123C2E900011846009303B0F0
:107C9000BDE8F08FBCF1000F20D0019A137A23F0D9
:107CA0007F0343F00C0300204FF0004113720123C7
:107CB000C2E9000100931846C0E6A578A5F130039B
:107CC000DAB2092A04F102043FF63CAF03EB0902E1
:107CD000B2F59A7FE1DC4FF0010C86E7009B0020B3
:107CE00073B913494FE7A578A5F13003DAB2092A31
:107CF00004F102047FF669AF24E709EB030621E7EC
:107D00000C4940E73FF43AAF76420B4D23E7B1F51B
:107D1000801F08BF0028BFF4F0AE4FF000090AE74B
:107D20009899999999990100FFFF0F0060940600B6
:107D30000000F07F0000F0FF18940600999999194F
:107D400070B5144B0360002504464560042033F0F1
:107D5000E9FC102660604FF07E524FF4C85084F862
:107D6000305065722572A5720B4B0C49E0600825F6
:107D70004FF4C8706262A3624AF6C0024FF47A738D
:107D8000E6722575A0612162E2622361E36120460B
:107D900070BD00BF4C990600000020410000C842A1
:107DA00040684FF0FF3134F0E7B800BF406833F06F
:107DB000A3BC00BF704700BF2DE9F04F037A03F06A
:107DC0007F03043B85B0082B0DD8DFE803F02F2F8D
:107DD0002B0C050C050C1000D0E90001002908BF90
:107DE000B0F5807F1AD3002005B0BDE8F08FD0E950
:107DF000004500220023204629463DF0EBFC0028E8
:107E0000F2D0C1A3D3E90023204629463DF0D8FC97
:107E10000028E9D0204629463DF02EFDC0B205B02D
:107E2000BDE8F08F007805B0BDE8F08F04682378D6
:107E30002B2B00F0DD802D2B40F0D78001226378C2
:107E400003921444A3F13002D2B2092A37D92E2B5F
:107E5000C9D10022002392469B4600276678A6F1EE
:107E60003005EDB2092D04F1010400F298800FF203
:107E7000AC29D9E900895B46D9454FEA83065146CA
:107E800008BFD0454FEA810246EA9A730FD31AEB36
:107E9000020A4BEB030B1AEB0A004BEB0B014219E6
:107EA00007F1FF3741F1000392469B463FB214F8B9
:107EB000016FA6F13005EDB2092DDCD96FE000208D
:107EC0000021D2B2002382468B4617E090494FF042
:107ED0009930594508BF504540D31AEB08004BEB89
:107EE0000901071841EB010838464146BA46C34626
:107EF000DDE90078884508BF87422FD314F8016F69
:107F00001AEB02004BEB0301A6F130058B00EDB23A
:107F100043EA9079EAB2002382468B464FEA800812
:107F2000D943D043092DCDE90001CFD9002E40F02F
:107F3000E280039B002B00F089805046BBF1004F8C
:107F400008BF01280AD2DAF100006BEB4B010029CF
:107F500008BFB0F5807FFFF461AF44E7DFF8C4915C
:107F600000274FF0FF38504659460A2200233DF0C3
:107F700001FE894507F1010708BF804582468B460F
:107F80003FB2F0D3092D07D814F8016FA6F13003E2
:107F90000137092B3FB2F7D92E2E3FF45FAF06F021
:107FA000DF03452B3D4628D0002E7FF41CAF504602
:107FB00059463DF053F9002D8046894640F39380A1
:107FC000544E002403E06D1004F1010456D0EB0779
:107FD000F9D5E3B206EBC30340464946D3E9002393
:107FE0003DF072F980468946EDE70022039229E7C9
:107FF000002263780392013424E766782D2E56D050
:108000002B2E65D0A6F13003DAB2092A04F101045F
:10801000CAD81D46FB18B3F59A7F3FF7E4AE4FF080
:10802000000E05E003EB4C057B19B3F59A7F17DCD6
:1080300014F8016FA6F13003DAB2092A05EB850CBA
:10804000F0D9BEF1000F4CD07D1BADE75C46002C93
:1080500008BFBAF5807FBFF4C6AE5FFA8AF0C3E608
:10806000BEF1000F3FF4BFAE4FF000084FF00049E3
:10807000404649463DF000FCC0B2B5E6039B13B153
:1080800009F10043994600220023404649463DF04D
:10809000A1FB00283FF4A8AE1BA3D3E90023404670
:1080A00049463DF08DFB00283FF49EAEE0E7A67800
:1080B000A6F13003DAB2092A04F102043FF674AFE4
:1080C0001D46FB18B3F59A7FCEDC4FF0010EAFE7EB
:1080D000A678A6F13003DAB2092A04F1020498D98D
:1080E00062E73D4460E702D06D420B4E69E7039BB7
:1080F000002BC5D1D0E75246BBF5801F08BF002A30
:10810000BFF42CAF002747E70000000000E06F40FD
:10811000999999196094060018940600989999996C
:1081200099990100FFFF0F002DE9F04F037A03F04A
:108130007F03043B85B0082B3CD8DFE803F02727FA
:108140003F3B053B053B0F00D0E90001012908BF7B
:10815000002828BF002005B0BDE8F08FD0E9004519
:1081600000220023204629463DF034FB0028F2D0AF
:10817000C3A3D3E90023204629463DF021FB002874
:10818000E9D0204629463DF077FBE4E704682378F0
:108190002B2B00F0AF802D2B40F0A98001226378BB
:1081A00003921444A3F13002D2B2092A0AD92E2B29
:1081B00000F0D080002005B0BDE8F08F007805B059
:1081C000BDE8F08F00200021D2B2002382468B460A
:1081D00017E0AD494FF09930594508BF50453FD39E
:1081E0001AEB08004BEB0901071841EB0108384670
:1081F0004146BA46C346DDE90078884508BF874254
:108200002ED314F8016F1AEB02004BEB0301A6F119
:1082100030058B00EDB243EA9079EAB20023824642
:108220008B464FEA8008D943D043092DCDE90001A0
:10823000CFD9002E40F01581039B002B00F0BF80AA
:108240005046BBF1004F08BF012809D2DAF1000007
:108250006BEB4B01012908BF002828BF00207AE7FB
:10826000DFF8289200274FF0FF38504659460A227F
:1082700000233DF07FFC894507F1010708BF8045D9
:1082800082468B463FB2F0D3092D07D814F8016F10
:10829000A6F130030137092B3FB2F7D92E2E5ED05D
:1082A00006F0DF03452B3D4629D0002E82D15046F3
:1082B00059463CF0D3FF002D06460F4640F3C880D8
:1082C000DFF8CC81002404E06D1004F1010400F01B
:1082D0008A80EB07F8D5E3B208EBC3033046394692
:1082E000D3E900233CF0F0FF06460F46ECE70022FE
:1082F000039257E7002263780392013452E76678CD
:108300002D2E00F089802B2E00F09680A6F13003F0
:10831000DAB2092A04F10104C7D81D46FB18B3F5E7
:108320009A7F3FF747AF002305E002EB4E057A192D
:10833000B2F59A7F4CDC14F8016FA6F130025FFAB7
:1083400082FCBCF1090F05EB850EEED9002B7DD028
:108350007D1BAAE70022002392469B4600276678F1
:10836000A6F13005EDB2092D04F1010498D80FF201
:108370000819D9E900895B46D9454FEA8306514679
:1083800008BFD0454FEA810246EA9A730FD31AEB31
:10839000020A4BEB030B1AEB0A004BEB0B014219E1
:1083A00007F1FF3741F1000392469B463FB214F8B4
:1083B000016FA6F13005EDB2092DDCD970E75C46FE
:1083C000012C534608BF002B504628BF0020C2E6B0
:1083D000002B3FF4EFAE00264FF000473046394601
:1083E0003DF04AFAB7E6039B13B107F100431F467D
:1083F00000220023304639463DF0ECF900283FF4D6
:10840000AAAE1FA3D3E90023304639463DF0D8F980
:1084100000283FF4A0AEE1E7A678A6F13003DAB277
:10842000092A04F102043FF640AF1D46FB18B3F5DC
:108430009A7FD0DC01237EE7A678A6F13003DAB27A
:10844000092A04F102047FF668AF2EE73D442CE7C9
:1084500003D06D42DFF83C8034E7039B002BC4D18E
:10846000CFE75246BBF5801F08BF002ABFF4F8AE25
:10847000002713E7AFF30080989999999999010023
:108480000000E0FFFFFFEF4199999919FFFF0F00EE
:1084900060940600189406002DE9F04F037A03F06B
:1084A0007F03043B89B0082B46D8DFE803F00E0EAB
:1084B0002B4533453C450500D0E900013DF0FCF972
:1084C00000EE100A09B0BDE8F08F046800228DF8B4
:1084D000182023782B2B00F0C2802D2B40F0BD807C
:1084E0000122637803921444A3F13002D2B2092A24
:1084F00025D92E2B00F0DF8004A8FFF7CDFF09B0AF
:10850000BDE8F08F037800EE103AB8EE400A09B0EB
:10851000BDE8F08FD0E900013DF0E6FA00EE100A68
:1085200009B0BDE8F08FD0E900013DF0E5FA00EEBA
:10853000100A09B0BDE8F08F9FEDA50AC2E7002040
:108540000021D2B2002382468B4617E0A1494FF0AA
:108550009930594508BF50453FD31AEB08004BEB03
:108560000901071841EB010838464146BA46C3469F
:10857000DDE90078884508BF87422ED314F8016FE3
:108580001AEB02004BEB0301A6F130058B00EDB2B4
:1085900043EA9079EAB2002382468B464FEA80088C
:1085A000D943D043092DCDE90001CFD9002E40F0A9
:1085B0000281039B002B00F0B3805046BBF1004FBB
:1085C00008BF012809D2DAF100006BEB4B010A2346
:1085D000CDE904018DF818308EE7DFF80C92002702
:1085E0004FF0FF38504659460A2200233DF0C2FAA8
:1085F000894507F1010708BF804582468B463FB297
:10860000F0D3092D07D814F8016FA6F13003013714
:10861000092B3FB2F7D92E2E52D006F0DF03452B9F
:108620003D4620D0002E7FF467AF504659463CF0BF
:1086300015FE002D40F3B980674E002403E06D1055
:1086400004F1010474D0EB07F9D5E3B206EBC303E0
:10865000D3E900233CF038FEF1E7039244E7637866
:108660000392013440E766782D2E78D02B2E00F04F
:108670009080A6F13003DAB2092A04F10104D1D8BE
:10868000DA19B2F59A7F7ADC4FF0000E05E002EBC2
:108690004C03DA19B2F59A7F55DC14F8016FA6F194
:1086A0003002D5B2092D03EB830CF0D9BEF1000FD7
:1086B00079D0FD1AB6E70022002392469B46002798
:1086C0006678A6F13005EDB2092D04F10104A4D8B5
:1086D0000FF2F409D9E900895B46D9454FEA8306D0
:1086E000514608BFD0454FEA810246EA9A730FD33C
:1086F0001AEB020A4BEB030B1AEB0A004BEB0B01D4
:10870000421907F1FF3741F1000392469B463FB201
:1087100014F8016FA6F13005EDB2092DDCD97CE724
:10872000082351465A46CDE904128DF81830E3E685
:10873000039B13B101F1004319460C23CDE9040159
:108740008DF81830D8E6BEF1000F18D000204FF099
:1087500000410C23CDE904018DF81830CCE6A67851
:10876000A6F13003DAB2092A04F102043FF65AAF47
:10877000DA19B2F59A7FE9DC4FF0010E8DE7039B21
:108780000020B3B915490C23CDE904018DF8183048
:10879000B2E6A678A6F13003DAB2092A04F102049F
:1087A0007FF66EAF3EE7FD183CE7C1D06D420C4E40
:1087B00043E70C49E7E75246BBF5801F08BF002A94
:1087C000BFF40BAF002726E7989999999999010072
:1087D0000000000099999919609406000000F07F4C
:1087E000189406000000F0FFFFFF0F002DE9F04F86
:1087F0005FFA83F985B0B9F1000F00F0F98000232A
:108800000191044643761D460126012202A96069B2
:1088100031F0BCFEC0B19DF8083066762376202B7F
:1088200024D8DFE803F01423232323232323232145
:10883000212323212323232323232323232323230C
:108840002323232323232100012320766376237C03
:1088500033B9012005B0BDE8F08F0123207663769F
:10886000022005B0BDE8F08F6576CEE701267D2BAE
:10887000267400F0CA82226853686360D2E901134B
:108880005B1A0021C4E9021303B91674637E002B3E
:1088900000F02E81257E272D02D0222D40F03A8136
:1088A0000022134662769246174693B1237E67767E
:1088B0009D421BD0002BD3D05C2B73D0D4E9022176
:1088C000501C88426AD26168A0608B54637E002B82
:1088D000ECD1012202A9606931F058FE00287ED057
:1088E0009DF8083023769D426776E3D123681B7C90
:1088F000002B40F08F82012202A9606931F046FE10
:108900000028A1D09DF8083066762376202B00F24F
:108910002B8101A252F823F04F880200698B0200DC
:10892000698B0200698B0200698B0200698B02006F
:10893000698B0200698B0200698B0200638B020065
:10894000638B0200698B0200698B0200638B02005B
:10895000698B0200698B0200698B0200698B02003F
:10896000698B0200698B0200698B0200698B02002F
:10897000698B0200698B0200698B0200698B02001F
:10898000698B0200698B0200698B0200698B02000F
:10899000698B0200698B0200638B020023681E74DE
:1089A000637E82E7012202A9606931F0EFFD0028B1
:1089B0003FF453AF9DF8083066762376002B3FF4E2
:1089C0004FAF752B16D02F2B10D0B74922229342D0
:1089D00009D011F8022F002AF9D103203AE72076B6
:1089E000607602203DE74B78002BF6D0677665E78E
:1089F00005202FE76776012202A9606931F0C6FDE4
:108A000000286FD09DF8083066762376002B3FF45F
:108A100027AF402B86BF23F0200BABF1370BA3F120
:108A2000300B5FFA8BFBBBF10F0FD6D867760122B4
:108A300002A9606931F0AAFD002853D09DF80830E2
:108A400066762376002B3FF40BAF402B86BF23F0D6
:108A50002003373B303BDBB20F2BBED867760122B9
:108A600002A9606943EA0B1B31F090FD002839D060
:108A70009DF8083066762376002B3FF4F1AE402B4C
:108A800086BF23F02003373B303BDBB20F2BA4D84B
:108A900043EA0B1B6776012202A960690FFA8BFB80
:108AA00031F074FDF0B19DF8083066762376002B26
:108AB0003FF4D6AE402B86BF23F02003373B303B3C
:108AC000DBB20F2B89D843EA0B131BB299B201F525
:108AD000205292B2B2F5806F677680F0D881C1F3F0
:108AE000090AF6E600220123227663760220B1E627
:108AF000012202A9606931F049FD002800F0BF8120
:108B00009DF808506676272D25763FF4C9AE222DB4
:108B10003FF4C6AE2F2D7FF660AF392D07D95E2DFD
:108B200040F212827A2D02D95A2D3FF656AF002715
:108B3000D4E902315A1C8A42677680F06D816168FF
:108B4000A260CD54637E002B00F06C81257E2F2D1A
:108B500000F2758123681B7C002B40F05B81237E33
:108B6000D4E600236376C6E63A2B26747FF435AF4D
:108B7000D4E90112002363768B546768002F00F05C
:108B80000281019BD3F800A0BAF1000F00F0FB8036
:108B900038463EF05CFA07F1FF3B80468344DAF842
:108BA0000C50002D00F0E48028463EF050FA80453D
:108BB00040F0E280B8F1000F10D029783B7899425C
:108BC00040F0DA8028463B4606E013F8015F10F8D3
:108BD000011F8D4240F0D0805B45F6D1514609F12E
:108BE000FF334FF00002204600F0BEF900287FF46A
:108BF00031AE637E002B49D0237E202B56D801A2B4
:108C000052F823F04F880200AD8C0200AD8C0200B8
:108C1000AD8C0200AD8C0200AD8C0200AD8C020068
:108C2000AD8C0200AD8C0200898C0200898C0200A0
:108C3000AD8C0200AD8C0200898C0200AD8C02006C
:108C4000AD8C0200AD8C0200AD8C0200AD8C020038
:108C5000AD8C0200AD8C0200AD8C0200AD8C020028
:108C6000AD8C0200AD8C0200AD8C0200AD8C020018
:108C7000AD8C0200AD8C0200AD8C0200AD8C020008
:108C8000AD8C0200898C020000236376012202A9C8
:108C9000606931F07BFC00283FF4D6AD9DF80830C8
:108CA00066762376A9E700BF069506007D2B26741D
:108CB00000F0AB802C2B7FF490AE002363761D4632
:108CC000012202A9606931F061FC00283FF4BCADCB
:108CD0009DF8083066762376202B47D801A252F8FB
:108CE00023F000BF4F8802006D8D02006D8D0200E1
:108CF0006D8D02006D8D02006D8D02006D8D020084
:108D00006D8D02006D8D0200698D0200698D02007B
:108D10006D8D02006D8D0200698D02006D8D020067
:108D20006D8D02006D8D02006D8D02006D8D020053
:108D30006D8D02006D8D02006D8D02006D8D020043
:108D40006D8D02006D8D02006D8D02006D8D020033
:108D50006D8D02006D8D02006D8D02006D8D020023
:108D60006D8D0200698D02006576A9E7267482E5A3
:108D7000B8F1000F3FF432AFBAF90A301BB11AEB69
:108D8000031A7FF40CAFD4F800A0D4F808E0DAE9B5
:108D9000003C03EB0E02944513D90EF1FF376744F4
:108DA0001278002A55D093F800B0BBF1000F03D021
:108DB00013F8012F002AFBD1013303EB0E02944577
:108DC000EED80CEB0E0301330022CAF804300CF885
:108DD0000E206346E069D0E9011210318A4217D3B0
:108DE000A2F110018160A9B1019F786800284BD0E1
:108DF0000D1A2D1145817960002042F8043C802332
:108E000022F8060C02F8083CE9E60020607621E52D
:108E10000123037404201DE523681E74637E002B68
:108E20007FF494AE012202A9606931F0AFFB18B360
:108E30009DF8085066762F2D25767FF68BAE392D5E
:108E40007FF676AE5E2D40F287807A2D7FF670AE8B
:108E500080E6BEF1000F7BD09CF800B01A789345F5
:108E60004FD1624619469742B4D012F8015F11F80B
:108E7000010F8542F7D098E7207666766AE60123EF
:108E8000207663760320E5E439607960B4E701F584
:108E9000105292B2B2F5806F2BD37F29DBB20A4613
:108EA0007FF60CAD920903F03F0391B263F07F03AC
:108EB0001F298DF809308DF80870D3B226D863F0D9
:108EC0003F038DF80A300DF10B0313F8012D002A32
:108ED0003FF4FCACA068E16800F1010C8C4512D2B3
:108EE0006168C4F808C00A5413F8012D002AF1D1B2
:108EF000ECE4C1F3090242EA8A2202F58032D3B2DD
:108F0000D0E7934651E722681674DEE7911103F02B
:108F10003F0363F07F030F298DF80A30CBB205DCE5
:108F200063F01F038DF80B3003ABCEE703F03F0176
:108F3000131363F00F0361F07F028DF80C308DF88E
:108F40000B200DF10D03C0E7402D3FF6EDAD44E5DC
:108F5000002B7FF43FAF34E7402D7FF6FBAD5A2D59
:108F60007FF6E6ADF6E500BF2DE9F04F427E87B013
:108F700006460C461F46BAB1007E20282BD8DFE8F3
:108F800000F0222A2A2A2A2A2A2A2A11112A2A11F8
:108F90002A2A2A2A2A2A2A2A2A2A2A2A2A2A2A2A31
:108FA0002A2A110000237376012204A9706931F086
:108FB000EDFA28B19DF81000307601237376DCE7D6
:108FC000012330767376337C002B40F0A1800120A2
:108FD00007B0BDE8F08F01226628327400F093815B
:108FE00040F21781742800F097807B2800F0B4814C
:108FF0006E2800F0B6800025A84606F11F0901275B
:109000002F2840F2CE80392840F2CE80A0F12D03E7
:10901000012B40F2C98000F0DF03452B00F0C48033
:109020007319002083F8200096F820302B2B00F0D5
:1090300046842D2B00F0468206F120050290A3F114
:109040003006F6B2092E40F22E832E2B40F0DD8042
:109050004FF000094FF0000A4FF0000B95F8018027
:10906000A8F13006F6B2092E05F1010529D8D7A3DB
:10907000D3E90023A44659465B454FEA810754468D
:1090800008BF52454FEA840047EA9A7111D31AEBA0
:1090900000074BEB010817EB070A48EB080B1AEB2C
:1090A000060009F1FF394BF1000182468B460FFAA9
:1090B00089F915F8018FA8F13006F6B2092EDAD930
:1090C000644608F0DF03452B4E4600F00582B8F1F8
:1090D000000F40F09A80504659463CF0BFF8002EF1
:1090E00040F38A84B44F002504E0761005F10105B1
:1090F00000F0FA80F307F8D5EBB207EBC303D3E92E
:1091000000233CF0E1F8F0E7002201233276737689
:10911000022007B0BDE8F08F237A227023F07F038E
:1091200043F006032372737E002B00F0E383337E4B
:10913000A24D0446002BEBD09C4266D115F8014F9E
:1091400000237376002C00F0DC80012204A97069F2
:1091500031F01CFA00B39DF810303376012272769C
:10916000E8E7974F14464FF0000807E09DF81030ED
:1091700074763376002BCBD09D4246D117F8015F31
:1091800086F81980012204A9002D00F0BA807069C8
:1091900031F0FCF90028E9D1012330767376022002
:1091A000B7E72B287FF432AF3F2D3FF439AF86F875
:1091B000198009F8010F01357069012204A9EDB287
:1091C00031F0E4F908B19DF810003076777617E7B2
:1091D000012204A9706931F0D9F9002800F06B81EF
:1091E0009DF8103077763376002B91D0752B00F0F8
:1091F000D7822F2B00F05C8172492222934200F02B
:10920000538111F8022F002AF8D1032007B0BDE8DE
:10921000F08F272800F0B4805B2840F0AE80237ADE
:1092200023F07F0343F040030021FFB22372C4E91F
:109230000011002F00F04481717615468846012206
:1092400004A9706931F0A2F900283FF4B9AE9DF885
:10925000103075763376202B00F26F8101A252F820
:1092600023F000BFC78F02003B9502003B95020030
:109270003B9502003B9502003B9502003B950200A6
:109280003B9502003B950200D3940200D394020068
:109290003B9502003B950200D39402003B950200EF
:1092A0003B9502003B9502003B9502003B95020076
:1092B0003B9502003B9502003B9502003B95020066
:1092C0003B9502003B9502003B9502003B95020056
:1092D0003B9502003B9502003B9502003B95020046
:1092E0003B950200D3940200029B13B101F10043AD
:1092F0001946237AC4E9000123F07F0343F00C03ED
:109300002372002064E6237A23F07F0343F00603F0
:109310002372737E00222270002B00F0EE82337ED7
:10932000294D0446002B3FF4F3AE9C427FF46DAF11
:1093300015F8014F00237376002CE2D0012204A916
:10934000706931F023F900283FF426AF9DF8103002
:10935000337601227276E5E7227A22F07F0242F02C
:10936000200200212272C4E900113B46304621460A
:109370004FF00002FFF73AFA2AE622287FF43BAECC
:1093800031684B687360D1E901239B1A0022C6E95A
:109390000223FBB901220A74737EDBB904A9706948
:1093A00031F0F4F8002800F09E829DF810503576D8
:1093B00011E000BFAFF3008060940600189506002E
:1093C000289506000695060020950600989999991B
:1093D00099990100357E0022134672769046012746
:1093E000BBB1337E4FF00009AB4286F8199023D011
:1093F000002B3FF48DAE5C2B3FF4EAAED6E90221A0
:10940000501C88420FD27168B0608B54737E002B61
:10941000E7D1012204A9706931F0B8F838B19DF89C
:1094200010303376DEE733681F74737ED8E730760A
:109430007076002D7FF46CAED6F8009099F810305D
:10944000002B40F01881D9E9002ED6F8088002EBF5
:1094500008039E4512D908F1FF377744BC461B78B4
:10946000002B00F00A8117781FB112F8013F002B82
:10947000FBD1013202EB08039E45F0D80EEB080346
:1094800000220133C9F804300EF80820D6F808800D
:109490007246237A226023F07F0343F00503C4F869
:1094A00004802372002093E54B78002B3FF4ADAE8F
:1094B00000227276A2E7012330767376022087E5D8
:1094C000052085E5012206F1210596F8213002925A
:1094D000B5E586F81980B2E695F80180B8F12D0F50
:1094E00000F01E82B8F12B0F00F07682A8F1300355
:1094F000DAB2092A05F101053FF6E9AD03EB0902ED
:10950000B2F59A7F00F36382002607E002EB400386
:1095100003EB0902B2F59A7F00F3F28115F8018F8F
:10952000A8F13002D1B2092903EB8300EED9002E55
:1095300000F05E82A9EB0306C9E54FF001085D2B40
:1095400086F8108000F0D281F269D2E9011310315F
:109550008B42C0F05782A3F110019160002900F006
:109560008A807D1EEDB200276268002A00F09D818E
:10957000881A00115081616023F8067C03F8087C8A
:1095800043F8047C4FF000022B463046FFF7ECFC1A
:1095900000287FF41DAD737E002B48D0337E202B36
:1095A00053D801A252F823F0C78F02004B96020055
:1095B0004B9602004B9602004B9602004B9602001F
:1095C0004B9602004B9602004B9602002D9602002D
:1095D0002D9602004B9602004B9602002D9602003B
:1095E0004B9602004B9602004B9602004B960200EF
:1095F0004B9602004B9602004B9602004B960200DF
:109600004B9602004B9602004B9602004B960200CE
:109610004B9602004B9602004B9602004B960200BE
:109620004B9602004B9602002D960200777601229F
:1096300004A9706930F0AAFF00283FF4C1AC9DF87E
:10964000103086F819803376A9E75D2B86F81080F4
:1096500000F04C812C2B7FF4D8ADF2697776D2E9FB
:10966000011310318B42C0F0CD81A3F11001916044
:1096700000297FF479AF0420AAE4B8F1000F00F0CC
:10968000078217789EF80030BB427FF4EDAE734638
:1096900011469C453FF4FDAE13F8015F11F8010F30
:1096A0008542F6D0E0E64FF0000A4FF0000BF6B22C
:1096B0000027CDE900ABAC46A6461BE0DDE900453E
:1096C000DFF8C8B34FF0993AAB4508BFA245AB46A7
:1096D000A246C0F0EF8014EB080A45EB090B1AEB29
:1096E0000A044BEB0B05A94208BFA042CDE9004597
:1096F000C0F0DE80DDE90001801979411CF8012FFE
:109700008B0043EA9079A2F1300306460F46DBB2A4
:10971000CDE90067092BDEB24FF000074FEA800861
:109720006FEA07016FEA0600C8D90393DDE900ABD1
:10973000654690467446002A40F09281029B002BB9
:1097400000F0C480BBF1004F08BFBAF1010FC0F0B8
:10975000FA80C84F4FF000094FF0FF365046594687
:109760000A2200233CF006FA8F4209F1010908BFE2
:10977000864282468B460FFA89F9EFD3039B092B69
:1097800009D815F8018FA8F1300309F10109092B57
:109790000FFA89F9F5D9B8F12E0F7FF492AC5DE498
:1097A00086F81990012204A9706930F0EFFE0028B4
:1097B0003FF4AAAC9DF8103077763376002B3FF457
:1097C000A7AC402B86BF23F02009A9F13709A3F1EC
:1097D00030095FFA89F9B9F10F0F3FF616AD002392
:1097E0007376012204A9706930F0D0FE00283FF49E
:1097F0008BAC9DF8103077763376002B3FF488AC35
:10980000402B86BF23F02003373B303BDBB20F2BCE
:109810003FF6FBAC0022727604A90122706943EA8C
:10982000091930F0B3FE00283FF46EAC9DF81030FB
:1098300077763376002B3FF46BAC402B86BF23F05A
:109840002003373B303BDBB20F2B3FF6DEAC002270
:1098500043EA0919727604A9012270690FFA89F99D
:1098600030F094FE00283FF44FAC9DF8103077762E
:109870003376002B3FF44CAC402B86BF23F0200303
:10988000373B303BDBB20F2B3FF6BFAC43EA09134B
:109890001BB299B201F5205292B20020B2F5806F4E
:1098A000707661D2C1F30908B3E5C4E9001163E63B
:1098B000A246AB46039365469046744649E796F840
:1098C0002130029006F12105FFF7B9BB18469EF83A
:1098D000083023F07F0343F00803CEE900AB8EF895
:1098E0000830FFF775BB0546357674E500207076C5
:1098F000FFF76EBB604D044627E4604D04461DE54E
:10990000002E64D0237A23F07F0300204FF0004123
:1099100043F00C03C4E9000123720020FFF758BB99
:1099200095F80280A8F13003DAB2092A05F10205A0
:1099300088BF00233FF6FEAD03EB0902B2F59A7F24
:10994000E0DC0126EAE59EF80830DAF1000A23F0AF
:109950007F036BEB4B0B43F00A03CEE900AB1046E1
:109960008EF80830FFF734BB01F5105292B2B2F511
:10997000806F4DD37F29DBB20A467FF63FAD920957
:1099800003F03F0391B263F07F0300201F298DF89D
:1099900011308DF81000D3B244D863F03F038DF836
:1099A00012300DF1130313F8012D002A3FF42EADF0
:1099B000B068F16800F1010C8C4526D27168C6F8D8
:1099C00008C00A5413F8012D002AF1D11EE5029BAC
:1099D00000202BBB2A498CE495F80280A8F13003C3
:1099E000DAB2092A05F102057FF688ADFFF76FBBF1
:1099F00009EB0306FFF76BBB3FF476AC7642214FD1
:109A0000FFF771BB0123137435E632681774CAE798
:109A1000C1F3090242EA882202F58032D3B2AEE7EE
:109A2000194966E4911103F03F0363F07F030F29A6
:109A30008DF81230CBB205DC63F01F038DF81330C4
:109A400005ABB0E703F03F01131363F00F0361F0C0
:109A50007F028DF814308DF813200DF11503A2E765
:109A6000BBF5801F08BFBAF1000FBFF472AE4FF014
:109A7000000990E6FFFF0F001895060020950600EC
:109A80000000F07F189406000000F0FF99999919E2
:109A9000002A7FF4FEACF1E42DE9F04F037A0E6862
:109AA00003F07F03023B89B005460C463E2B00F2D3
:109AB000AA82DFE813F069006900B900B900EF007D
:109AC000A8027500A8029400A802FD00A802A8023E
:109AD000A802A802A802A802A802A802A802A80236
:109AE000A802A802A802A802A802A802A802A80226
:109AF000A8025302A802A802A802A802A802A8026B
:109B0000A802A802A802A802A802A802A802A80205
:109B1000A802A802A802A802A802A802A802A802F5
:109B2000A802A802A802A802A802A802A802A802E5
:109B3000A8023F00336830461B685B219847636882
:109B40002D680344636055B9A0E3166815EB03154F
:109B5000104636680FD0B0476368034463602146FF
:109B60002846FFF799FFB5F90A3022682C21002B0F
:109B7000EBD113681E6810465D21B0476368184436
:109B8000606009B0BDE8F08F336842685B680168C7
:109B90003046984763681844606009B0BDE8F08FAC
:109BA000D0E900AB0DF11E094D46504659460A2238
:109BB00000233BF0DFFF30325046594605F8012DB7
:109BC00000230A223BF0D6FF82468B465AEA0B035B
:109BD000EBD13368A9EB050229465B68D8E7D0E9E9
:109BE00000ABBAF1000F7BF10003C0F225830DF149
:109BF0001E094D46504659460A2200233BF0BAFF43
:109C000030325046594605F8012D00230A223BF018
:109C1000B1FF82468B465AEA0B03EBD13368A9EBBE
:109C2000050229465B68B3E73368076845681B6827
:109C3000DFF82083304622219847636803447E1969
:109C40006360B7421BD017F8011B222900F0FA818C
:109C5000BB4B5C255A798A4203F1020300F0F38181
:109C60001D79002DF6D120680368002900F0FF81DE
:109C70001B6898476368B74203446360E3D1206878
:109C8000036822211B68984763681844606009B024
:109C9000BDE8F08F0278336830465B68002A40F0F8
:109CA0008D820522A749984763681844606074E76D
:109CB000D0E9008900220023404649463BF06CFD74
:109CC000002840F0E78142464B46404649463BF07B
:109CD00045F902460B46404649463BF05DFD0028EB
:109CE00040F0918100220023404649463BF05EFD52
:109CF00058B1336830461B682D2198476368266841
:109D000009F100470344B94663606DA3D3E900231A
:109D1000404649463BF05EFD002800F0CC826AA335
:109D2000D3E90023404649463BF054FD002840F06B
:109D3000A182824666A3D3E90023404649463BF010
:109D400049FD60B14046494663A3D3E900233BF097
:109D5000BBFA0AF1800A804689460FFA8AFA60A3A4
:109D6000D3E90023404649463BF034FD60B140460C
:109D700049465DA3D3E900233BF0A6FA0AF1400A65
:109D8000804689460FFA8AFA59A3D3E90023404650
:109D900049463BF01FFD60B14046494656A3D3E912
:109DA00000233BF091FA0AF1200A804689460FFA17
:109DB0008AFA53A3D3E90023404649463BF00AFD03
:109DC00060B14046494650A3D3E900233BF07CFAFA
:109DD0000AF1100A804689460FFA8AFA4CA3D3E9A1
:109DE0000023404649463BF0F5FC60B140464946F9
:109DF00049A3D3E900233BF067FA0AF1080A804639
:109E000089460FFA8AFA46A3D3E900234046494619
:109E10003BF0E0FC60B14046494643A3D3E9002350
:109E20003BF052FA0AF1040A804689460FFA8AFA90
:109E30000022454B404649463BF0CCFC60B14046D1
:109E400049463BA3D3E900233BF03EFA0AF1020A5C
:109E5000804689460FFA8AFA00223C4B4046494622
:109E60003BF0B8FC60B14046494633A3D3E9002338
:109E70003BF02AFA0AF1010A804689460FFA8AFA6B
:109E8000404649463BF0F8FC0928074640F20B8261
:109E9000DFF8C4B02E4903460822A1FB0303DB0808
:109EA000A1FB0B0B092B02F1FF3055B24FEADB0B84
:109EB000C2B2F2D858463BF08DF9CDE90001F3E08B
:109EC00000000000D01263413CBF737FDD4F157569
:109ED000321D30F94877825A9D978CCF08BA5B259E
:109EE000F5F93FE9034F384D3DA7F444FD0FA53286
:109EF000176E05B5B5B8934633A7A8D523F64939EB
:109F00000080E03779C34143BC89D897B2D29C3CEA
:109F10000000000084D797413A8C30E28E79453EAC
:109F2000000000000088C3402D431CEBE2361A3FBE
:109F30007B14AE47E17A843F9A9999999999B93FF0
:109F400004950600209506000000594000002440BA
:109F5000CDCCCCCC5899060000CA9A3B3368304629
:109F60001B687B21984763682F6803446360002F58
:109F700000F085802068FE68036822211B689847EE
:109F800063681844013E606016F8011FB1B12229D0
:109F900045D0B34B5C255A798A4203F102033FD086
:109FA0001D79002DF7D1206803681B689847636806
:109FB0001844606016F8011F0029E8D12068036882
:109FC00022211B689847D4E9002311681844606077
:109FD0000B6810463A219847636818446060214630
:109FE0003846FFF759FDB7F90A302068002B47D0F3
:109FF000026817EB0317126844D02C21904763685E
:10A0000018446060B6E7336896495B6830460422BE
:10A01000984763681844606009B0BDE8F08F0D464A
:10A02000206803685C211B689847D4E90021136805
:10A03000084460601B6829461046984763681844C6
:10A040006060A1E70D46206803685C211B689847A3
:10A05000D4E90023D2F800C0034463602946DCF849
:10A06000003010469847636803446360E9E55B6825
:10A07000062241469847636803446360E1E520682F
:10A0800003681A687D21904763681844606009B0CE
:10A09000BDE8F08F9FED707B8DED007B4FF0000AE7
:10A0A000DFF8CCB15746092538463BF093F8024615
:10A0B0000B46404649463AF04FFFDDE900233BF0AE
:10A0C00003F9CDE900013BF0D7FB80463BF082F875
:10A0D00002460B46DDE900013AF03EFF02460B4620
:10A0E0003AF03CFF3BF0C8FB8044C3456DD80137D4
:10A0F000BAF1000F06D0092F04D90AF1010A0FFAAC
:10A100008AFA01274FF00008002D10DD564A00E0C2
:10A110006DB1A2FB08384FEAD808A2FB0813DB0890
:10A1200003EB8303013DB8EB430F6DB2F0D00DF1AB
:10A130001E094D484946A0FB0723DB0803EB8302B9
:10A14000A7EB4207303701F8017D1F46002BF2D103
:10A15000336830465B68A9EB01029847636818448E
:10A160006060002D3BD1BAF1000F3FF416AD2068BE
:10A17000036865211B6898476368BAF1000F0344C0
:10A1800063601FFA8AF5C0F2838037484946A0FB16
:10A190000532D20802EB8203A5EB4303303395B2BC
:10A1A00001F8013D002DF2D120680368A9EB0102FE
:10A1B0005B689847636818446060EEE404222B49AA
:10A1C0009847636818446060E7E4274BA3FB0823C3
:10A1D000DB0803EB8303B8EB430F95D0A7E7013D02
:10A1E000EEB2C6F10F0002AB1F4D184406A9A5FB45
:10A1F0000823DB0803EB8302A8EB420808F13002D6
:10A2000001F8012D81429846F1D108AB9B1B2E220B
:10A21000206803F80A2C03686FF00102921B06A95C
:10A220005B68114452429847636818446060BAF111
:10A23000000F3FF4B2AC9AE7336830461B682D211B
:10A240009847D4E90063DAF1000A03446BEB4B0B47
:10A250006360CCE4AFF300800000000065CDCD4129
:10A260000495060028950600CDCCCCCC18950600A8
:10A2700000CA9A3B4046494680A3D3E900233BF0FD
:10A2800023F84FF4807A8046894653E5226870E4CB
:10A29000206803682D211B68984762686B4202445E
:10A2A0009DB2626071E79FED6E7BDFF850B28DED7D
:10A2B000007B0925F8E600220023404649463BF092
:10A2C00093FA002800F0BD806EA3D3E90023404636
:10A2D00049463BF075FA002800F0B3806BA3D3E940
:10A2E0000023404649463BF061FA002840F0AB802D
:10A2F000824668A3D3E90023404649463BF056FA1C
:10A3000060B14046494665A3D3E900233AF0DCFF3B
:10A31000AAF1800A804689460FFA8AFA61A3D3E936
:10A320000023404649463BF041FA60B14046494669
:10A330005EA3D3E900233AF0C7FFAAF1400A8046A2
:10A3400089460FFA8AFA5BA3D3E9002340464946BF
:10A350003BF02CFA60B14046494658A3D3E90023AC
:10A360003AF0B2FFAAF1200A804689460FFA8AFA2B
:10A3700054A3D3E90023404649463BF017FA60B1A5
:10A380004046494651A3D3E900233AF09DFFAAF184
:10A39000100A804689460FFA8AFA4EA3D3E90023B1
:10A3A000404649463BF002FA60B1404649464BA35D
:10A3B000D3E900233AF088FFAAF1080A80468946CB
:10A3C0000FFA8AFA47A3D3E90023404649463BF0F7
:10A3D000EDF960B14046494644A3D3E900233AF081
:10A3E00073FFAAF1040A804689460FFA8AFA41A34C
:10A3F000D3E90023404649463BF0D8F958B14046DE
:10A40000494600221A4B3AF05FFFAAF1020A804641
:10A4100089460FFA8AFA0022164B404649463BF01D
:10A42000C5F900283FF42CAD404649460022124BA6
:10A430003AF04AFF0AF1FF3A804689460FFA8AFA53
:10A440001EE582461CE54046494607A3D3E90023A2
:10A450003AF03AFF6FF0FF0A8046894649E700BFAD
:10A460000000000065CDCD413CBF737FDD4F157509
:10A47000000059400000F03F00002440436FAC64EE
:10A480002806C80AF168E388B5F8E43E148BD77D46
:10A49000B207FE0AC2DEB78145549125321D30F95C
:10A4A0004877825A0CD13196FC53DA32F5F93FE9FC
:10A4B000034F384D80688965D6398039176E05B5E8
:10A4C000B5B893461656E79EAF03D23C0080E037FE
:10A4D00079C3414348AFBC9AF2D77A3E00000000EE
:10A4E00084D79741FCA9F1D24D62503F0000000093
:10A4F0000088C3409A9999999999B93F00CA9A3BA3
:10A500002DE9F0410546AAB04FF0FF31406831F027
:10A5100033FD6B7A2BB9686831F0EEF82AB0BDE8EC
:10A52000F081BF490EA81AF019FA0EA80222296874
:10A530001AF054FB002800F04F824FF4806030F096
:10A54000CBFD002800F051840023202200F580611B
:10A5500000F57C768DF83020CDE9040007918DF868
:10A560002030CDE90A330696EA7AEF6800F1100848
:10A57000002E00F04982A0F8FA33AA4CC0F8FC4340
:10A580000821D2B2002380F8F813CDE90A66C6E9A3
:10A590000023F468002C00F0308220463CF057FD88
:10A5A000162840F02A822378522B40F026829E4BB8
:10A5B0002046153413F8011F10F8012F914240F086
:10A5C0001C82A042F6D133461A7A1F6022F07F0225
:10A5D000002142F008021A7259609DF830302F694C
:10A5E000590640F01F82002223F07F03CDE90A22A2
:10A5F00043F020038DF83030DDE90523103293421B
:10A60000C0F0E083A3F110060696002E00F0DD8373
:10A610000B9A002A00F00F84B11A091151810B9690
:10A620000022824923F8062C03F8082C43F8041C66
:10A63000337A376023F07F0343F00803002272600F
:10A6400033729DF830302F7D13F07F0200F03D8390
:10A6500003F02003002B00F012840A9E002E00F06D
:10A660003C83F468002C00F0298220463CF0EFFC8B
:10A67000152840F023822378442B40F01F826C4B36
:10A680002046143413F8011F10F8012F914240F0B6
:10A6900015828442F6D1337AF8B2002123F07F0389
:10A6A000C6E9000143F0080333729DF83030AF690A
:10A6B00013F07F0200F0E48203F02003002B00F08F
:10A6C000D6830A9E002E00F0E382F468002C00F08E
:10A6D000EB8120463CF0BBFC152840F0E581237857
:10A6E000442B40F0E181534B2046143413F8011FF2
:10A6F00010F8012F914240F0D781A042F6D1337A71
:10A70000376023F07F0343F0080300223372726046
:10A710009DF83030EF6913F07F0200F0028303F000
:10A720002003002B00F0A9830A9E002E00F0018375
:10A73000F468002C00F0AE8120463CF088FC142820
:10A7400040F0A8812378442B40F0A4813A4B204666
:10A75000133413F8011F10F8012F914240F09A8131
:10A76000A042F6D1337A376023F07F0343F0080329
:10A770000022337272609DF8303003F07F026F6AFE
:10A78000002A00F0C58203F02003002B00F0718343
:10A790000A9C002C00F0A381E668002E00F098814E
:10A7A00030463CF054FC0E2840F092813378442B24
:10A7B00040F08E817378452B40F08A81B378542B1A
:10A7C00040F08681F3785F2B40F082813379542BFF
:10A7D00040F07E817379522B40F07A81B379452B1A
:10A7E00040F07681F379532B40F07281337A482B15
:10A7F00040F06E81737A4F2B40F06A81B37A4C2B14
:10A8000040F06681F37A442B40F06281337B5F2B0A
:10A8100040F05E81737B472B40F05A810EE000BF11
:10A82000C06500200C980600249806003C9806009D
:10A83000549806006C98060084980600237A23F04A
:10A840007F0343F00C03384623723AF0E5FCC4E979
:10A8500000019DF8303003F07F02AF6A002A00F05B
:10A86000F58103F02003002B00F005830A9C002CE7
:10A8700000F05981E668002E00F04E8130463CF031
:10A88000E6FB0F2840F048813378442B40F04481A8
:10A890007378452B40F04081B378542B40F03C81D5
:10A8A000F3785F2B40F038813379542B40F03481BA
:10A8B0007379522B40F03081B379452B40F02C81D5
:10A8C000F379532B40F02881337A482B40F02481D0
:10A8D000737A4F2B40F02081B37A4C2B40F01C81CF
:10A8E000F37A442B40F01881337B5F2B40F01481C6
:10A8F000737B4D2B40F01081B37B532B40F00C81C8
:10A90000237A23F07F0343F00C03384623723AF096
:10A9100083FCC4E900019DF8303003F07F02EF6A48
:10A92000002A00F06E8103F02003002B00F0548118
:10A930000A9E002E00F06D81F468002C00F0A080CB
:10A9400020463CF084FB142840F09A802378482B62
:10A9500040F09680C24B2046133413F8011F10F8C4
:10A96000012F914240F08C80A042F6D1337A3760BB
:10A9700023F07F0343F008030022726033729DF8D6
:10A98000303095F8307013F07F0240F0E98023F00A
:10A990007F03CDE90A2243F020038DF83030DDE952
:10A9A000053210339A42C0F00982A2F110030693D7
:10A9B000002B00F011810B99002900F04F82581AEA
:10A9C000001148810B930021A64822F8061C02F8CA
:10A9D000081C42F8040CF8E0A349A4482FF0B0FC8E
:10A9E00000236B720EA8A24B0E932FF0ADFB68688C
:10A9F00030F082FE2AB0BDE8F081B6F90A301BB112
:10AA000016EB03167FF4C5AD069A424580F0FD8132
:10AA100001238DF820309DF830302F695A063FF41D
:10AA2000E2AD03E013F0200300F02B820A9E002E1B
:10AA30003FF4E2ADF468D4B120463CF008FB1528A1
:10AA400015D12378522B12D120468A4B10F8012FB2
:10AA500013F8011F914204F1140408D1A0423FF4FD
:10AA6000E7AD13F8011F10F8012F9142F6D0B6F9A7
:10AA70000A30002B3FF4C0AD16EB0316DAD1BBE56C
:10AA8000B6F90A30002B00F0C48016EB03167FF4F1
:10AA900053AFBEE0B6F90A30002B00F04A8116EB46
:10AAA00003167FF445AE44E1B6F90A30002B00F0FE
:10AAB000EF8016EB03167FF408AEE9E0B6F90A3032
:10AAC000002B00F00A8116EB03167FF4CAAD04E1F7
:10AAD000B4F90A301BB114EB03147FF45DAEDDE969
:10AAE000053210339A42C0F05781A2F11004069447
:10AAF000002C3FF4AEAE0B9B002B00F0AC81E11AB2
:10AB0000091159810B9400235B4922F8063C02F895
:10AB1000083C42F8041C91E6B4F90A301BB114EB6E
:10AB200003147FF4A7AEDDE9053210339A42C0F07A
:10AB30002B81A2F110040694002C3FF4ECAE0B9B89
:10AB4000002B00F08581E11A091159810B94002333
:10AB50004A4922F8063C02F8083C42F8041CCFE6B9
:10AB6000980639D50A9C002C3FF419AFE668002EF0
:10AB700000F0FB8030463CF06AFA092840F0F5808E
:10AB800033784C2B40F0F1807378522B40F0ED80FD
:10AB9000B3785F2B40F0E980F378412B40F0E580FB
:10ABA0003379432B40F0E1807379432B40F0DD8013
:10ABB000B3795F2B40F0D980F379452B40F0D580F5
:10ABC000337A4E2B40F0D18023461A7A1F7022F040
:10ABD0007F0242F006021A7200230EAA69460AA8F2
:10ABE000CDE90023FEF758FF002800F0C8800EA82A
:10ABF0001AF068F9049800283FF4F2AE30F086FAB3
:10AC0000EEE623F07F03CDE90A2243F020038DF81E
:10AC10003030DDE9052310329342C0F0D880A3F133
:10AC200010060696002E00F0D5800B9A002A00F040
:10AC30001881B11A091151810B960022084923F895
:10AC4000062C03F8082C43F8041C8FE623F07F033E
:10AC500043F020038DF83030CDE90A2263E700BFCE
:10AC6000BC980600D4980600F4970600BC7D00202E
:10AC7000F49306003C9806009C980600AC980600E9
:10AC800023F07F03CDE90A2243F020038DF8303012
:10AC9000DDE9052310329342C0F08680A3F110064F
:10ACA0000696002E00F083800B9A002A00F0C780E1
:10ACB000B11A091151810B960022734923F8062C11
:10ACC00003F8082C43F8041C19E523F07F03CDE9B1
:10ACD0000A2243F020038DF83030DDE905231032DD
:10ACE000934266D3A3F110060696002E64D00B9A09
:10ACF000002A00F0AA80B11A091151810B96002296
:10AD0000624923F8062C03F8082C43F8041CC2E41B
:10AD100023F07F0343F020038DF83030CDE90A2281
:10AD2000DDE623F07F03CDE90A2243F020038DF80E
:10AD30003030DDE90523103293424ED3A3F11006E3
:10AD40000696002E3FF417AD0B9A002A00F08C8077
:10AD5000B11A091151810B9600224D4923F8062C96
:10AD600003F8082C43F8041CFCE4B4F90A30002B67
:10AD70003FF415AE14EB03147FF4F8AE0FE645492B
:10AD800045482FF0DDFA32E79DF83030012103F01D
:10AD90007F028DF82010C2E59DF83030012103F0CC
:10ADA0007F028DF8201058E501238DF82030EF69DF
:10ADB000BAE401238DF82030AF6982E401238DF8D5
:10ADC000203009E701238DF820302F7D45E4012351
:10ADD0008DF8203095F83070C4E69DF830300121B0
:10ADE00003F07F028DF82010C9E420220123CDE971
:10ADF0000400CDE90600CDE90A008DF830208DF879
:10AE00002030EF684FF01008FEE5A2F11003069322
:10AE1000002B3FF400AE0B99A1B1581A00114881E4
:10AE20000B9300211D4822F8061C02F8081C42F86A
:10AE3000040CFFF7C9BBCDE90A66FFF7F1BBCDE90A
:10AE40000A6639E7CDE90A33EBE7CDE90A6656E74A
:10AE5000CDE90A447BE6CDE90A4454E6CDE90A335C
:10AE6000B1E5CDE90A66E8E6CDE90A6674E7EF697F
:10AE700057E4AF6AF7E4EF6A57E56F6A85E4AF69B4
:10AE80001CE42F7DFFF7E6BB6C9806005498060083
:10AE900084980600E0980600BC7D002024980600F7
:10AEA00030B500239DB00D46044683720D496846B7
:10AEB00019F054FD2DB92A462168684619F08EFE16
:10AEC00060B9012565722046FFF71AFBA572064B93
:10AED000009368462FF038F91DB030BD684619F070
:10AEE000F1FFF4E7C0650020F493060000000000C5
:10AEF0002DE9F04F4FF0FF31CBB00446406831F000
:10AF00003BF847492EA819F029FD21682EA80022F8
:10AF100019F064FE0190002800F0F0814FF4806089
:10AF200030F0DAF80746002800F00F8200F5806C58
:10AF30000CAD06AB06950FCB16AE86E80F002EAA19
:10AF400030461B9200264FF00A034FF0000212A970
:10AF50001D95CDE90C77CDE90ECC8DF850608DF8BC
:10AF600040608DF868608DF87160FDF7FDFF002886
:10AF700040F0D4819DF87030002B40F005829DF8A0
:10AF8000507017F0200755D0129D002D52D0DFF8D9
:10AF90009480A946D9F80C60002E45D030463CF08C
:10AFA00056F8162840D13378522B3DD11D4B3046F0
:10AFB000153613F8011F10F8012F914234D1B04219
:10AFC000F7D1A946D9F80C60002E00F04281304636
:10AFD0003CF03DF8162840F03C813378522B40F08D
:10AFE000388130464346153613F8011F10F8012FFB
:10AFF000914240F02E81B042F6D199F8083003F02A
:10B000007F03043B082B00F22B81DFE813F0770667
:10B0100077067306290164052901640529014F0695
:10B02000C06500200C980600B9F90A3013B119EB7D
:10B030000319AFD110220123E2726372C449C548DB
:10B040002FF07EF99DF8507017F0200740F05C85D6
:10B050004FF4C8520123E2606372BF49BD482FF02C
:10B060006FF99DF8507017F0200740F0BA874FF441
:10B070007A72012322616372B849B6482FF060F9F1
:10B080009DF8507017F0200740F0B4870822012384
:10B0900022756372B249AF482FF052F99DF8507093
:10B0A00017F0200740F0AD874FF4C8720123A2616A
:10B0B0006372AC49A7482FF043F99DF8507017F020
:10B0C000200740F0A5874FF47A720123E261637292
:10B0D000A549A0482FF034F99DF8507017F02007CB
:10B0E00040F079874FF07E520123626263729F497C
:10B0F00098482FF025F99DF8507007F02007002F91
:10B1000000F02784DDF84880B8F1000F00F02184BA
:10B110004646F568002D00F0158428463BF097FF61
:10B120000F2840F00F842B78442B40F00B846B7871
:10B13000452B40F00784AB78542B40F00384EB7828
:10B140005F2B40F0FF832B79542B40F0FB836B790E
:10B15000522B40F0F783AB79452B40F0F383EB792A
:10B16000532B40F0EF832B7A482B40F0EB836B7A24
:10B170004F2B40F0E783AB7A4C2B40F0E383EB7A24
:10B18000442B40F0DF832B7B5F2B40F0DB836B7B1A
:10B190004D2B40F0D783AB7B532B40F0D383D8F8B3
:10B1A0000C50002D00F0F78028463BF050FF0F2890
:10B1B00040F0F1802B78442B40F0ED806B78452BEC
:10B1C00040F0E980AB78542B40F0E580EB785F2BC2
:10B1D00040F0E1802B79542B40F0DD806B79522BCD
:10B1E00040F0D980AB79452B40F0D580EB79532BDB
:10B1F00040F0D1802B7A482B40F0CD806B7A4F2BDA
:10B2000040F0C980AB7A4C2B40F0C580EB7A442BE0
:10B2100040F0C1802B7B5F2B40F0BD806B7B4D2BC2
:10B2200040F0B980AB7B532B40F0B58098F80830E4
:10B2300003F07F03043B082B00F2B480DFE813F037
:10B240006B046B042E05B2000F05B2002A06B20093
:10B250002206B9F90A2022B119EB02197FF4B2AE25
:10B260000022E272AA46DFF80891EE68002E00F094
:10B27000DA8330463BF0EBFE162840F0D483337877
:10B28000522B40F0D0833A4B3046153613F8011F4D
:10B2900010F8012F914240F0C683B042F6D1D0465B
:10B2A000D8F80C50002D00F0648128463BF0CFFE0A
:10B2B000162840F05E812B78522B40F05A812846A8
:10B2C0004B46153513F8011F10F8012F914240F03D
:10B2D0005081A842F6D198F8083003F07F03043B70
:10B2E000082B00F24D81DFE813F0AE05AE05AA058C
:10B2F0004B01EE034B01EE034B016A0522681D4929
:10B3000014482FF01DF8606830F0F6F91A4B2E93B0
:10B310002EA82EF019FF4BB0BDE8F08F05462EA8E1
:10B3200019F0D0FD012363722046FFF7E9F8134BB3
:10B33000226853F82530124906482FF001F80C987E
:10B340000028E0D02FF0E2FEDDE78446F0E500BF04
:10B3500078950600BC7D0020B8950600F89506009B
:10B360003496060070960600AC960600E896060035
:10B370002498060030950600F4930600046000202F
:10B3800050950600000000009DF8503019077FF529
:10B39000F6AD0325C3E7B8F90A301BB118EB031863
:10B3A0007FF4FDAE1FED090A84ED0A0A002F00F0BC
:10B3B000F582DDF84880B8F1000F00F0EF82954E7D
:10B3C000C146D9F80C50002D00F0E18228463BF030
:10B3D0003EFE142840F0DB822B78482B40F0D782C9
:10B3E0008C4B2846133513F8011F10F8012F91429A
:10B3F00040F0CD828542F6D1D8F80C5025B32846CE
:10B400003BF025FE14281FD12B78482B1CD1284651
:10B410003346133513F8011F10F8012F914213D151
:10B42000A842F7D198F8083003F07F03043B082BBB
:10B4300010D8DFE813F0E504E504E1040F00300361
:10B440000F0030030F00A904B8F90A0018B118EB77
:10B450000018D1D10020E062002F00F08E82129FF0
:10B46000002F00F08A823E46F568002D00F07E82B3
:10B4700028463BF0ECFD092840F078822B784C2BD5
:10B4800040F074826B78522B40F07082AB785F2B67
:10B4900040F06C82EB78412B40F068822B79432B93
:10B4A00040F064826B79432B40F06082AB795F2B74
:10B4B00040F05C82EB79452B40F058822B7A4E2B82
:10B4C00040F05482FD68002D00F0B88228463BF021
:10B4D000BEFD092840F0B2822B784C2B40F0AE82A2
:10B4E0006B78522B40F0AA82AB785F2B40F0A6829B
:10B4F000EB78412B40F0A2822B79432B40F09E82C7
:10B500006B79432B40F09A82AB795F2B40F09682A7
:10B51000EB79452B40F092822B7A4E2B40F08E82B5
:10B520003B7A03F07F030C2B1BD8DFE813F0DF021C
:10B530001A001A001A001A001A00E2021A00E502A4
:10B540001A00E5021A000D0000220023D7E90001CD
:10B550004FF001053AF020F908B14FF00005EBB2C9
:10B5600001939DF8043084F830302EA819F0AAFC1D
:10B57000E5E6B8F90A2022B118EB02187FF490AE84
:10B580000022E2605646DFF890B0DAF80C50002D49
:10B5900000F03E8228463BF05AFD152840F03882E4
:10B5A0002B78522B40F034821B4B2846143513F86D
:10B5B000011F10F8012F914240F02A82A842F6D1D3
:10B5C000B146D9F80C504DB328463BF040FD152844
:10B5D00024D12B78522B21D128465B46143513F801
:10B5E000011F10F8012F914218D1A842F7D199F804
:10B5F000083003F07F03043B082B15D8DFE813F075
:10B600000E030E030B031400430214004302140044
:10B61000CC0200BFBC9806003C980600B9F90A208D
:10B620001AB119EB0219CCD1002222613546DFF89C
:10B63000CC81B146D9F80C60002E00F0D3813046A1
:10B640003BF005FD152840F0CD813378442B40F0C8
:10B65000C9816A4B3046143613F8011F10F8012FC8
:10B66000914240F0BF81B042F6D1A946D9F80C60B2
:10B6700026B330463BF0EBFC15281FD13378442B22
:10B680001CD130464346143613F8011F10F8012F21
:10B69000914213D1B042F7D199F8083003F07F03FB
:10B6A000043B082B10D8DFE813F0950295029202B4
:10B6B0000F00E4010F00E4010F005C02B9F90A2059
:10B6C0001AB119EB0219D1D1002222752E46DFF8EA
:10B6D0003081A946D9F80C50002D00F07881284619
:10B6E0003BF0B5FC152840F072812B78442B40F0DC
:10B6F0006E81434B2846143513F8011F10F8012FB3
:10B70000914240F06481A842F6D1B146D9F80C507C
:10B7100025B328463BF09BFC15281FD12B78442BE2
:10B720001CD128464346143513F8011F10F8012F89
:10B73000914213D1A842F7D199F8083003F07F0362
:10B74000043B082B10D8DFE813F0FE02FE02FB02D8
:10B750000F008C010F008C010F00C903B9F90A20FA
:10B760001AB119EB0219D1D10022A2613546DFF8D6
:10B770009480B146D9F80C60002E00F01D8130464F
:10B780003BF065FC142840F017813378442B40F0DF
:10B7900013811C4B3046133613F8011F10F8012F8C
:10B7A000914240F00981B042F6D1A946D9F80C6027
:10B7B00066B330463BF04BFC142827D13378442B3A
:10B7C00024D130464346133613F8011F10F8012FD9
:10B7D00091421BD1B042F7D199F8083003F07F03B2
:10B7E000043B082B18D8DFE813F0D203D2039503EB
:10B7F000170034011700340117005D035498060048
:10B800006C9806008498060000000000B9F90A2030
:10B810001AB119EB0219C9D10022E261A846EE68FB
:10B82000002E00F0EA8030463BF011FC0E2840F07C
:10B83000E4803378442B40F0E0807378452B40F06F
:10B84000DC80B378542B40F0D880F3785F2B40F045
:10B85000D4803379542B40F0D0807379522B40F050
:10B86000CC80B379452B40F0C880F379532B40F05E
:10B87000C480337A482B40F0C080737A4F2B40F05D
:10B88000BC80B37A4C2B40F0B880F37A442B40F064
:10B89000B480337B5F2B40F0B080737B472B40F04C
:10B8A000AC80D8F80C50002D40D028463BF0CFFBA0
:10B8B0000E283BD12B78442B38D16B78452B35D1D2
:10B8C000AB78542B32D1EB785F2B2FD12B79542BC3
:10B8D0002CD16B79522B29D1AB79452B26D1EB7921
:10B8E000532B23D12B7A482B20D16B7A4F2B1DD190
:10B8F000AB7A4C2B1AD1EB7A442B17D12B7B5F2BD5
:10B9000014D16B7B472B11D198F8083003F07F03DB
:10B91000043B082B10D8DFE813F0150315030E03C2
:10B920000F0007030F0000030F00E601B8F90A300B
:10B9300013B118EB0318B4D11FED4D0A84ED090AB9
:10B94000FFF7DDBBB6F90A301BB116EB03167FF427
:10B95000E0ABCB4AA26201236372CA49CA482EF007
:10B96000EFFC9DF8507007F020071FE5B6F90A308C
:10B970001BB116EB03167FF477AD0022012384F888
:10B9800030206372C149C0482EF0DAFCEDE5B9F908
:10B990000A301BB119EB03197FF413AD4AF6C0024C
:10B9A0000123E2626372BA49B7482EF0C9FC9DF8E0
:10B9B000507007F020074FE5B9F90A30002B3FF42B
:10B9C00082AB19EB03197FF4D5AEFFF77CBBB9F955
:10B9D0000A30002B3FF468AB19EB03197FF47AAE01
:10B9E000FFF762BBB9F90A30002B3FF44FAB19EBFC
:10B9F00003197FF41FAEFFF749BBB5F90A30002BDE
:10BA00003FF470AB15EB03157FF409AFFFF76ABB8A
:10BA1000BAF90A30002B3FF42AAB1AEB031A7FF471
:10BA2000B4ADFFF724BBB5F90A30002B3FF410ABDF
:10BA300015EB03157FF419ACFFF70ABBB7F90A3011
:10BA4000002B00F0C58217EB03177FF43BAD019785
:10BA500087E5D9E90023012B08BF002A28BF00226F
:10BA6000DBE6D9E90023012B08BF002A28BF00220A
:10BA70007BE6D9E90023002B08BFB2F5807FBFF435
:10BA800023AED2B221E6D9E90023012B08BF002A58
:10BA900028BF0022C9E5D8E90001012908BF002814
:10BAA000BFF4D8AC7B4B98427FF6D5AC01236372D0
:10BAB000794975482EF044FC9DF850704AF6C00054
:10BAC00007F02007C7E4D8E90023012B08BF002AAC
:10BAD00028BF002255E5D9E90023002B08BFB2F5A5
:10BAE000807FBFF4BDABD2B2FFF7BBBB0023019395
:10BAF00037E53B78019334E5D7E90023134314BFBE
:10BB00000123002301932CE5129D002D3FF4A0AAF0
:10BB1000AA46FFF7A8BBD8F800A000228DF8602045
:10BB20009AF800302B2B01F01D822D2B41F017824B
:10BB3000019A9AF8013004920AF1010AA3F1300B3C
:10BB40005FFA8BFBBBF1090F40F2DA842E2B01F078
:10BB5000BD8316A8FCF7A0FC9DF8507007F02007E5
:10BB600022E4D9E90089002200234046494639F001
:10BB700031FE00283FF4A8AD3DA3D3E900234046A1
:10BB8000494639F01DFE002801F00582404649462D
:10BB900039F072FEC2B298E5D9E90089002200238B
:10BBA0004046494639F016FE002800F0388232A39C
:10BBB000D3E900234046494639F002FE002800F050
:10BBC0002E824046494639F057FE02462DE599F847
:10BBD00000207AE5D9F8008000228DF8602098F8DE
:10BBE00000302B2B01F0C8812D2B41F0C281019A2E
:10BBF00098F80130049208F10108A3F13002D2B2A2
:10BC0000092A40F211862E2B01F0BE8216A8FCF7FD
:10BC1000D3F8024659E599F8002006E5D9F80080E6
:10BC200000228DF8602098F800302B2B01F09081D5
:10BC30002D2B41F08A81019A98F80130049208F185
:10BC40000108A3F13002D2B2092A40F21A852E2B44
:10BC500001F0D28216A8FCF767FA0246E5E4D8E9BB
:10BC6000000139F041FF00EE100AFFF79DBB00BF55
:10BC70000000000000E06F400000E0FFFFFFEF4128
:10BC80000000204120970600BC7D0020C4970600DC
:10BC90008897060020DE01005897060098F80030CB
:10BCA00000EE103AB8EE400AFFF77EBBD9E90089F2
:10BCB000002200234046494639F08CFD00283FF41D
:10BCC000CFAA0FF2A863D3E900234046494639F0D2
:10BCD00077FD002801F062814046494639F0CCFDED
:10BCE000C2B2FFF7BEBAD8E9000139F0E5FD00EEB7
:10BCF000100A23E699F80020FFF7B3BAD9F80080BC
:10BD000000228DF8602098F800302B2B01F0F08095
:10BD10002D2B41F0EA80019A98F80130049208F145
:10BD20000108A3F13002D2B2092A40F244822E2B3C
:10BD300001F0BB8116A8FCF73FF80246FFF791BA65
:10BD400099F8002011E5D9F8008000228DF86020D4
:10BD500098F800302B2B01F0D5802D2B41F0CF80AF
:10BD6000019A98F80130049208F10108A3F1300219
:10BD7000D2B2092A40F2CE872E2B01F0CE8116A82E
:10BD8000FCF7D2F90246F0E4D8E900AB0022002328
:10BD90005046594639F01EFD00283FF45CAB0FF2C7
:10BDA000D453D3E900235046594639F009FD002801
:10BDB0003FF451AB5046594639F05EFD72E6D8E982
:10BDC0000089002200234046494639F003FD00283F
:10BDD00000F028810FF29C53D3E9002340464946E6
:10BDE00039F0EEFC002800F01D814046494639F04C
:10BDF00043FD0246FFF7C5BB98F80000FFF72BBBD9
:10BE0000D8F8005000228DF860202B782B2B01F001
:10BE1000BD802D2B41F0B780019A6B7804920135DB
:10BE2000A3F1300B5FFA8BFBBBF1090F40F2C88521
:10BE30002E2B01F0B68016A8FCF776F932E698F8BA
:10BE40000020FFF79EBBD8F8006000228DF860202C
:10BE500033782B2B01F06A802D2B41F06480019AFE
:10BE6000737804920136A3F13002D2B2092A40F26B
:10BE70006D822E2B01F0F88116A8FCF755F90246C9
:10BE8000FFF77FBBD8E9000139F016FD00EE100A7C
:10BE9000FFF78ABAD8E9000139F02EFE00EE100A49
:10BEA000FFF782BAD9E900890022002340464946BB
:10BEB00039F090FC002800F0B8800FF2B843D3E9C5
:10BEC00000234046494639F07BFC002800F0AD8055
:10BED0004046494639F0D0FC02469EE4D9E9008943
:10BEE000002200234046494639F074FC002800F047
:10BEF0009F800FF28043D3E900234046494639F042
:10BF00005FFC002800F094804046494639F0B4FCBC
:10BF100002462AE499F800207FE4D8E9000139F0CC
:10BF2000EBFD00EE100A09E5D8E9000139F0DCFD6F
:10BF300000EE100A02E598F8003000EE103AB8EE74
:10BF4000400AFBE4D8F800A000228DF860209AF89F
:10BF500000302B2B00F0F2872D2B40F0EC87019A5C
:10BF60009AF8013004920AF1010AA3F1300B5FFA4A
:10BF70008BFBBBF1090F5ED92E2B01F0DF8116A8D8
:10BF8000FCF78AFA9DF8507007F02007D6E4D9F83C
:10BF9000008000228DF8602098F800302B2B00F0F4
:10BFA000BB872D2B40F0B587019A98F80130049299
:10BFB00008F10108A3F13002D2B2092A40F2DE856D
:10BFC0002E2B01F03B8016A8FCF7AEF8024624E4C5
:10BFD0000193FFF7C6BA129D002D3FF483A8A8462F
:10BFE0001DE4DDF848A0BAF1000F3FF440A8564622
:10BFF000FFF7C9BA129E002E3FF448A83546FFF756
:10C0000016BB129D002D3FF44FA82E46FFF75FBBD5
:10C01000129E002E3FF457A83546FFF7A8BB0246F4
:10C02000FFF703BB0246FFF7ACBA0246FFF7F5BBCA
:10C030000246FFF79ABB002000215FFA8BFB4FF00E
:10C04000000CCDE90201A6461BE00D46C44904469A
:10C05000A9424FF0993008BFA04229462046C0F0BF
:10C06000318714EB080045EB0901041841EB010589
:10C07000AB422046294608BFA242CDE90201C0F0EA
:10C0800021871AF8016F10EB0B00A6F1300741EB86
:10C090000C01FFB28B005FFA87FB4FF0000C092FF9
:10C0A00043EA9079CDE902014FEA80086FEA0B027A
:10C0B0006FEA0C03C9D97446002E41F0C184049B79
:10C0C000002B01F08181B1F1004F08BF0128C1F0C0
:10C0D0008A82DFF8949200254FF0FF380A2200236D
:10C0E00039F048FD894505F1010508BF80452DB2AD
:10C0F000F4D3092F07D81AF8016FA6F130030135E0
:10C10000092B2DB2F7D92E2E01F01B8106F0DF038B
:10C11000452B2F4621D0002E7FF431AF39F09EF809
:10C12000002F41F343848F4E0025FA0706D5EBB26A
:10C1300006EBC303D3E9002339F0C6F87F1005F1FD
:10C140000105F2D1049B13B101F1004319460C2300
:10C15000CDE916018DF8603011E79AF801602D2EB7
:10C1600001F0A0812B2E01F09183A6F13003DAB209
:10C17000092A0AF1010ACED81F462B44B3F59A7F4B
:10C1800001F377834FF0000E06E003EB4C077B19B9
:10C19000B3F59A7F01F39A811AF8016FA6F1300383
:10C1A000DAB2092A07EB870CEFD9BEF1000F41F094
:10C1B000D8822F44AFE7D0B200214FF0000B4FF0F0
:10C1C000000CBE4616E0664B4FF09932634508BF3F
:10C1D0005A45C0F07186DDE9022312EB0B0243EBF6
:10C1E0000C0312EB020B43EB030C674508BF5E45E3
:10C1F000C0F0628618F8019F1BEB000B4CEB010CA2
:10C20000A9F1300A4FEA8C014FEA8B035FFA8AFAF0
:10C2100002935FFA8AF041EA9B73BAF1090F4FF07B
:10C22000000103936FEA00066FEA0107CBD9774656
:10C23000B9F1000F41F02184049B002B01F0E7804D
:10C24000BCF1004F08BFBBF1010FC1F020810026F7
:10C25000584661460A22002339F08CFC424B4FF0CD
:10C26000FF328B4206F1010608BF824283468C46AC
:10C2700036B2EDD3BAF1090F07D818F8019FA9F12A
:10C2800030030136092B36B2F7D9B9F12E0F00F081
:10C29000118709F0DF03452BB24628D0B9F1000F12
:10C2A0007FF448AD5846614638F0D8FFBAF1000F28
:10C2B00041F38283DFF8AC8000261AF0010F06D02C
:10C2C000F3B208EBC303D3E9002338F0FDFF5FEAC4
:10C2D0006A0A06F10106F0D1049B13B101F1004393
:10C2E00019460C23CDE916018DF8603022E598F847
:10C2F0000190B9F12D0F01F05381B9F12B0F01F02D
:10C30000A882A9F13003DAB2092A08F10108C5D8D8
:10C310009A463344B3F59A7F01F38E82002007E0FA
:10C3200003EB410A0AEB0603B3F59A7F01F34E8152
:10C3300018F8019FA9F13003DAB2092A0AEB8A0141
:10C34000EED9002841F05782B244A7E7D0B20021CD
:10C350004FF0000B4FF0000CA64626E0AFF3008034
:10C360009999991960940600FFFF0F0000000000E2
:10C3700000E06F400000E0FFFFFFEF41C54B4FF0D2
:10C380009932634508BF5A45C0F09985DDE902231B
:10C3900012EB0B0243EB0C0312EB020B43EB030C0F
:10C3A000654508BF5C45C0F08A8516F8018F1BEB18
:10C3B000000B4CEB010CA8F130094FEA8C014FEA5D
:10C3C0008B035FFA89F902935FFA89F041EA9B7364
:10C3D000B9F1090F4FF0000103936FEA00046FEA0F
:10C3E0000105CBD97446B8F1000F41F05083049B8E
:10C3F000002B01F01380BCF1004F08BFBBF1010F0F
:10C40000C1F054810025584661460A22002339F0C4
:10C41000B1FBA14B4FF0FF328B4205F1010508BF84
:10C42000824283468C462DB2EDD3B9F1090F07D86D
:10C4300016F8018FA8F130030135092B2DB2F7D979
:10C44000B8F12E0F00F0158708F0DF03452BA94641
:10C4500027D0B8F1000F7FF40FAD5846614638F091
:10C46000FDFEB9F1000F41F380828C4E002519F0DA
:10C47000010F06D0EBB206EBC303D3E9002338F07B
:10C4800023FF5FEA690905F10105F0D1049B13B1AF
:10C4900001F1004319460C23CDE916018DF86030F7
:10C4A000EAE496F80180B8F12D0F01F05680B8F15A
:10C4B0002B0F01F06681A8F13003DAB2092A06F1E8
:10C4C0000106C6D899462B44B3F59A7F01F34C81F7
:10C4D000002007E003EB410909EB0503B3F59A7F60
:10C4E00001F3518016F8018FA8F13003DAB2092A5E
:10C4F00009EB8901EED9002841F00882A944A8E798
:10C50000002000215FFA8BFB4FF0000CCDE9020107
:10C51000A6461BE00D465F490446A9424FF09930FC
:10C5200008BFA04229462046C0F0D38414EB08007F
:10C5300045EB0901041841EB0105AB4220462946B1
:10C5400008BFA242CDE90201C0F0C3841AF8016F0E
:10C5500010EB0B00A6F1300741EB0C01FFB28B0092
:10C560005FFA87FB4FF0000C092F43EA9079CDE981
:10C5700002014FEA80086FEA0B026FEA0C03C9D987
:10C580007446002E41F05382049B002B00F02A8752
:10C59000B1F1004F08BF0128C1F07E80DFF8F890AC
:10C5A00000254FF0FF380A22002339F0E3FA8945CD
:10C5B00005F1010508BF80452DB2F4D3092F07D836
:10C5C0001AF8016FA6F130030135092B2DB2F7D906
:10C5D0002E2E00F07E8606F0DF03452B2F4622D05C
:10C5E000002E7FF4B6AA38F039FE002F41F3FC810B
:10C5F0002A4E0025FB0706D5EBB206EBC303D3E9B1
:10C60000002338F061FE7F1005F10105F2D1049B93
:10C6100013B101F1004319460C23CDE916018DF841
:10C620006030FFF796BA9AF801602D2E00F0FD8673
:10C630002B2E01F08781A6F13003DAB2092A0AF124
:10C64000010ACDD81F462B44B3F59A7F01F36E81C2
:10C650004FF0000E06E003EB4C077B19B3F59A7F11
:10C6600000F3F7861AF8016FA6F13003DAB2092A4F
:10C6700007EB870CEFD9BEF1000F41F08E802F44FD
:10C68000AEE7D0B200214FF0000B4FF0000CA646F1
:10C690001DE000BF99999919FFFF0F0060940600F3
:10C6A000CE4B4FF09932634508BF5A45C0F00F8416
:10C6B000DDE9022312EB0B0243EB0C0312EB020B3E
:10C6C00043EB030C654508BF5C45C0F0008418F8D7
:10C6D000019F1BEB000B4CEB010CA9F1300A4FEA58
:10C6E0008C014FEA8B035FFA8AFA02935FFA8AF0B1
:10C6F00041EA9B73BAF1090F4FF0000103936FEA0F
:10C7000000046FEA0105CBD97446B9F1000F41F07E
:10C71000A081049B002B00F06C86BCF1004F08BF89
:10C72000BBF1010FC0F0EB860025584661460A2296
:10C73000002339F01FFAAA4B4FF0FF328B4205F16C
:10C74000010508BF824283468C462DB2EDD3BAF173
:10C75000090F07D818F8019FA9F130030135092BFB
:10C760002DB2F7D9B9F12E0F00F04B8509F0DF0398
:10C77000452BAA4629D0B9F1000F7FF46BAA584681
:10C78000614638F06BFDBAF1000F41F32581DFF807
:10C79000548200251AF0010F06D0EBB208EBC30358
:10C7A000D3E9002338F090FD5FEA6A0A05F101053C
:10C7B000F0D1049B13B101F1004319460C23CDE9DC
:10C7C00016018DF86030FFF745BA98F80190B9F17D
:10C7D0002D0F00F09F86B9F12B0F01F02180A9F1F8
:10C7E0003003DAB2092A08F10108C4D89A462B446A
:10C7F000B3F59A7F01F30780002007E003EB410ABD
:10C800000AEB0503B3F59A7F00F39A8618F8019FA7
:10C81000A9F13003DAB2092A0AEB8A01EED900281D
:10C8200040F0ED87AA44A6E7D0B200214FF0000BFC
:10C830004FF0000CBE4616E0684B4FF0993263454E
:10C8400008BF5A45C0F04183DDE9022312EB0B0219
:10C8500043EB0C0312EB020B43EB030C674508BFE1
:10C860005E45C0F0328318F8019F1BEB000B4CEBC8
:10C87000010CA9F1300A4FEA8C014FEA8B035FFAF1
:10C880008AFA02935FFA8AF041EA9B73BAF1090FC0
:10C890004FF0000103936FEA00066FEA0107CBD95E
:10C8A0007746B9F1000F41F0DE80049B002B00F0C9
:10C8B000A785BCF1004F08BFBBF1010FC0F0148683
:10C8C0000026584661460A22002339F053F9444BAA
:10C8D0004FF0FF328B4206F1010608BF82428346C9
:10C8E0008C4636B2EDD3BAF1090F07D818F8019F7C
:10C8F000A9F130030136092B36B2F7D9B9F12E0F61
:10C9000000F0478409F0DF03452BB24629D0B9F186
:10C91000000F7FF47BA95846614638F09FFCBAF1BE
:10C92000000F41F33B80DFF8BC8000261AF0010FB6
:10C9300006D0F3B208EBC303D3E9002338F0C4FCFC
:10C940005FEA6A0A06F10106F0D1049B13B101F116
:10C95000004319460C23CDE916018DF86030FFF72E
:10C9600055B998F80190B9F12D0F00F0AA86B9F1E8
:10C970002B0F00F0B487A9F13003DAB2092A08F1CD
:10C980000108C4D89A463344B3F59A7F00F39A87D6
:10C99000002007E003EB410A0AEB0603B3F59A7F98
:10C9A00000F3A58618F8019FA9F13003DAB2092A2D
:10C9B0000AEB8A01EED9002840F07487B244A6E75A
:10C9C0004FF000084FF000095FFA8BFB4FF0000CAE
:10C9D000AE46CDE90289059422E000BF99999919E4
:10C9E000FFFF0F00609406004D46DFF84093444679
:10C9F000A9454FF0993808BFA045A946A046C0F008
:10CA00006F8214EB000845EB010918EB080049EBB5
:10CA100009018B4208BF8242CDE90201C0F05E826B
:10CA2000DDE902891EF8016F18EB0B0849EB0C09D0
:10CA3000A6F1300A5FFA8AFA4B469B0042465FFA3B
:10CA40008AFB4FF0000CBAF1090F4FEA820043EA6B
:10CA50009871CDE902896FEA0B026FEA0C03C3D922
:10CA60007546059C002E40F0D787049B002B00F0F4
:10CA7000A484B9F1004F08BFB8F1010FC0F044869B
:10CA80004FF0000B404649460A22002339F072F865
:10CA9000A44B4FF0FF328B420BF1010B08BF8242D7
:10CAA000804689460FFA8BFBECD3BAF1090F09D8FF
:10CAB00015F8016FA6F130030BF1010B092B0FFAEA
:10CAC0008BFBF5D92E2E00F0728206F0DF03452B8A
:10CAD000DA4627D0002E7FF4AEA94046494638F00A
